{
	"Documents/BlockChain-Based-Documents-Verfication-System-With-IPFS-main-master/Contract/Verfication.sol": {
		"Verification": {
			"abi": [
				{
					"inputs": [],
					"stateMutability": "nonpayable",
					"type": "constructor"
				},
				{
					"anonymous": false,
					"inputs": [
						{
							"indexed": true,
							"internalType": "address",
							"name": "_exporter",
							"type": "address"
						},
						{
							"indexed": false,
							"internalType": "string",
							"name": "_ipfsHash",
							"type": "string"
						}
					],
					"name": "addHash",
					"type": "event"
				},
				{
					"inputs": [
						{
							"internalType": "bytes32",
							"name": "hash",
							"type": "bytes32"
						},
						{
							"internalType": "string",
							"name": "_ipfs",
							"type": "string"
						}
					],
					"name": "addDocHash",
					"outputs": [],
					"stateMutability": "nonpayable",
					"type": "function"
				},
				{
					"inputs": [
						{
							"internalType": "address",
							"name": "_add",
							"type": "address"
						},
						{
							"internalType": "string",
							"name": "_info",
							"type": "string"
						}
					],
					"name": "add_Exporter",
					"outputs": [],
					"stateMutability": "nonpayable",
					"type": "function"
				},
				{
					"inputs": [
						{
							"internalType": "address",
							"name": "_add",
							"type": "address"
						},
						{
							"internalType": "string",
							"name": "_newInfo",
							"type": "string"
						}
					],
					"name": "alter_Exporter",
					"outputs": [],
					"stateMutability": "nonpayable",
					"type": "function"
				},
				{
					"inputs": [
						{
							"internalType": "address",
							"name": "_newOwner",
							"type": "address"
						}
					],
					"name": "changeOwner",
					"outputs": [],
					"stateMutability": "nonpayable",
					"type": "function"
				},
				{
					"inputs": [],
					"name": "count_Exporters",
					"outputs": [
						{
							"internalType": "uint16",
							"name": "",
							"type": "uint16"
						}
					],
					"stateMutability": "view",
					"type": "function"
				},
				{
					"inputs": [],
					"name": "count_hashes",
					"outputs": [
						{
							"internalType": "uint16",
							"name": "",
							"type": "uint16"
						}
					],
					"stateMutability": "view",
					"type": "function"
				},
				{
					"inputs": [
						{
							"internalType": "bytes32",
							"name": "_hash",
							"type": "bytes32"
						}
					],
					"name": "deleteHash",
					"outputs": [],
					"stateMutability": "nonpayable",
					"type": "function"
				},
				{
					"inputs": [
						{
							"internalType": "address",
							"name": "_add",
							"type": "address"
						}
					],
					"name": "delete_Exporter",
					"outputs": [],
					"stateMutability": "nonpayable",
					"type": "function"
				},
				{
					"inputs": [
						{
							"internalType": "bytes32",
							"name": "_hash",
							"type": "bytes32"
						}
					],
					"name": "findDocHash",
					"outputs": [
						{
							"internalType": "uint256",
							"name": "",
							"type": "uint256"
						},
						{
							"internalType": "uint256",
							"name": "",
							"type": "uint256"
						},
						{
							"internalType": "string",
							"name": "",
							"type": "string"
						},
						{
							"internalType": "string",
							"name": "",
							"type": "string"
						}
					],
					"stateMutability": "view",
					"type": "function"
				},
				{
					"inputs": [
						{
							"internalType": "address",
							"name": "_add",
							"type": "address"
						}
					],
					"name": "getExporterInfo",
					"outputs": [
						{
							"internalType": "string",
							"name": "",
							"type": "string"
						}
					],
					"stateMutability": "view",
					"type": "function"
				},
				{
					"inputs": [],
					"name": "owner",
					"outputs": [
						{
							"internalType": "address",
							"name": "",
							"type": "address"
						}
					],
					"stateMutability": "view",
					"type": "function"
				}
			],
			"devdoc": {
				"kind": "dev",
				"methods": {},
				"version": 1
			},
			"evm": {
				"assembly": "    /* \"Documents/BlockChain-Based-Documents-Verfication-System-With-IPFS-main-master/Contract/Verfication.sol\":70:3396  contract Verification {... */\n  mstore(0x40, 0x80)\n    /* \"Documents/BlockChain-Based-Documents-Verfication-System-With-IPFS-main-master/Contract/Verfication.sol\":171:172  0 */\n  0x00\n    /* \"Documents/BlockChain-Based-Documents-Verfication-System-With-IPFS-main-master/Contract/Verfication.sol\":140:172  uint16 public count_Exporters =0 */\n  dup1\n  exp(0x0100, 0x00)\n  dup2\n  sload\n  dup2\n  0xffff\n  mul\n  not\n  and\n  swap1\n  dup4\n  0xffff\n  and\n  mul\n  or\n  swap1\n  sstore\n  pop\n    /* \"Documents/BlockChain-Based-Documents-Verfication-System-With-IPFS-main-master/Contract/Verfication.sol\":205:206  0 */\n  0x00\n    /* \"Documents/BlockChain-Based-Documents-Verfication-System-With-IPFS-main-master/Contract/Verfication.sol\":178:206  uint16 public count_hashes=0 */\n  dup1\n  exp(0x0100, 0x02)\n  dup2\n  sload\n  dup2\n  0xffff\n  mul\n  not\n  and\n  swap1\n  dup4\n  0xffff\n  and\n  mul\n  or\n  swap1\n  sstore\n  pop\n    /* \"Documents/BlockChain-Based-Documents-Verfication-System-With-IPFS-main-master/Contract/Verfication.sol\":98:135  constructor() { owner = msg.sender; } */\n  callvalue\n  dup1\n  iszero\n  tag_1\n  jumpi\n  0x00\n  dup1\n  revert\ntag_1:\n  pop\n    /* \"Documents/BlockChain-Based-Documents-Verfication-System-With-IPFS-main-master/Contract/Verfication.sol\":122:132  msg.sender */\n  caller\n    /* \"Documents/BlockChain-Based-Documents-Verfication-System-With-IPFS-main-master/Contract/Verfication.sol\":114:119  owner */\n  0x00\n  0x04\n    /* \"Documents/BlockChain-Based-Documents-Verfication-System-With-IPFS-main-master/Contract/Verfication.sol\":114:132  owner = msg.sender */\n  0x0100\n  exp\n  dup2\n  sload\n  dup2\n  0xffffffffffffffffffffffffffffffffffffffff\n  mul\n  not\n  and\n  swap1\n  dup4\n  0xffffffffffffffffffffffffffffffffffffffff\n  and\n  mul\n  or\n  swap1\n  sstore\n  pop\n    /* \"Documents/BlockChain-Based-Documents-Verfication-System-With-IPFS-main-master/Contract/Verfication.sol\":70:3396  contract Verification {... */\n  dataSize(sub_0)\n  dup1\n  dataOffset(sub_0)\n  0x00\n  codecopy\n  0x00\n  return\nstop\n\nsub_0: assembly {\n        /* \"Documents/BlockChain-Based-Documents-Verfication-System-With-IPFS-main-master/Contract/Verfication.sol\":70:3396  contract Verification {... */\n      mstore(0x40, 0x80)\n      callvalue\n      dup1\n      iszero\n      tag_1\n      jumpi\n      0x00\n      dup1\n      revert\n    tag_1:\n      pop\n      jumpi(tag_2, lt(calldatasize, 0x04))\n      shr(0xe0, calldataload(0x00))\n      dup1\n      0x63f0bfce\n      gt\n      tag_14\n      jumpi\n      dup1\n      0x63f0bfce\n      eq\n      tag_8\n      jumpi\n      dup1\n      0x6ed73e48\n      eq\n      tag_9\n      jumpi\n      dup1\n      0x8da5cb5b\n      eq\n      tag_10\n      jumpi\n      dup1\n      0xa6f9dae1\n      eq\n      tag_11\n      jumpi\n      dup1\n      0xbf3ccf48\n      eq\n      tag_12\n      jumpi\n      dup1\n      0xcf3457bf\n      eq\n      tag_13\n      jumpi\n      jump(tag_2)\n    tag_14:\n      dup1\n      0x05c8dc19\n      eq\n      tag_3\n      jumpi\n      dup1\n      0x24ac89cb\n      eq\n      tag_4\n      jumpi\n      dup1\n      0x43f6f548\n      eq\n      tag_5\n      jumpi\n      dup1\n      0x4cf00d3f\n      eq\n      tag_6\n      jumpi\n      dup1\n      0x505cd5d0\n      eq\n      tag_7\n      jumpi\n    tag_2:\n      0x00\n      dup1\n      revert\n        /* \"Documents/BlockChain-Based-Documents-Verfication-System-With-IPFS-main-master/Contract/Verfication.sol\":3271:3394  function  getExporterInfo(address _add) external view returns(string memory){... */\n    tag_3:\n      tag_15\n      0x04\n      dup1\n      calldatasize\n      sub\n      dup2\n      add\n      swap1\n      tag_16\n      swap2\n      swap1\n      tag_17\n      jump\t// in\n    tag_16:\n      tag_18\n      jump\t// in\n    tag_15:\n      mload(0x40)\n      tag_19\n      swap2\n      swap1\n      tag_20\n      jump\t// in\n    tag_19:\n      mload(0x40)\n      dup1\n      swap2\n      sub\n      swap1\n      return\n        /* \"Documents/BlockChain-Based-Documents-Verfication-System-With-IPFS-main-master/Contract/Verfication.sol\":1699:1934  function delete_Exporter(address _add) external  ... */\n    tag_4:\n      tag_21\n      0x04\n      dup1\n      calldatasize\n      sub\n      dup2\n      add\n      swap1\n      tag_22\n      swap2\n      swap1\n      tag_17\n      jump\t// in\n    tag_22:\n      tag_23\n      jump\t// in\n    tag_21:\n      stop\n        /* \"Documents/BlockChain-Based-Documents-Verfication-System-With-IPFS-main-master/Contract/Verfication.sol\":178:206  uint16 public count_hashes=0 */\n    tag_5:\n      tag_24\n      tag_25\n      jump\t// in\n    tag_24:\n      mload(0x40)\n      tag_26\n      swap2\n      swap1\n      tag_27\n      jump\t// in\n    tag_26:\n      mload(0x40)\n      dup1\n      swap2\n      sub\n      swap1\n      return\n        /* \"Documents/BlockChain-Based-Documents-Verfication-System-With-IPFS-main-master/Contract/Verfication.sol\":2766:3014  function findDocHash (bytes32 _hash) ... */\n    tag_6:\n      tag_28\n      0x04\n      dup1\n      calldatasize\n      sub\n      dup2\n      add\n      swap1\n      tag_29\n      swap2\n      swap1\n      tag_30\n      jump\t// in\n    tag_29:\n      tag_31\n      jump\t// in\n    tag_28:\n      mload(0x40)\n      tag_32\n      swap5\n      swap4\n      swap3\n      swap2\n      swap1\n      tag_33\n      jump\t// in\n    tag_32:\n      mload(0x40)\n      dup1\n      swap2\n      sub\n      swap1\n      return\n        /* \"Documents/BlockChain-Based-Documents-Verfication-System-With-IPFS-main-master/Contract/Verfication.sol\":1948:2140  function alter_Exporter(address _add,string calldata    _newInfo) public... */\n    tag_7:\n      tag_34\n      0x04\n      dup1\n      calldatasize\n      sub\n      dup2\n      add\n      swap1\n      tag_35\n      swap2\n      swap1\n      tag_36\n      jump\t// in\n    tag_35:\n      tag_37\n      jump\t// in\n    tag_34:\n      stop\n        /* \"Documents/BlockChain-Based-Documents-Verfication-System-With-IPFS-main-master/Contract/Verfication.sol\":3020:3261  function deleteHash (bytes32 _hash) public... */\n    tag_8:\n      tag_38\n      0x04\n      dup1\n      calldatasize\n      sub\n      dup2\n      add\n      swap1\n      tag_39\n      swap2\n      swap1\n      tag_30\n      jump\t// in\n    tag_39:\n      tag_40\n      jump\t// in\n    tag_38:\n      stop\n        /* \"Documents/BlockChain-Based-Documents-Verfication-System-With-IPFS-main-master/Contract/Verfication.sol\":140:172  uint16 public count_Exporters =0 */\n    tag_9:\n      tag_41\n      tag_42\n      jump\t// in\n    tag_41:\n      mload(0x40)\n      tag_43\n      swap2\n      swap1\n      tag_27\n      jump\t// in\n    tag_43:\n      mload(0x40)\n      dup1\n      swap2\n      sub\n      swap1\n      return\n        /* \"Documents/BlockChain-Based-Documents-Verfication-System-With-IPFS-main-master/Contract/Verfication.sol\":212:232  address public owner */\n    tag_10:\n      tag_44\n      tag_45\n      jump\t// in\n    tag_44:\n      mload(0x40)\n      tag_46\n      swap2\n      swap1\n      tag_47\n      jump\t// in\n    tag_46:\n      mload(0x40)\n      dup1\n      swap2\n      sub\n      swap1\n      return\n        /* \"Documents/BlockChain-Based-Documents-Verfication-System-With-IPFS-main-master/Contract/Verfication.sol\":2146:2262  function changeOwner(address _newOwner) public ... */\n    tag_11:\n      tag_48\n      0x04\n      dup1\n      calldatasize\n      sub\n      dup2\n      add\n      swap1\n      tag_49\n      swap2\n      swap1\n      tag_17\n      jump\t// in\n    tag_49:\n      tag_50\n      jump\t// in\n    tag_48:\n      stop\n        /* \"Documents/BlockChain-Based-Documents-Verfication-System-With-IPFS-main-master/Contract/Verfication.sol\":2335:2753  function addDocHash (bytes32  hash,string calldata _ipfs) public ... */\n    tag_12:\n      tag_51\n      0x04\n      dup1\n      calldatasize\n      sub\n      dup2\n      add\n      swap1\n      tag_52\n      swap2\n      swap1\n      tag_53\n      jump\t// in\n    tag_52:\n      tag_54\n      jump\t// in\n    tag_51:\n      stop\n        /* \"Documents/BlockChain-Based-Documents-Verfication-System-With-IPFS-main-master/Contract/Verfication.sol\":1409:1693  function add_Exporter(address _add,string calldata _info) external... */\n    tag_13:\n      tag_55\n      0x04\n      dup1\n      calldatasize\n      sub\n      dup2\n      add\n      swap1\n      tag_56\n      swap2\n      swap1\n      tag_36\n      jump\t// in\n    tag_56:\n      tag_57\n      jump\t// in\n    tag_55:\n      stop\n        /* \"Documents/BlockChain-Based-Documents-Verfication-System-With-IPFS-main-master/Contract/Verfication.sol\":3271:3394  function  getExporterInfo(address _add) external view returns(string memory){... */\n    tag_18:\n        /* \"Documents/BlockChain-Based-Documents-Verfication-System-With-IPFS-main-master/Contract/Verfication.sol\":3333:3346  string memory */\n      0x60\n        /* \"Documents/BlockChain-Based-Documents-Verfication-System-With-IPFS-main-master/Contract/Verfication.sol\":3366:3375  Exporters */\n      0x02\n        /* \"Documents/BlockChain-Based-Documents-Verfication-System-With-IPFS-main-master/Contract/Verfication.sol\":3366:3381  Exporters[_add] */\n      0x00\n        /* \"Documents/BlockChain-Based-Documents-Verfication-System-With-IPFS-main-master/Contract/Verfication.sol\":3376:3380  _add */\n      dup4\n        /* \"Documents/BlockChain-Based-Documents-Verfication-System-With-IPFS-main-master/Contract/Verfication.sol\":3366:3381  Exporters[_add] */\n      0xffffffffffffffffffffffffffffffffffffffff\n      and\n      0xffffffffffffffffffffffffffffffffffffffff\n      and\n      dup2\n      mstore\n      0x20\n      add\n      swap1\n      dup2\n      mstore\n      0x20\n      add\n      0x00\n      keccak256\n        /* \"Documents/BlockChain-Based-Documents-Verfication-System-With-IPFS-main-master/Contract/Verfication.sol\":3366:3386  Exporters[_add].info */\n      0x01\n      add\n        /* \"Documents/BlockChain-Based-Documents-Verfication-System-With-IPFS-main-master/Contract/Verfication.sol\":3358:3387  return (Exporters[_add].info) */\n      dup1\n      sload\n      tag_59\n      swap1\n      tag_60\n      jump\t// in\n    tag_59:\n      dup1\n      0x1f\n      add\n      0x20\n      dup1\n      swap2\n      div\n      mul\n      0x20\n      add\n      mload(0x40)\n      swap1\n      dup2\n      add\n      0x40\n      mstore\n      dup1\n      swap3\n      swap2\n      swap1\n      dup2\n      dup2\n      mstore\n      0x20\n      add\n      dup3\n      dup1\n      sload\n      tag_61\n      swap1\n      tag_60\n      jump\t// in\n    tag_61:\n      dup1\n      iszero\n      tag_62\n      jumpi\n      dup1\n      0x1f\n      lt\n      tag_63\n      jumpi\n      0x0100\n      dup1\n      dup4\n      sload\n      div\n      mul\n      dup4\n      mstore\n      swap2\n      0x20\n      add\n      swap2\n      jump(tag_62)\n    tag_63:\n      dup3\n      add\n      swap2\n      swap1\n      0x00\n      mstore\n      keccak256(0x00, 0x20)\n      swap1\n    tag_64:\n      dup2\n      sload\n      dup2\n      mstore\n      swap1\n      0x01\n      add\n      swap1\n      0x20\n      add\n      dup1\n      dup4\n      gt\n      tag_64\n      jumpi\n      dup3\n      swap1\n      sub\n      0x1f\n      and\n      dup3\n      add\n      swap2\n    tag_62:\n      pop\n      pop\n      pop\n      pop\n      pop\n      swap1\n      pop\n        /* \"Documents/BlockChain-Based-Documents-Verfication-System-With-IPFS-main-master/Contract/Verfication.sol\":3271:3394  function  getExporterInfo(address _add) external view returns(string memory){... */\n      swap2\n      swap1\n      pop\n      jump\t// out\n        /* \"Documents/BlockChain-Based-Documents-Verfication-System-With-IPFS-main-master/Contract/Verfication.sol\":1699:1934  function delete_Exporter(address _add) external  ... */\n    tag_23:\n        /* \"Documents/BlockChain-Based-Documents-Verfication-System-With-IPFS-main-master/Contract/Verfication.sol\":739:744  owner */\n      0x00\n      0x04\n      swap1\n      sload\n      swap1\n      0x0100\n      exp\n      swap1\n      div\n      0xffffffffffffffffffffffffffffffffffffffff\n      and\n        /* \"Documents/BlockChain-Based-Documents-Verfication-System-With-IPFS-main-master/Contract/Verfication.sol\":725:744  msg.sender != owner */\n      0xffffffffffffffffffffffffffffffffffffffff\n      and\n        /* \"Documents/BlockChain-Based-Documents-Verfication-System-With-IPFS-main-master/Contract/Verfication.sol\":725:735  msg.sender */\n      caller\n        /* \"Documents/BlockChain-Based-Documents-Verfication-System-With-IPFS-main-master/Contract/Verfication.sol\":725:744  msg.sender != owner */\n      0xffffffffffffffffffffffffffffffffffffffff\n      and\n      eq\n        /* \"Documents/BlockChain-Based-Documents-Verfication-System-With-IPFS-main-master/Contract/Verfication.sol\":721:796  if (msg.sender != owner) {... */\n      tag_66\n      jumpi\n        /* \"Documents/BlockChain-Based-Documents-Verfication-System-With-IPFS-main-master/Contract/Verfication.sol\":760:793  revert(\"Caller is not the owner\") */\n      mload(0x40)\n      0x08c379a000000000000000000000000000000000000000000000000000000000\n      dup2\n      mstore\n      0x04\n      add\n      tag_67\n      swap1\n      tag_68\n      jump\t// in\n    tag_67:\n      mload(0x40)\n      dup1\n      swap2\n      sub\n      swap1\n      revert\n        /* \"Documents/BlockChain-Based-Documents-Verfication-System-With-IPFS-main-master/Contract/Verfication.sol\":721:796  if (msg.sender != owner) {... */\n    tag_66:\n        /* \"Documents/BlockChain-Based-Documents-Verfication-System-With-IPFS-main-master/Contract/Verfication.sol\":1813:1814  0 */\n      0x00\n        /* \"Documents/BlockChain-Based-Documents-Verfication-System-With-IPFS-main-master/Contract/Verfication.sol\":1784:1793  Exporters */\n      0x02\n        /* \"Documents/BlockChain-Based-Documents-Verfication-System-With-IPFS-main-master/Contract/Verfication.sol\":1784:1799  Exporters[_add] */\n      0x00\n        /* \"Documents/BlockChain-Based-Documents-Verfication-System-With-IPFS-main-master/Contract/Verfication.sol\":1794:1798  _add */\n      dup4\n        /* \"Documents/BlockChain-Based-Documents-Verfication-System-With-IPFS-main-master/Contract/Verfication.sol\":1784:1799  Exporters[_add] */\n      0xffffffffffffffffffffffffffffffffffffffff\n      and\n      0xffffffffffffffffffffffffffffffffffffffff\n      and\n      dup2\n      mstore\n      0x20\n      add\n      swap1\n      dup2\n      mstore\n      0x20\n      add\n      0x00\n      keccak256\n        /* \"Documents/BlockChain-Based-Documents-Verfication-System-With-IPFS-main-master/Contract/Verfication.sol\":1784:1811  Exporters[_add].blockNumber */\n      0x00\n      add\n      sload\n        /* \"Documents/BlockChain-Based-Documents-Verfication-System-With-IPFS-main-master/Contract/Verfication.sol\":1784:1814  Exporters[_add].blockNumber!=0 */\n      sub\n        /* \"Documents/BlockChain-Based-Documents-Verfication-System-With-IPFS-main-master/Contract/Verfication.sol\":1777:1815  assert(Exporters[_add].blockNumber!=0) */\n      tag_70\n      jumpi\n      tag_71\n      tag_72\n      jump\t// in\n    tag_71:\n    tag_70:\n        /* \"Documents/BlockChain-Based-Documents-Verfication-System-With-IPFS-main-master/Contract/Verfication.sol\":1862:1863  0 */\n      0x00\n        /* \"Documents/BlockChain-Based-Documents-Verfication-System-With-IPFS-main-master/Contract/Verfication.sol\":1834:1843  Exporters */\n      0x02\n        /* \"Documents/BlockChain-Based-Documents-Verfication-System-With-IPFS-main-master/Contract/Verfication.sol\":1834:1849  Exporters[_add] */\n      0x00\n        /* \"Documents/BlockChain-Based-Documents-Verfication-System-With-IPFS-main-master/Contract/Verfication.sol\":1844:1848  _add */\n      dup4\n        /* \"Documents/BlockChain-Based-Documents-Verfication-System-With-IPFS-main-master/Contract/Verfication.sol\":1834:1849  Exporters[_add] */\n      0xffffffffffffffffffffffffffffffffffffffff\n      and\n      0xffffffffffffffffffffffffffffffffffffffff\n      and\n      dup2\n      mstore\n      0x20\n      add\n      swap1\n      dup2\n      mstore\n      0x20\n      add\n      0x00\n      keccak256\n        /* \"Documents/BlockChain-Based-Documents-Verfication-System-With-IPFS-main-master/Contract/Verfication.sol\":1834:1861  Exporters[_add].blockNumber */\n      0x00\n      add\n        /* \"Documents/BlockChain-Based-Documents-Verfication-System-With-IPFS-main-master/Contract/Verfication.sol\":1834:1863  Exporters[_add].blockNumber=0 */\n      dup2\n      swap1\n      sstore\n      pop\n        /* \"Documents/BlockChain-Based-Documents-Verfication-System-With-IPFS-main-master/Contract/Verfication.sol\":1873:1896  Exporters[_add].info=\"\" */\n      mload(0x40)\n      dup1\n      0x20\n      add\n      0x40\n      mstore\n      dup1\n      0x00\n      dup2\n      mstore\n      pop\n        /* \"Documents/BlockChain-Based-Documents-Verfication-System-With-IPFS-main-master/Contract/Verfication.sol\":1873:1882  Exporters */\n      0x02\n        /* \"Documents/BlockChain-Based-Documents-Verfication-System-With-IPFS-main-master/Contract/Verfication.sol\":1873:1888  Exporters[_add] */\n      0x00\n        /* \"Documents/BlockChain-Based-Documents-Verfication-System-With-IPFS-main-master/Contract/Verfication.sol\":1883:1887  _add */\n      dup4\n        /* \"Documents/BlockChain-Based-Documents-Verfication-System-With-IPFS-main-master/Contract/Verfication.sol\":1873:1888  Exporters[_add] */\n      0xffffffffffffffffffffffffffffffffffffffff\n      and\n      0xffffffffffffffffffffffffffffffffffffffff\n      and\n      dup2\n      mstore\n      0x20\n      add\n      swap1\n      dup2\n      mstore\n      0x20\n      add\n      0x00\n      keccak256\n        /* \"Documents/BlockChain-Based-Documents-Verfication-System-With-IPFS-main-master/Contract/Verfication.sol\":1873:1893  Exporters[_add].info */\n      0x01\n      add\n        /* \"Documents/BlockChain-Based-Documents-Verfication-System-With-IPFS-main-master/Contract/Verfication.sol\":1873:1896  Exporters[_add].info=\"\" */\n      swap1\n      dup2\n      tag_73\n      swap2\n      swap1\n      tag_74\n      jump\t// in\n    tag_73:\n      pop\n        /* \"Documents/BlockChain-Based-Documents-Verfication-System-With-IPFS-main-master/Contract/Verfication.sol\":1908:1923  count_Exporters */\n      0x00\n      dup1\n        /* \"Documents/BlockChain-Based-Documents-Verfication-System-With-IPFS-main-master/Contract/Verfication.sol\":1906:1923  --count_Exporters */\n      dup2\n      dup2\n      swap1\n      sload\n      swap1\n      0x0100\n      exp\n      swap1\n      div\n      0xffff\n      and\n      tag_75\n      swap1\n      tag_76\n      jump\t// in\n    tag_75:\n      swap2\n      swap1\n      0x0100\n      exp\n      dup2\n      sload\n      dup2\n      0xffff\n      mul\n      not\n      and\n      swap1\n      dup4\n      0xffff\n      and\n      mul\n      or\n      swap1\n      sstore\n      pop\n        /* \"Documents/BlockChain-Based-Documents-Verfication-System-With-IPFS-main-master/Contract/Verfication.sol\":1699:1934  function delete_Exporter(address _add) external  ... */\n      pop\n      jump\t// out\n        /* \"Documents/BlockChain-Based-Documents-Verfication-System-With-IPFS-main-master/Contract/Verfication.sol\":178:206  uint16 public count_hashes=0 */\n    tag_25:\n      0x00\n      0x02\n      swap1\n      sload\n      swap1\n      0x0100\n      exp\n      swap1\n      div\n      0xffff\n      and\n      dup2\n      jump\t// out\n        /* \"Documents/BlockChain-Based-Documents-Verfication-System-With-IPFS-main-master/Contract/Verfication.sol\":2766:3014  function findDocHash (bytes32 _hash) ... */\n    tag_31:\n        /* \"Documents/BlockChain-Based-Documents-Verfication-System-With-IPFS-main-master/Contract/Verfication.sol\":2833:2837  uint */\n      0x00\n        /* \"Documents/BlockChain-Based-Documents-Verfication-System-With-IPFS-main-master/Contract/Verfication.sol\":2838:2842  uint */\n      dup1\n        /* \"Documents/BlockChain-Based-Documents-Verfication-System-With-IPFS-main-master/Contract/Verfication.sol\":2843:2856  string memory */\n      0x60\n        /* \"Documents/BlockChain-Based-Documents-Verfication-System-With-IPFS-main-master/Contract/Verfication.sol\":2857:2870  string memory */\n      dup1\n        /* \"Documents/BlockChain-Based-Documents-Verfication-System-With-IPFS-main-master/Contract/Verfication.sol\":2898:2907  docHashes */\n      0x01\n        /* \"Documents/BlockChain-Based-Documents-Verfication-System-With-IPFS-main-master/Contract/Verfication.sol\":2898:2914  docHashes[_hash] */\n      0x00\n        /* \"Documents/BlockChain-Based-Documents-Verfication-System-With-IPFS-main-master/Contract/Verfication.sol\":2908:2913  _hash */\n      dup7\n        /* \"Documents/BlockChain-Based-Documents-Verfication-System-With-IPFS-main-master/Contract/Verfication.sol\":2898:2914  docHashes[_hash] */\n      dup2\n      mstore\n      0x20\n      add\n      swap1\n      dup2\n      mstore\n      0x20\n      add\n      0x00\n      keccak256\n        /* \"Documents/BlockChain-Based-Documents-Verfication-System-With-IPFS-main-master/Contract/Verfication.sol\":2898:2926  docHashes[_hash].blockNumber */\n      0x00\n      add\n      sload\n        /* \"Documents/BlockChain-Based-Documents-Verfication-System-With-IPFS-main-master/Contract/Verfication.sol\":2927:2936  docHashes */\n      0x01\n        /* \"Documents/BlockChain-Based-Documents-Verfication-System-With-IPFS-main-master/Contract/Verfication.sol\":2927:2943  docHashes[_hash] */\n      0x00\n        /* \"Documents/BlockChain-Based-Documents-Verfication-System-With-IPFS-main-master/Contract/Verfication.sol\":2937:2942  _hash */\n      dup8\n        /* \"Documents/BlockChain-Based-Documents-Verfication-System-With-IPFS-main-master/Contract/Verfication.sol\":2927:2943  docHashes[_hash] */\n      dup2\n      mstore\n      0x20\n      add\n      swap1\n      dup2\n      mstore\n      0x20\n      add\n      0x00\n      keccak256\n        /* \"Documents/BlockChain-Based-Documents-Verfication-System-With-IPFS-main-master/Contract/Verfication.sol\":2927:2952  docHashes[_hash].minetime */\n      0x01\n      add\n      sload\n        /* \"Documents/BlockChain-Based-Documents-Verfication-System-With-IPFS-main-master/Contract/Verfication.sol\":2953:2962  docHashes */\n      0x01\n        /* \"Documents/BlockChain-Based-Documents-Verfication-System-With-IPFS-main-master/Contract/Verfication.sol\":2953:2969  docHashes[_hash] */\n      0x00\n        /* \"Documents/BlockChain-Based-Documents-Verfication-System-With-IPFS-main-master/Contract/Verfication.sol\":2963:2968  _hash */\n      dup9\n        /* \"Documents/BlockChain-Based-Documents-Verfication-System-With-IPFS-main-master/Contract/Verfication.sol\":2953:2969  docHashes[_hash] */\n      dup2\n      mstore\n      0x20\n      add\n      swap1\n      dup2\n      mstore\n      0x20\n      add\n      0x00\n      keccak256\n        /* \"Documents/BlockChain-Based-Documents-Verfication-System-With-IPFS-main-master/Contract/Verfication.sol\":2953:2974  docHashes[_hash].info */\n      0x02\n      add\n        /* \"Documents/BlockChain-Based-Documents-Verfication-System-With-IPFS-main-master/Contract/Verfication.sol\":2975:2984  docHashes */\n      0x01\n        /* \"Documents/BlockChain-Based-Documents-Verfication-System-With-IPFS-main-master/Contract/Verfication.sol\":2975:2991  docHashes[_hash] */\n      0x00\n        /* \"Documents/BlockChain-Based-Documents-Verfication-System-With-IPFS-main-master/Contract/Verfication.sol\":2985:2990  _hash */\n      dup10\n        /* \"Documents/BlockChain-Based-Documents-Verfication-System-With-IPFS-main-master/Contract/Verfication.sol\":2975:2991  docHashes[_hash] */\n      dup2\n      mstore\n      0x20\n      add\n      swap1\n      dup2\n      mstore\n      0x20\n      add\n      0x00\n      keccak256\n        /* \"Documents/BlockChain-Based-Documents-Verfication-System-With-IPFS-main-master/Contract/Verfication.sol\":2975:3001  docHashes[_hash].ipfs_hash */\n      0x03\n      add\n        /* \"Documents/BlockChain-Based-Documents-Verfication-System-With-IPFS-main-master/Contract/Verfication.sol\":2890:3003  return (docHashes[_hash].blockNumber,docHashes[_hash].minetime,docHashes[_hash].info,docHashes[_hash].ipfs_hash ) */\n      dup2\n      dup1\n      sload\n      tag_78\n      swap1\n      tag_60\n      jump\t// in\n    tag_78:\n      dup1\n      0x1f\n      add\n      0x20\n      dup1\n      swap2\n      div\n      mul\n      0x20\n      add\n      mload(0x40)\n      swap1\n      dup2\n      add\n      0x40\n      mstore\n      dup1\n      swap3\n      swap2\n      swap1\n      dup2\n      dup2\n      mstore\n      0x20\n      add\n      dup3\n      dup1\n      sload\n      tag_79\n      swap1\n      tag_60\n      jump\t// in\n    tag_79:\n      dup1\n      iszero\n      tag_80\n      jumpi\n      dup1\n      0x1f\n      lt\n      tag_81\n      jumpi\n      0x0100\n      dup1\n      dup4\n      sload\n      div\n      mul\n      dup4\n      mstore\n      swap2\n      0x20\n      add\n      swap2\n      jump(tag_80)\n    tag_81:\n      dup3\n      add\n      swap2\n      swap1\n      0x00\n      mstore\n      keccak256(0x00, 0x20)\n      swap1\n    tag_82:\n      dup2\n      sload\n      dup2\n      mstore\n      swap1\n      0x01\n      add\n      swap1\n      0x20\n      add\n      dup1\n      dup4\n      gt\n      tag_82\n      jumpi\n      dup3\n      swap1\n      sub\n      0x1f\n      and\n      dup3\n      add\n      swap2\n    tag_80:\n      pop\n      pop\n      pop\n      pop\n      pop\n      swap2\n      pop\n      dup1\n      dup1\n      sload\n      tag_83\n      swap1\n      tag_60\n      jump\t// in\n    tag_83:\n      dup1\n      0x1f\n      add\n      0x20\n      dup1\n      swap2\n      div\n      mul\n      0x20\n      add\n      mload(0x40)\n      swap1\n      dup2\n      add\n      0x40\n      mstore\n      dup1\n      swap3\n      swap2\n      swap1\n      dup2\n      dup2\n      mstore\n      0x20\n      add\n      dup3\n      dup1\n      sload\n      tag_84\n      swap1\n      tag_60\n      jump\t// in\n    tag_84:\n      dup1\n      iszero\n      tag_85\n      jumpi\n      dup1\n      0x1f\n      lt\n      tag_86\n      jumpi\n      0x0100\n      dup1\n      dup4\n      sload\n      div\n      mul\n      dup4\n      mstore\n      swap2\n      0x20\n      add\n      swap2\n      jump(tag_85)\n    tag_86:\n      dup3\n      add\n      swap2\n      swap1\n      0x00\n      mstore\n      keccak256(0x00, 0x20)\n      swap1\n    tag_87:\n      dup2\n      sload\n      dup2\n      mstore\n      swap1\n      0x01\n      add\n      swap1\n      0x20\n      add\n      dup1\n      dup4\n      gt\n      tag_87\n      jumpi\n      dup3\n      swap1\n      sub\n      0x1f\n      and\n      dup3\n      add\n      swap2\n    tag_85:\n      pop\n      pop\n      pop\n      pop\n      pop\n      swap1\n      pop\n      swap4\n      pop\n      swap4\n      pop\n      swap4\n      pop\n      swap4\n      pop\n        /* \"Documents/BlockChain-Based-Documents-Verfication-System-With-IPFS-main-master/Contract/Verfication.sol\":2766:3014  function findDocHash (bytes32 _hash) ... */\n      swap2\n      swap4\n      pop\n      swap2\n      swap4\n      jump\t// out\n        /* \"Documents/BlockChain-Based-Documents-Verfication-System-With-IPFS-main-master/Contract/Verfication.sol\":1948:2140  function alter_Exporter(address _add,string calldata    _newInfo) public... */\n    tag_37:\n        /* \"Documents/BlockChain-Based-Documents-Verfication-System-With-IPFS-main-master/Contract/Verfication.sol\":739:744  owner */\n      0x00\n      0x04\n      swap1\n      sload\n      swap1\n      0x0100\n      exp\n      swap1\n      div\n      0xffffffffffffffffffffffffffffffffffffffff\n      and\n        /* \"Documents/BlockChain-Based-Documents-Verfication-System-With-IPFS-main-master/Contract/Verfication.sol\":725:744  msg.sender != owner */\n      0xffffffffffffffffffffffffffffffffffffffff\n      and\n        /* \"Documents/BlockChain-Based-Documents-Verfication-System-With-IPFS-main-master/Contract/Verfication.sol\":725:735  msg.sender */\n      caller\n        /* \"Documents/BlockChain-Based-Documents-Verfication-System-With-IPFS-main-master/Contract/Verfication.sol\":725:744  msg.sender != owner */\n      0xffffffffffffffffffffffffffffffffffffffff\n      and\n      eq\n        /* \"Documents/BlockChain-Based-Documents-Verfication-System-With-IPFS-main-master/Contract/Verfication.sol\":721:796  if (msg.sender != owner) {... */\n      tag_89\n      jumpi\n        /* \"Documents/BlockChain-Based-Documents-Verfication-System-With-IPFS-main-master/Contract/Verfication.sol\":760:793  revert(\"Caller is not the owner\") */\n      mload(0x40)\n      0x08c379a000000000000000000000000000000000000000000000000000000000\n      dup2\n      mstore\n      0x04\n      add\n      tag_90\n      swap1\n      tag_68\n      jump\t// in\n    tag_90:\n      mload(0x40)\n      dup1\n      swap2\n      sub\n      swap1\n      revert\n        /* \"Documents/BlockChain-Based-Documents-Verfication-System-With-IPFS-main-master/Contract/Verfication.sol\":721:796  if (msg.sender != owner) {... */\n    tag_89:\n        /* \"Documents/BlockChain-Based-Documents-Verfication-System-With-IPFS-main-master/Contract/Verfication.sol\":2091:2092  0 */\n      0x00\n        /* \"Documents/BlockChain-Based-Documents-Verfication-System-With-IPFS-main-master/Contract/Verfication.sol\":2062:2071  Exporters */\n      0x02\n        /* \"Documents/BlockChain-Based-Documents-Verfication-System-With-IPFS-main-master/Contract/Verfication.sol\":2062:2077  Exporters[_add] */\n      0x00\n        /* \"Documents/BlockChain-Based-Documents-Verfication-System-With-IPFS-main-master/Contract/Verfication.sol\":2072:2076  _add */\n      dup6\n        /* \"Documents/BlockChain-Based-Documents-Verfication-System-With-IPFS-main-master/Contract/Verfication.sol\":2062:2077  Exporters[_add] */\n      0xffffffffffffffffffffffffffffffffffffffff\n      and\n      0xffffffffffffffffffffffffffffffffffffffff\n      and\n      dup2\n      mstore\n      0x20\n      add\n      swap1\n      dup2\n      mstore\n      0x20\n      add\n      0x00\n      keccak256\n        /* \"Documents/BlockChain-Based-Documents-Verfication-System-With-IPFS-main-master/Contract/Verfication.sol\":2062:2089  Exporters[_add].blockNumber */\n      0x00\n      add\n      sload\n        /* \"Documents/BlockChain-Based-Documents-Verfication-System-With-IPFS-main-master/Contract/Verfication.sol\":2062:2092  Exporters[_add].blockNumber!=0 */\n      sub\n        /* \"Documents/BlockChain-Based-Documents-Verfication-System-With-IPFS-main-master/Contract/Verfication.sol\":2055:2093  assert(Exporters[_add].blockNumber!=0) */\n      tag_92\n      jumpi\n      tag_93\n      tag_72\n      jump\t// in\n    tag_93:\n    tag_92:\n        /* \"Documents/BlockChain-Based-Documents-Verfication-System-With-IPFS-main-master/Contract/Verfication.sol\":2129:2137  _newInfo */\n      dup2\n      dup2\n        /* \"Documents/BlockChain-Based-Documents-Verfication-System-With-IPFS-main-master/Contract/Verfication.sol\":2108:2117  Exporters */\n      0x02\n        /* \"Documents/BlockChain-Based-Documents-Verfication-System-With-IPFS-main-master/Contract/Verfication.sol\":2108:2123  Exporters[_add] */\n      0x00\n        /* \"Documents/BlockChain-Based-Documents-Verfication-System-With-IPFS-main-master/Contract/Verfication.sol\":2118:2122  _add */\n      dup7\n        /* \"Documents/BlockChain-Based-Documents-Verfication-System-With-IPFS-main-master/Contract/Verfication.sol\":2108:2123  Exporters[_add] */\n      0xffffffffffffffffffffffffffffffffffffffff\n      and\n      0xffffffffffffffffffffffffffffffffffffffff\n      and\n      dup2\n      mstore\n      0x20\n      add\n      swap1\n      dup2\n      mstore\n      0x20\n      add\n      0x00\n      keccak256\n        /* \"Documents/BlockChain-Based-Documents-Verfication-System-With-IPFS-main-master/Contract/Verfication.sol\":2108:2128  Exporters[_add].info */\n      0x01\n      add\n        /* \"Documents/BlockChain-Based-Documents-Verfication-System-With-IPFS-main-master/Contract/Verfication.sol\":2108:2137  Exporters[_add].info=_newInfo */\n      swap2\n      dup3\n      tag_94\n      swap3\n      swap2\n      swap1\n      tag_95\n      jump\t// in\n    tag_94:\n      pop\n        /* \"Documents/BlockChain-Based-Documents-Verfication-System-With-IPFS-main-master/Contract/Verfication.sol\":1948:2140  function alter_Exporter(address _add,string calldata    _newInfo) public... */\n      pop\n      pop\n      pop\n      jump\t// out\n        /* \"Documents/BlockChain-Based-Documents-Verfication-System-With-IPFS-main-master/Contract/Verfication.sol\":3020:3261  function deleteHash (bytes32 _hash) public... */\n    tag_40:\n        /* \"Documents/BlockChain-Based-Documents-Verfication-System-With-IPFS-main-master/Contract/Verfication.sol\":3087:3092  _hash */\n      dup1\n        /* \"Documents/BlockChain-Based-Documents-Verfication-System-With-IPFS-main-master/Contract/Verfication.sol\":1048:1057  docHashes */\n      0x01\n        /* \"Documents/BlockChain-Based-Documents-Verfication-System-With-IPFS-main-master/Contract/Verfication.sol\":1048:1063  docHashes[_doc] */\n      0x00\n        /* \"Documents/BlockChain-Based-Documents-Verfication-System-With-IPFS-main-master/Contract/Verfication.sol\":1058:1062  _doc */\n      dup3\n        /* \"Documents/BlockChain-Based-Documents-Verfication-System-With-IPFS-main-master/Contract/Verfication.sol\":1048:1063  docHashes[_doc] */\n      dup2\n      mstore\n      0x20\n      add\n      swap1\n      dup2\n      mstore\n      0x20\n      add\n      0x00\n      keccak256\n        /* \"Documents/BlockChain-Based-Documents-Verfication-System-With-IPFS-main-master/Contract/Verfication.sol\":1048:1068  docHashes[_doc].info */\n      0x02\n      add\n        /* \"Documents/BlockChain-Based-Documents-Verfication-System-With-IPFS-main-master/Contract/Verfication.sol\":1030:1070  abi.encodePacked((docHashes[_doc].info)) */\n      add(0x20, mload(0x40))\n      tag_97\n      swap2\n      swap1\n      tag_98\n      jump\t// in\n    tag_97:\n      mload(0x40)\n      0x20\n      dup2\n      dup4\n      sub\n      sub\n      dup2\n      mstore\n      swap1\n      0x40\n      mstore\n        /* \"Documents/BlockChain-Based-Documents-Verfication-System-With-IPFS-main-master/Contract/Verfication.sol\":1020:1071  keccak256(abi.encodePacked((docHashes[_doc].info))) */\n      dup1\n      mload\n      swap1\n      0x20\n      add\n      keccak256\n        /* \"Documents/BlockChain-Based-Documents-Verfication-System-With-IPFS-main-master/Contract/Verfication.sol\":987:996  Exporters */\n      0x02\n        /* \"Documents/BlockChain-Based-Documents-Verfication-System-With-IPFS-main-master/Contract/Verfication.sol\":987:1008  Exporters[msg.sender] */\n      0x00\n        /* \"Documents/BlockChain-Based-Documents-Verfication-System-With-IPFS-main-master/Contract/Verfication.sol\":997:1007  msg.sender */\n      caller\n        /* \"Documents/BlockChain-Based-Documents-Verfication-System-With-IPFS-main-master/Contract/Verfication.sol\":987:1008  Exporters[msg.sender] */\n      0xffffffffffffffffffffffffffffffffffffffff\n      and\n      0xffffffffffffffffffffffffffffffffffffffff\n      and\n      dup2\n      mstore\n      0x20\n      add\n      swap1\n      dup2\n      mstore\n      0x20\n      add\n      0x00\n      keccak256\n        /* \"Documents/BlockChain-Based-Documents-Verfication-System-With-IPFS-main-master/Contract/Verfication.sol\":987:1013  Exporters[msg.sender].info */\n      0x01\n      add\n        /* \"Documents/BlockChain-Based-Documents-Verfication-System-With-IPFS-main-master/Contract/Verfication.sol\":969:1016  abi.encodePacked((Exporters[msg.sender].info )) */\n      add(0x20, mload(0x40))\n      tag_99\n      swap2\n      swap1\n      tag_98\n      jump\t// in\n    tag_99:\n      mload(0x40)\n      0x20\n      dup2\n      dup4\n      sub\n      sub\n      dup2\n      mstore\n      swap1\n      0x40\n      mstore\n        /* \"Documents/BlockChain-Based-Documents-Verfication-System-With-IPFS-main-master/Contract/Verfication.sol\":959:1017  keccak256(abi.encodePacked((Exporters[msg.sender].info ))) */\n      dup1\n      mload\n      swap1\n      0x20\n      add\n      keccak256\n        /* \"Documents/BlockChain-Based-Documents-Verfication-System-With-IPFS-main-master/Contract/Verfication.sol\":959:1071  keccak256(abi.encodePacked((Exporters[msg.sender].info )))!= keccak256(abi.encodePacked((docHashes[_doc].info))) */\n      eq\n        /* \"Documents/BlockChain-Based-Documents-Verfication-System-With-IPFS-main-master/Contract/Verfication.sol\":955:1145  if (keccak256(abi.encodePacked((Exporters[msg.sender].info )))!= keccak256(abi.encodePacked((docHashes[_doc].info))))... */\n      tag_100\n      jumpi\n        /* \"Documents/BlockChain-Based-Documents-Verfication-System-With-IPFS-main-master/Contract/Verfication.sol\":1088:1145  revert(\"Caller is not  authorised to edit this document\") */\n      mload(0x40)\n      0x08c379a000000000000000000000000000000000000000000000000000000000\n      dup2\n      mstore\n      0x04\n      add\n      tag_101\n      swap1\n      tag_102\n      jump\t// in\n    tag_101:\n      mload(0x40)\n      dup1\n      swap2\n      sub\n      swap1\n      revert\n        /* \"Documents/BlockChain-Based-Documents-Verfication-System-With-IPFS-main-master/Contract/Verfication.sol\":955:1145  if (keccak256(abi.encodePacked((Exporters[msg.sender].info )))!= keccak256(abi.encodePacked((docHashes[_doc].info))))... */\n    tag_100:\n        /* \"Documents/BlockChain-Based-Documents-Verfication-System-With-IPFS-main-master/Contract/Verfication.sol\":1241:1242  0 */\n      0x00\n        /* \"Documents/BlockChain-Based-Documents-Verfication-System-With-IPFS-main-master/Contract/Verfication.sol\":1206:1215  Exporters */\n      0x02\n        /* \"Documents/BlockChain-Based-Documents-Verfication-System-With-IPFS-main-master/Contract/Verfication.sol\":1206:1227  Exporters[msg.sender] */\n      0x00\n        /* \"Documents/BlockChain-Based-Documents-Verfication-System-With-IPFS-main-master/Contract/Verfication.sol\":1216:1226  msg.sender */\n      caller\n        /* \"Documents/BlockChain-Based-Documents-Verfication-System-With-IPFS-main-master/Contract/Verfication.sol\":1206:1227  Exporters[msg.sender] */\n      0xffffffffffffffffffffffffffffffffffffffff\n      and\n      0xffffffffffffffffffffffffffffffffffffffff\n      and\n      dup2\n      mstore\n      0x20\n      add\n      swap1\n      dup2\n      mstore\n      0x20\n      add\n      0x00\n      keccak256\n        /* \"Documents/BlockChain-Based-Documents-Verfication-System-With-IPFS-main-master/Contract/Verfication.sol\":1206:1239  Exporters[msg.sender].blockNumber */\n      0x00\n      add\n      sload\n        /* \"Documents/BlockChain-Based-Documents-Verfication-System-With-IPFS-main-master/Contract/Verfication.sol\":1206:1242  Exporters[msg.sender].blockNumber!=0 */\n      sub\n        /* \"Documents/BlockChain-Based-Documents-Verfication-System-With-IPFS-main-master/Contract/Verfication.sol\":1198:1284  require(Exporters[msg.sender].blockNumber!=0,\"Caller not authorised to add documents\") */\n      tag_104\n      jumpi\n      mload(0x40)\n      0x08c379a000000000000000000000000000000000000000000000000000000000\n      dup2\n      mstore\n      0x04\n      add\n      tag_105\n      swap1\n      tag_106\n      jump\t// in\n    tag_105:\n      mload(0x40)\n      dup1\n      swap2\n      sub\n      swap1\n      revert\n    tag_104:\n        /* \"Documents/BlockChain-Based-Documents-Verfication-System-With-IPFS-main-master/Contract/Verfication.sol\":3153:3154  0 */\n      0x00\n        /* \"Documents/BlockChain-Based-Documents-Verfication-System-With-IPFS-main-master/Contract/Verfication.sol\":3126:3135  docHashes */\n      0x01\n        /* \"Documents/BlockChain-Based-Documents-Verfication-System-With-IPFS-main-master/Contract/Verfication.sol\":3126:3142  docHashes[_hash] */\n      0x00\n        /* \"Documents/BlockChain-Based-Documents-Verfication-System-With-IPFS-main-master/Contract/Verfication.sol\":3136:3141  _hash */\n      dup5\n        /* \"Documents/BlockChain-Based-Documents-Verfication-System-With-IPFS-main-master/Contract/Verfication.sol\":3126:3142  docHashes[_hash] */\n      dup2\n      mstore\n      0x20\n      add\n      swap1\n      dup2\n      mstore\n      0x20\n      add\n      0x00\n      keccak256\n        /* \"Documents/BlockChain-Based-Documents-Verfication-System-With-IPFS-main-master/Contract/Verfication.sol\":3126:3151  docHashes[_hash].minetime */\n      0x01\n      add\n      sload\n        /* \"Documents/BlockChain-Based-Documents-Verfication-System-With-IPFS-main-master/Contract/Verfication.sol\":3126:3154  docHashes[_hash].minetime!=0 */\n      sub\n        /* \"Documents/BlockChain-Based-Documents-Verfication-System-With-IPFS-main-master/Contract/Verfication.sol\":3119:3155  assert(docHashes[_hash].minetime!=0) */\n      tag_108\n      jumpi\n      tag_109\n      tag_72\n      jump\t// in\n    tag_109:\n    tag_108:\n        /* \"Documents/BlockChain-Based-Documents-Verfication-System-With-IPFS-main-master/Contract/Verfication.sol\":3190:3191  0 */\n      0x00\n        /* \"Documents/BlockChain-Based-Documents-Verfication-System-With-IPFS-main-master/Contract/Verfication.sol\":3161:3170  docHashes */\n      0x01\n        /* \"Documents/BlockChain-Based-Documents-Verfication-System-With-IPFS-main-master/Contract/Verfication.sol\":3161:3177  docHashes[_hash] */\n      0x00\n        /* \"Documents/BlockChain-Based-Documents-Verfication-System-With-IPFS-main-master/Contract/Verfication.sol\":3171:3176  _hash */\n      dup5\n        /* \"Documents/BlockChain-Based-Documents-Verfication-System-With-IPFS-main-master/Contract/Verfication.sol\":3161:3177  docHashes[_hash] */\n      dup2\n      mstore\n      0x20\n      add\n      swap1\n      dup2\n      mstore\n      0x20\n      add\n      0x00\n      keccak256\n        /* \"Documents/BlockChain-Based-Documents-Verfication-System-With-IPFS-main-master/Contract/Verfication.sol\":3161:3189  docHashes[_hash].blockNumber */\n      0x00\n      add\n        /* \"Documents/BlockChain-Based-Documents-Verfication-System-With-IPFS-main-master/Contract/Verfication.sol\":3161:3191  docHashes[_hash].blockNumber=0 */\n      dup2\n      swap1\n      sstore\n      pop\n        /* \"Documents/BlockChain-Based-Documents-Verfication-System-With-IPFS-main-master/Contract/Verfication.sol\":3223:3224  0 */\n      0x00\n        /* \"Documents/BlockChain-Based-Documents-Verfication-System-With-IPFS-main-master/Contract/Verfication.sol\":3197:3206  docHashes */\n      0x01\n        /* \"Documents/BlockChain-Based-Documents-Verfication-System-With-IPFS-main-master/Contract/Verfication.sol\":3197:3213  docHashes[_hash] */\n      0x00\n        /* \"Documents/BlockChain-Based-Documents-Verfication-System-With-IPFS-main-master/Contract/Verfication.sol\":3207:3212  _hash */\n      dup5\n        /* \"Documents/BlockChain-Based-Documents-Verfication-System-With-IPFS-main-master/Contract/Verfication.sol\":3197:3213  docHashes[_hash] */\n      dup2\n      mstore\n      0x20\n      add\n      swap1\n      dup2\n      mstore\n      0x20\n      add\n      0x00\n      keccak256\n        /* \"Documents/BlockChain-Based-Documents-Verfication-System-With-IPFS-main-master/Contract/Verfication.sol\":3197:3222  docHashes[_hash].minetime */\n      0x01\n      add\n        /* \"Documents/BlockChain-Based-Documents-Verfication-System-With-IPFS-main-master/Contract/Verfication.sol\":3197:3224  docHashes[_hash].minetime=0 */\n      dup2\n      swap1\n      sstore\n      pop\n        /* \"Documents/BlockChain-Based-Documents-Verfication-System-With-IPFS-main-master/Contract/Verfication.sol\":3237:3249  count_hashes */\n      0x00\n      0x02\n        /* \"Documents/BlockChain-Based-Documents-Verfication-System-With-IPFS-main-master/Contract/Verfication.sol\":3235:3249  --count_hashes */\n      dup2\n      dup2\n      swap1\n      sload\n      swap1\n      0x0100\n      exp\n      swap1\n      div\n      0xffff\n      and\n      tag_110\n      swap1\n      tag_76\n      jump\t// in\n    tag_110:\n      swap2\n      swap1\n      0x0100\n      exp\n      dup2\n      sload\n      dup2\n      0xffff\n      mul\n      not\n      and\n      swap1\n      dup4\n      0xffff\n      and\n      mul\n      or\n      swap1\n      sstore\n      pop\n        /* \"Documents/BlockChain-Based-Documents-Verfication-System-With-IPFS-main-master/Contract/Verfication.sol\":3020:3261  function deleteHash (bytes32 _hash) public... */\n      pop\n      pop\n      jump\t// out\n        /* \"Documents/BlockChain-Based-Documents-Verfication-System-With-IPFS-main-master/Contract/Verfication.sol\":140:172  uint16 public count_Exporters =0 */\n    tag_42:\n      0x00\n      dup1\n      sload\n      swap1\n      0x0100\n      exp\n      swap1\n      div\n      0xffff\n      and\n      dup2\n      jump\t// out\n        /* \"Documents/BlockChain-Based-Documents-Verfication-System-With-IPFS-main-master/Contract/Verfication.sol\":212:232  address public owner */\n    tag_45:\n      0x00\n      0x04\n      swap1\n      sload\n      swap1\n      0x0100\n      exp\n      swap1\n      div\n      0xffffffffffffffffffffffffffffffffffffffff\n      and\n      dup2\n      jump\t// out\n        /* \"Documents/BlockChain-Based-Documents-Verfication-System-With-IPFS-main-master/Contract/Verfication.sol\":2146:2262  function changeOwner(address _newOwner) public ... */\n    tag_50:\n        /* \"Documents/BlockChain-Based-Documents-Verfication-System-With-IPFS-main-master/Contract/Verfication.sol\":739:744  owner */\n      0x00\n      0x04\n      swap1\n      sload\n      swap1\n      0x0100\n      exp\n      swap1\n      div\n      0xffffffffffffffffffffffffffffffffffffffff\n      and\n        /* \"Documents/BlockChain-Based-Documents-Verfication-System-With-IPFS-main-master/Contract/Verfication.sol\":725:744  msg.sender != owner */\n      0xffffffffffffffffffffffffffffffffffffffff\n      and\n        /* \"Documents/BlockChain-Based-Documents-Verfication-System-With-IPFS-main-master/Contract/Verfication.sol\":725:735  msg.sender */\n      caller\n        /* \"Documents/BlockChain-Based-Documents-Verfication-System-With-IPFS-main-master/Contract/Verfication.sol\":725:744  msg.sender != owner */\n      0xffffffffffffffffffffffffffffffffffffffff\n      and\n      eq\n        /* \"Documents/BlockChain-Based-Documents-Verfication-System-With-IPFS-main-master/Contract/Verfication.sol\":721:796  if (msg.sender != owner) {... */\n      tag_112\n      jumpi\n        /* \"Documents/BlockChain-Based-Documents-Verfication-System-With-IPFS-main-master/Contract/Verfication.sol\":760:793  revert(\"Caller is not the owner\") */\n      mload(0x40)\n      0x08c379a000000000000000000000000000000000000000000000000000000000\n      dup2\n      mstore\n      0x04\n      add\n      tag_113\n      swap1\n      tag_68\n      jump\t// in\n    tag_113:\n      mload(0x40)\n      dup1\n      swap2\n      sub\n      swap1\n      revert\n        /* \"Documents/BlockChain-Based-Documents-Verfication-System-With-IPFS-main-master/Contract/Verfication.sol\":721:796  if (msg.sender != owner) {... */\n    tag_112:\n        /* \"Documents/BlockChain-Based-Documents-Verfication-System-With-IPFS-main-master/Contract/Verfication.sol\":2226:2235  _newOwner */\n      dup1\n        /* \"Documents/BlockChain-Based-Documents-Verfication-System-With-IPFS-main-master/Contract/Verfication.sol\":881:882  0 */\n      0x00\n        /* \"Documents/BlockChain-Based-Documents-Verfication-System-With-IPFS-main-master/Contract/Verfication.sol\":864:883  _addr != address(0) */\n      0xffffffffffffffffffffffffffffffffffffffff\n      and\n        /* \"Documents/BlockChain-Based-Documents-Verfication-System-With-IPFS-main-master/Contract/Verfication.sol\":864:869  _addr */\n      dup2\n        /* \"Documents/BlockChain-Based-Documents-Verfication-System-With-IPFS-main-master/Contract/Verfication.sol\":864:883  _addr != address(0) */\n      0xffffffffffffffffffffffffffffffffffffffff\n      and\n      sub\n        /* \"Documents/BlockChain-Based-Documents-Verfication-System-With-IPFS-main-master/Contract/Verfication.sol\":857:884  assert(_addr != address(0)) */\n      tag_115\n      jumpi\n      tag_116\n      tag_72\n      jump\t// in\n    tag_116:\n    tag_115:\n        /* \"Documents/BlockChain-Based-Documents-Verfication-System-With-IPFS-main-master/Contract/Verfication.sol\":2250:2259  _newOwner */\n      dup2\n        /* \"Documents/BlockChain-Based-Documents-Verfication-System-With-IPFS-main-master/Contract/Verfication.sol\":2242:2247  owner */\n      0x00\n      0x04\n        /* \"Documents/BlockChain-Based-Documents-Verfication-System-With-IPFS-main-master/Contract/Verfication.sol\":2242:2259  owner = _newOwner */\n      0x0100\n      exp\n      dup2\n      sload\n      dup2\n      0xffffffffffffffffffffffffffffffffffffffff\n      mul\n      not\n      and\n      swap1\n      dup4\n      0xffffffffffffffffffffffffffffffffffffffff\n      and\n      mul\n      or\n      swap1\n      sstore\n      pop\n        /* \"Documents/BlockChain-Based-Documents-Verfication-System-With-IPFS-main-master/Contract/Verfication.sol\":796:797  _ */\n      pop\n        /* \"Documents/BlockChain-Based-Documents-Verfication-System-With-IPFS-main-master/Contract/Verfication.sol\":2146:2262  function changeOwner(address _newOwner) public ... */\n      pop\n      jump\t// out\n        /* \"Documents/BlockChain-Based-Documents-Verfication-System-With-IPFS-main-master/Contract/Verfication.sol\":2335:2753  function addDocHash (bytes32  hash,string calldata _ipfs) public ... */\n    tag_54:\n        /* \"Documents/BlockChain-Based-Documents-Verfication-System-With-IPFS-main-master/Contract/Verfication.sol\":1241:1242  0 */\n      0x00\n        /* \"Documents/BlockChain-Based-Documents-Verfication-System-With-IPFS-main-master/Contract/Verfication.sol\":1206:1215  Exporters */\n      0x02\n        /* \"Documents/BlockChain-Based-Documents-Verfication-System-With-IPFS-main-master/Contract/Verfication.sol\":1206:1227  Exporters[msg.sender] */\n      0x00\n        /* \"Documents/BlockChain-Based-Documents-Verfication-System-With-IPFS-main-master/Contract/Verfication.sol\":1216:1226  msg.sender */\n      caller\n        /* \"Documents/BlockChain-Based-Documents-Verfication-System-With-IPFS-main-master/Contract/Verfication.sol\":1206:1227  Exporters[msg.sender] */\n      0xffffffffffffffffffffffffffffffffffffffff\n      and\n      0xffffffffffffffffffffffffffffffffffffffff\n      and\n      dup2\n      mstore\n      0x20\n      add\n      swap1\n      dup2\n      mstore\n      0x20\n      add\n      0x00\n      keccak256\n        /* \"Documents/BlockChain-Based-Documents-Verfication-System-With-IPFS-main-master/Contract/Verfication.sol\":1206:1239  Exporters[msg.sender].blockNumber */\n      0x00\n      add\n      sload\n        /* \"Documents/BlockChain-Based-Documents-Verfication-System-With-IPFS-main-master/Contract/Verfication.sol\":1206:1242  Exporters[msg.sender].blockNumber!=0 */\n      sub\n        /* \"Documents/BlockChain-Based-Documents-Verfication-System-With-IPFS-main-master/Contract/Verfication.sol\":1198:1284  require(Exporters[msg.sender].blockNumber!=0,\"Caller not authorised to add documents\") */\n      tag_119\n      jumpi\n      mload(0x40)\n      0x08c379a000000000000000000000000000000000000000000000000000000000\n      dup2\n      mstore\n      0x04\n      add\n      tag_120\n      swap1\n      tag_106\n      jump\t// in\n    tag_120:\n      mload(0x40)\n      dup1\n      swap2\n      sub\n      swap1\n      revert\n    tag_119:\n        /* \"Documents/BlockChain-Based-Documents-Verfication-System-With-IPFS-main-master/Contract/Verfication.sol\":2474:2475  0 */\n      0x00\n        /* \"Documents/BlockChain-Based-Documents-Verfication-System-With-IPFS-main-master/Contract/Verfication.sol\":2445:2454  docHashes */\n      0x01\n        /* \"Documents/BlockChain-Based-Documents-Verfication-System-With-IPFS-main-master/Contract/Verfication.sol\":2445:2460  docHashes[hash] */\n      0x00\n        /* \"Documents/BlockChain-Based-Documents-Verfication-System-With-IPFS-main-master/Contract/Verfication.sol\":2455:2459  hash */\n      dup6\n        /* \"Documents/BlockChain-Based-Documents-Verfication-System-With-IPFS-main-master/Contract/Verfication.sol\":2445:2460  docHashes[hash] */\n      dup2\n      mstore\n      0x20\n      add\n      swap1\n      dup2\n      mstore\n      0x20\n      add\n      0x00\n      keccak256\n        /* \"Documents/BlockChain-Based-Documents-Verfication-System-With-IPFS-main-master/Contract/Verfication.sol\":2445:2472  docHashes[hash].blockNumber */\n      0x00\n      add\n      sload\n        /* \"Documents/BlockChain-Based-Documents-Verfication-System-With-IPFS-main-master/Contract/Verfication.sol\":2445:2475  docHashes[hash].blockNumber==0 */\n      eq\n        /* \"Documents/BlockChain-Based-Documents-Verfication-System-With-IPFS-main-master/Contract/Verfication.sol\":2445:2506  docHashes[hash].blockNumber==0 && docHashes[hash].minetime==0 */\n      dup1\n      iszero\n      tag_122\n      jumpi\n      pop\n        /* \"Documents/BlockChain-Based-Documents-Verfication-System-With-IPFS-main-master/Contract/Verfication.sol\":2505:2506  0 */\n      0x00\n        /* \"Documents/BlockChain-Based-Documents-Verfication-System-With-IPFS-main-master/Contract/Verfication.sol\":2479:2488  docHashes */\n      0x01\n        /* \"Documents/BlockChain-Based-Documents-Verfication-System-With-IPFS-main-master/Contract/Verfication.sol\":2479:2494  docHashes[hash] */\n      0x00\n        /* \"Documents/BlockChain-Based-Documents-Verfication-System-With-IPFS-main-master/Contract/Verfication.sol\":2489:2493  hash */\n      dup6\n        /* \"Documents/BlockChain-Based-Documents-Verfication-System-With-IPFS-main-master/Contract/Verfication.sol\":2479:2494  docHashes[hash] */\n      dup2\n      mstore\n      0x20\n      add\n      swap1\n      dup2\n      mstore\n      0x20\n      add\n      0x00\n      keccak256\n        /* \"Documents/BlockChain-Based-Documents-Verfication-System-With-IPFS-main-master/Contract/Verfication.sol\":2479:2503  docHashes[hash].minetime */\n      0x01\n      add\n      sload\n        /* \"Documents/BlockChain-Based-Documents-Verfication-System-With-IPFS-main-master/Contract/Verfication.sol\":2479:2506  docHashes[hash].minetime==0 */\n      eq\n        /* \"Documents/BlockChain-Based-Documents-Verfication-System-With-IPFS-main-master/Contract/Verfication.sol\":2445:2506  docHashes[hash].blockNumber==0 && docHashes[hash].minetime==0 */\n    tag_122:\n        /* \"Documents/BlockChain-Based-Documents-Verfication-System-With-IPFS-main-master/Contract/Verfication.sol\":2438:2507  assert(docHashes[hash].blockNumber==0 && docHashes[hash].minetime==0) */\n      tag_123\n      jumpi\n      tag_124\n      tag_72\n      jump\t// in\n    tag_124:\n    tag_123:\n        /* \"Documents/BlockChain-Based-Documents-Verfication-System-With-IPFS-main-master/Contract/Verfication.sol\":2521:2545  Record memory  newRecord */\n      0x00\n        /* \"Documents/BlockChain-Based-Documents-Verfication-System-With-IPFS-main-master/Contract/Verfication.sol\":2561:2630  Record(block.number,block.timestamp,Exporters[msg.sender].info,_ipfs) */\n      mload(0x40)\n      dup1\n      0x80\n      add\n      0x40\n      mstore\n      dup1\n        /* \"Documents/BlockChain-Based-Documents-Verfication-System-With-IPFS-main-master/Contract/Verfication.sol\":2568:2580  block.number */\n      number\n        /* \"Documents/BlockChain-Based-Documents-Verfication-System-With-IPFS-main-master/Contract/Verfication.sol\":2561:2630  Record(block.number,block.timestamp,Exporters[msg.sender].info,_ipfs) */\n      dup2\n      mstore\n      0x20\n      add\n        /* \"Documents/BlockChain-Based-Documents-Verfication-System-With-IPFS-main-master/Contract/Verfication.sol\":2581:2596  block.timestamp */\n      timestamp\n        /* \"Documents/BlockChain-Based-Documents-Verfication-System-With-IPFS-main-master/Contract/Verfication.sol\":2561:2630  Record(block.number,block.timestamp,Exporters[msg.sender].info,_ipfs) */\n      dup2\n      mstore\n      0x20\n      add\n        /* \"Documents/BlockChain-Based-Documents-Verfication-System-With-IPFS-main-master/Contract/Verfication.sol\":2597:2606  Exporters */\n      0x02\n        /* \"Documents/BlockChain-Based-Documents-Verfication-System-With-IPFS-main-master/Contract/Verfication.sol\":2597:2618  Exporters[msg.sender] */\n      0x00\n        /* \"Documents/BlockChain-Based-Documents-Verfication-System-With-IPFS-main-master/Contract/Verfication.sol\":2607:2617  msg.sender */\n      caller\n        /* \"Documents/BlockChain-Based-Documents-Verfication-System-With-IPFS-main-master/Contract/Verfication.sol\":2597:2618  Exporters[msg.sender] */\n      0xffffffffffffffffffffffffffffffffffffffff\n      and\n      0xffffffffffffffffffffffffffffffffffffffff\n      and\n      dup2\n      mstore\n      0x20\n      add\n      swap1\n      dup2\n      mstore\n      0x20\n      add\n      0x00\n      keccak256\n        /* \"Documents/BlockChain-Based-Documents-Verfication-System-With-IPFS-main-master/Contract/Verfication.sol\":2597:2623  Exporters[msg.sender].info */\n      0x01\n      add\n        /* \"Documents/BlockChain-Based-Documents-Verfication-System-With-IPFS-main-master/Contract/Verfication.sol\":2561:2630  Record(block.number,block.timestamp,Exporters[msg.sender].info,_ipfs) */\n      dup1\n      sload\n      tag_125\n      swap1\n      tag_60\n      jump\t// in\n    tag_125:\n      dup1\n      0x1f\n      add\n      0x20\n      dup1\n      swap2\n      div\n      mul\n      0x20\n      add\n      mload(0x40)\n      swap1\n      dup2\n      add\n      0x40\n      mstore\n      dup1\n      swap3\n      swap2\n      swap1\n      dup2\n      dup2\n      mstore\n      0x20\n      add\n      dup3\n      dup1\n      sload\n      tag_126\n      swap1\n      tag_60\n      jump\t// in\n    tag_126:\n      dup1\n      iszero\n      tag_127\n      jumpi\n      dup1\n      0x1f\n      lt\n      tag_128\n      jumpi\n      0x0100\n      dup1\n      dup4\n      sload\n      div\n      mul\n      dup4\n      mstore\n      swap2\n      0x20\n      add\n      swap2\n      jump(tag_127)\n    tag_128:\n      dup3\n      add\n      swap2\n      swap1\n      0x00\n      mstore\n      keccak256(0x00, 0x20)\n      swap1\n    tag_129:\n      dup2\n      sload\n      dup2\n      mstore\n      swap1\n      0x01\n      add\n      swap1\n      0x20\n      add\n      dup1\n      dup4\n      gt\n      tag_129\n      jumpi\n      dup3\n      swap1\n      sub\n      0x1f\n      and\n      dup3\n      add\n      swap2\n    tag_127:\n      pop\n      pop\n      pop\n      pop\n      pop\n      dup2\n      mstore\n      0x20\n      add\n        /* \"Documents/BlockChain-Based-Documents-Verfication-System-With-IPFS-main-master/Contract/Verfication.sol\":2624:2629  _ipfs */\n      dup5\n      dup5\n        /* \"Documents/BlockChain-Based-Documents-Verfication-System-With-IPFS-main-master/Contract/Verfication.sol\":2561:2630  Record(block.number,block.timestamp,Exporters[msg.sender].info,_ipfs) */\n      dup1\n      dup1\n      0x1f\n      add\n      0x20\n      dup1\n      swap2\n      div\n      mul\n      0x20\n      add\n      mload(0x40)\n      swap1\n      dup2\n      add\n      0x40\n      mstore\n      dup1\n      swap4\n      swap3\n      swap2\n      swap1\n      dup2\n      dup2\n      mstore\n      0x20\n      add\n      dup4\n      dup4\n      dup1\n      dup3\n      dup5\n      calldatacopy\n      0x00\n      dup2\n      dup5\n      add\n      mstore\n      not(0x1f)\n      0x1f\n      dup3\n      add\n      and\n      swap1\n      pop\n      dup1\n      dup4\n      add\n      swap3\n      pop\n      pop\n      pop\n      pop\n      pop\n      pop\n      pop\n      dup2\n      mstore\n      pop\n        /* \"Documents/BlockChain-Based-Documents-Verfication-System-With-IPFS-main-master/Contract/Verfication.sol\":2521:2630  Record memory  newRecord = ... */\n      swap1\n      pop\n        /* \"Documents/BlockChain-Based-Documents-Verfication-System-With-IPFS-main-master/Contract/Verfication.sol\":2662:2671  newRecord */\n      dup1\n        /* \"Documents/BlockChain-Based-Documents-Verfication-System-With-IPFS-main-master/Contract/Verfication.sol\":2644:2653  docHashes */\n      0x01\n        /* \"Documents/BlockChain-Based-Documents-Verfication-System-With-IPFS-main-master/Contract/Verfication.sol\":2644:2659  docHashes[hash] */\n      0x00\n        /* \"Documents/BlockChain-Based-Documents-Verfication-System-With-IPFS-main-master/Contract/Verfication.sol\":2654:2658  hash */\n      dup7\n        /* \"Documents/BlockChain-Based-Documents-Verfication-System-With-IPFS-main-master/Contract/Verfication.sol\":2644:2659  docHashes[hash] */\n      dup2\n      mstore\n      0x20\n      add\n      swap1\n      dup2\n      mstore\n      0x20\n      add\n      0x00\n      keccak256\n        /* \"Documents/BlockChain-Based-Documents-Verfication-System-With-IPFS-main-master/Contract/Verfication.sol\":2644:2671  docHashes[hash] = newRecord */\n      0x00\n      dup3\n      add\n      mload\n      dup2\n      0x00\n      add\n      sstore\n      0x20\n      dup3\n      add\n      mload\n      dup2\n      0x01\n      add\n      sstore\n      0x40\n      dup3\n      add\n      mload\n      dup2\n      0x02\n      add\n      swap1\n      dup2\n      tag_130\n      swap2\n      swap1\n      tag_74\n      jump\t// in\n    tag_130:\n      pop\n      0x60\n      dup3\n      add\n      mload\n      dup2\n      0x03\n      add\n      swap1\n      dup2\n      tag_131\n      swap2\n      swap1\n      tag_74\n      jump\t// in\n    tag_131:\n      pop\n      swap1\n      pop\n      pop\n        /* \"Documents/BlockChain-Based-Documents-Verfication-System-With-IPFS-main-master/Contract/Verfication.sol\":2688:2700  count_hashes */\n      0x00\n      0x02\n        /* \"Documents/BlockChain-Based-Documents-Verfication-System-With-IPFS-main-master/Contract/Verfication.sol\":2686:2700  ++count_hashes */\n      dup2\n      dup2\n      swap1\n      sload\n      swap1\n      0x0100\n      exp\n      swap1\n      div\n      0xffff\n      and\n      tag_132\n      swap1\n      tag_133\n      jump\t// in\n    tag_132:\n      swap2\n      swap1\n      0x0100\n      exp\n      dup2\n      sload\n      dup2\n      0xffff\n      mul\n      not\n      and\n      swap1\n      dup4\n      0xffff\n      and\n      mul\n      or\n      swap1\n      sstore\n      pop\n        /* \"Documents/BlockChain-Based-Documents-Verfication-System-With-IPFS-main-master/Contract/Verfication.sol\":2727:2737  msg.sender */\n      caller\n        /* \"Documents/BlockChain-Based-Documents-Verfication-System-With-IPFS-main-master/Contract/Verfication.sol\":2719:2744  addHash(msg.sender,_ipfs) */\n      0xffffffffffffffffffffffffffffffffffffffff\n      and\n      0x331f916dac8170a5e3a8a5c82c9de7950bb6cadfb098253c080cb72851b26470\n        /* \"Documents/BlockChain-Based-Documents-Verfication-System-With-IPFS-main-master/Contract/Verfication.sol\":2738:2743  _ipfs */\n      dup5\n      dup5\n        /* \"Documents/BlockChain-Based-Documents-Verfication-System-With-IPFS-main-master/Contract/Verfication.sol\":2719:2744  addHash(msg.sender,_ipfs) */\n      mload(0x40)\n      tag_134\n      swap3\n      swap2\n      swap1\n      tag_135\n      jump\t// in\n    tag_134:\n      mload(0x40)\n      dup1\n      swap2\n      sub\n      swap1\n      log2\n        /* \"Documents/BlockChain-Based-Documents-Verfication-System-With-IPFS-main-master/Contract/Verfication.sol\":2424:2753  {... */\n      pop\n        /* \"Documents/BlockChain-Based-Documents-Verfication-System-With-IPFS-main-master/Contract/Verfication.sol\":2335:2753  function addDocHash (bytes32  hash,string calldata _ipfs) public ... */\n      pop\n      pop\n      pop\n      jump\t// out\n        /* \"Documents/BlockChain-Based-Documents-Verfication-System-With-IPFS-main-master/Contract/Verfication.sol\":1409:1693  function add_Exporter(address _add,string calldata _info) external... */\n    tag_57:\n        /* \"Documents/BlockChain-Based-Documents-Verfication-System-With-IPFS-main-master/Contract/Verfication.sol\":739:744  owner */\n      0x00\n      0x04\n      swap1\n      sload\n      swap1\n      0x0100\n      exp\n      swap1\n      div\n      0xffffffffffffffffffffffffffffffffffffffff\n      and\n        /* \"Documents/BlockChain-Based-Documents-Verfication-System-With-IPFS-main-master/Contract/Verfication.sol\":725:744  msg.sender != owner */\n      0xffffffffffffffffffffffffffffffffffffffff\n      and\n        /* \"Documents/BlockChain-Based-Documents-Verfication-System-With-IPFS-main-master/Contract/Verfication.sol\":725:735  msg.sender */\n      caller\n        /* \"Documents/BlockChain-Based-Documents-Verfication-System-With-IPFS-main-master/Contract/Verfication.sol\":725:744  msg.sender != owner */\n      0xffffffffffffffffffffffffffffffffffffffff\n      and\n      eq\n        /* \"Documents/BlockChain-Based-Documents-Verfication-System-With-IPFS-main-master/Contract/Verfication.sol\":721:796  if (msg.sender != owner) {... */\n      tag_137\n      jumpi\n        /* \"Documents/BlockChain-Based-Documents-Verfication-System-With-IPFS-main-master/Contract/Verfication.sol\":760:793  revert(\"Caller is not the owner\") */\n      mload(0x40)\n      0x08c379a000000000000000000000000000000000000000000000000000000000\n      dup2\n      mstore\n      0x04\n      add\n      tag_138\n      swap1\n      tag_68\n      jump\t// in\n    tag_138:\n      mload(0x40)\n      dup1\n      swap2\n      sub\n      swap1\n      revert\n        /* \"Documents/BlockChain-Based-Documents-Verfication-System-With-IPFS-main-master/Contract/Verfication.sol\":721:796  if (msg.sender != owner) {... */\n    tag_137:\n        /* \"Documents/BlockChain-Based-Documents-Verfication-System-With-IPFS-main-master/Contract/Verfication.sol\":1538:1539  0 */\n      0x00\n        /* \"Documents/BlockChain-Based-Documents-Verfication-System-With-IPFS-main-master/Contract/Verfication.sol\":1509:1518  Exporters */\n      0x02\n        /* \"Documents/BlockChain-Based-Documents-Verfication-System-With-IPFS-main-master/Contract/Verfication.sol\":1509:1524  Exporters[_add] */\n      0x00\n        /* \"Documents/BlockChain-Based-Documents-Verfication-System-With-IPFS-main-master/Contract/Verfication.sol\":1519:1523  _add */\n      dup6\n        /* \"Documents/BlockChain-Based-Documents-Verfication-System-With-IPFS-main-master/Contract/Verfication.sol\":1509:1524  Exporters[_add] */\n      0xffffffffffffffffffffffffffffffffffffffff\n      and\n      0xffffffffffffffffffffffffffffffffffffffff\n      and\n      dup2\n      mstore\n      0x20\n      add\n      swap1\n      dup2\n      mstore\n      0x20\n      add\n      0x00\n      keccak256\n        /* \"Documents/BlockChain-Based-Documents-Verfication-System-With-IPFS-main-master/Contract/Verfication.sol\":1509:1536  Exporters[_add].blockNumber */\n      0x00\n      add\n      sload\n        /* \"Documents/BlockChain-Based-Documents-Verfication-System-With-IPFS-main-master/Contract/Verfication.sol\":1509:1539  Exporters[_add].blockNumber==0 */\n      eq\n        /* \"Documents/BlockChain-Based-Documents-Verfication-System-With-IPFS-main-master/Contract/Verfication.sol\":1502:1540  assert(Exporters[_add].blockNumber==0) */\n      tag_140\n      jumpi\n      tag_141\n      tag_72\n      jump\t// in\n    tag_141:\n    tag_140:\n        /* \"Documents/BlockChain-Based-Documents-Verfication-System-With-IPFS-main-master/Contract/Verfication.sol\":1592:1604  block.number */\n      number\n        /* \"Documents/BlockChain-Based-Documents-Verfication-System-With-IPFS-main-master/Contract/Verfication.sol\":1562:1571  Exporters */\n      0x02\n        /* \"Documents/BlockChain-Based-Documents-Verfication-System-With-IPFS-main-master/Contract/Verfication.sol\":1562:1577  Exporters[_add] */\n      0x00\n        /* \"Documents/BlockChain-Based-Documents-Verfication-System-With-IPFS-main-master/Contract/Verfication.sol\":1572:1576  _add */\n      dup6\n        /* \"Documents/BlockChain-Based-Documents-Verfication-System-With-IPFS-main-master/Contract/Verfication.sol\":1562:1577  Exporters[_add] */\n      0xffffffffffffffffffffffffffffffffffffffff\n      and\n      0xffffffffffffffffffffffffffffffffffffffff\n      and\n      dup2\n      mstore\n      0x20\n      add\n      swap1\n      dup2\n      mstore\n      0x20\n      add\n      0x00\n      keccak256\n        /* \"Documents/BlockChain-Based-Documents-Verfication-System-With-IPFS-main-master/Contract/Verfication.sol\":1562:1589  Exporters[_add].blockNumber */\n      0x00\n      add\n        /* \"Documents/BlockChain-Based-Documents-Verfication-System-With-IPFS-main-master/Contract/Verfication.sol\":1562:1604  Exporters[_add].blockNumber = block.number */\n      dup2\n      swap1\n      sstore\n      pop\n        /* \"Documents/BlockChain-Based-Documents-Verfication-System-With-IPFS-main-master/Contract/Verfication.sol\":1639:1644  _info */\n      dup2\n      dup2\n        /* \"Documents/BlockChain-Based-Documents-Verfication-System-With-IPFS-main-master/Contract/Verfication.sol\":1616:1625  Exporters */\n      0x02\n        /* \"Documents/BlockChain-Based-Documents-Verfication-System-With-IPFS-main-master/Contract/Verfication.sol\":1616:1631  Exporters[_add] */\n      0x00\n        /* \"Documents/BlockChain-Based-Documents-Verfication-System-With-IPFS-main-master/Contract/Verfication.sol\":1626:1630  _add */\n      dup7\n        /* \"Documents/BlockChain-Based-Documents-Verfication-System-With-IPFS-main-master/Contract/Verfication.sol\":1616:1631  Exporters[_add] */\n      0xffffffffffffffffffffffffffffffffffffffff\n      and\n      0xffffffffffffffffffffffffffffffffffffffff\n      and\n      dup2\n      mstore\n      0x20\n      add\n      swap1\n      dup2\n      mstore\n      0x20\n      add\n      0x00\n      keccak256\n        /* \"Documents/BlockChain-Based-Documents-Verfication-System-With-IPFS-main-master/Contract/Verfication.sol\":1616:1636  Exporters[_add].info */\n      0x01\n      add\n        /* \"Documents/BlockChain-Based-Documents-Verfication-System-With-IPFS-main-master/Contract/Verfication.sol\":1616:1644  Exporters[_add].info = _info */\n      swap2\n      dup3\n      tag_142\n      swap3\n      swap2\n      swap1\n      tag_95\n      jump\t// in\n    tag_142:\n      pop\n        /* \"Documents/BlockChain-Based-Documents-Verfication-System-With-IPFS-main-master/Contract/Verfication.sol\":1658:1673  count_Exporters */\n      0x00\n      dup1\n        /* \"Documents/BlockChain-Based-Documents-Verfication-System-With-IPFS-main-master/Contract/Verfication.sol\":1656:1673  ++count_Exporters */\n      dup2\n      dup2\n      swap1\n      sload\n      swap1\n      0x0100\n      exp\n      swap1\n      div\n      0xffff\n      and\n      tag_143\n      swap1\n      tag_133\n      jump\t// in\n    tag_143:\n      swap2\n      swap1\n      0x0100\n      exp\n      dup2\n      sload\n      dup2\n      0xffff\n      mul\n      not\n      and\n      swap1\n      dup4\n      0xffff\n      and\n      mul\n      or\n      swap1\n      sstore\n      pop\n        /* \"Documents/BlockChain-Based-Documents-Verfication-System-With-IPFS-main-master/Contract/Verfication.sol\":1409:1693  function add_Exporter(address _add,string calldata _info) external... */\n      pop\n      pop\n      pop\n      jump\t// out\n        /* \"#utility.yul\":88:205   */\n    tag_145:\n        /* \"#utility.yul\":197:198   */\n      0x00\n        /* \"#utility.yul\":194:195   */\n      dup1\n        /* \"#utility.yul\":187:199   */\n      revert\n        /* \"#utility.yul\":211:328   */\n    tag_146:\n        /* \"#utility.yul\":320:321   */\n      0x00\n        /* \"#utility.yul\":317:318   */\n      dup1\n        /* \"#utility.yul\":310:322   */\n      revert\n        /* \"#utility.yul\":334:460   */\n    tag_147:\n        /* \"#utility.yul\":371:378   */\n      0x00\n        /* \"#utility.yul\":411:453   */\n      0xffffffffffffffffffffffffffffffffffffffff\n        /* \"#utility.yul\":404:409   */\n      dup3\n        /* \"#utility.yul\":400:454   */\n      and\n        /* \"#utility.yul\":389:454   */\n      swap1\n      pop\n        /* \"#utility.yul\":334:460   */\n      swap2\n      swap1\n      pop\n      jump\t// out\n        /* \"#utility.yul\":466:562   */\n    tag_148:\n        /* \"#utility.yul\":503:510   */\n      0x00\n        /* \"#utility.yul\":532:556   */\n      tag_203\n        /* \"#utility.yul\":550:555   */\n      dup3\n        /* \"#utility.yul\":532:556   */\n      tag_147\n      jump\t// in\n    tag_203:\n        /* \"#utility.yul\":521:556   */\n      swap1\n      pop\n        /* \"#utility.yul\":466:562   */\n      swap2\n      swap1\n      pop\n      jump\t// out\n        /* \"#utility.yul\":568:690   */\n    tag_149:\n        /* \"#utility.yul\":641:665   */\n      tag_205\n        /* \"#utility.yul\":659:664   */\n      dup2\n        /* \"#utility.yul\":641:665   */\n      tag_148\n      jump\t// in\n    tag_205:\n        /* \"#utility.yul\":634:639   */\n      dup2\n        /* \"#utility.yul\":631:666   */\n      eq\n        /* \"#utility.yul\":621:684   */\n      tag_206\n      jumpi\n        /* \"#utility.yul\":680:681   */\n      0x00\n        /* \"#utility.yul\":677:678   */\n      dup1\n        /* \"#utility.yul\":670:682   */\n      revert\n        /* \"#utility.yul\":621:684   */\n    tag_206:\n        /* \"#utility.yul\":568:690   */\n      pop\n      jump\t// out\n        /* \"#utility.yul\":696:835   */\n    tag_150:\n        /* \"#utility.yul\":742:747   */\n      0x00\n        /* \"#utility.yul\":780:786   */\n      dup2\n        /* \"#utility.yul\":767:787   */\n      calldataload\n        /* \"#utility.yul\":758:787   */\n      swap1\n      pop\n        /* \"#utility.yul\":796:829   */\n      tag_208\n        /* \"#utility.yul\":823:828   */\n      dup2\n        /* \"#utility.yul\":796:829   */\n      tag_149\n      jump\t// in\n    tag_208:\n        /* \"#utility.yul\":696:835   */\n      swap3\n      swap2\n      pop\n      pop\n      jump\t// out\n        /* \"#utility.yul\":841:1170   */\n    tag_17:\n        /* \"#utility.yul\":900:906   */\n      0x00\n        /* \"#utility.yul\":949:951   */\n      0x20\n        /* \"#utility.yul\":937:946   */\n      dup3\n        /* \"#utility.yul\":928:935   */\n      dup5\n        /* \"#utility.yul\":924:947   */\n      sub\n        /* \"#utility.yul\":920:952   */\n      slt\n        /* \"#utility.yul\":917:1036   */\n      iszero\n      tag_210\n      jumpi\n        /* \"#utility.yul\":955:1034   */\n      tag_211\n      tag_145\n      jump\t// in\n    tag_211:\n        /* \"#utility.yul\":917:1036   */\n    tag_210:\n        /* \"#utility.yul\":1075:1076   */\n      0x00\n        /* \"#utility.yul\":1100:1153   */\n      tag_212\n        /* \"#utility.yul\":1145:1152   */\n      dup5\n        /* \"#utility.yul\":1136:1142   */\n      dup3\n        /* \"#utility.yul\":1125:1134   */\n      dup6\n        /* \"#utility.yul\":1121:1143   */\n      add\n        /* \"#utility.yul\":1100:1153   */\n      tag_150\n      jump\t// in\n    tag_212:\n        /* \"#utility.yul\":1090:1153   */\n      swap2\n      pop\n        /* \"#utility.yul\":1046:1163   */\n      pop\n        /* \"#utility.yul\":841:1170   */\n      swap3\n      swap2\n      pop\n      pop\n      jump\t// out\n        /* \"#utility.yul\":1176:1275   */\n    tag_151:\n        /* \"#utility.yul\":1228:1234   */\n      0x00\n        /* \"#utility.yul\":1262:1267   */\n      dup2\n        /* \"#utility.yul\":1256:1268   */\n      mload\n        /* \"#utility.yul\":1246:1268   */\n      swap1\n      pop\n        /* \"#utility.yul\":1176:1275   */\n      swap2\n      swap1\n      pop\n      jump\t// out\n        /* \"#utility.yul\":1281:1450   */\n    tag_152:\n        /* \"#utility.yul\":1365:1376   */\n      0x00\n        /* \"#utility.yul\":1399:1405   */\n      dup3\n        /* \"#utility.yul\":1394:1397   */\n      dup3\n        /* \"#utility.yul\":1387:1406   */\n      mstore\n        /* \"#utility.yul\":1439:1443   */\n      0x20\n        /* \"#utility.yul\":1434:1437   */\n      dup3\n        /* \"#utility.yul\":1430:1444   */\n      add\n        /* \"#utility.yul\":1415:1444   */\n      swap1\n      pop\n        /* \"#utility.yul\":1281:1450   */\n      swap3\n      swap2\n      pop\n      pop\n      jump\t// out\n        /* \"#utility.yul\":1456:1702   */\n    tag_153:\n        /* \"#utility.yul\":1537:1538   */\n      0x00\n        /* \"#utility.yul\":1547:1660   */\n    tag_216:\n        /* \"#utility.yul\":1561:1567   */\n      dup4\n        /* \"#utility.yul\":1558:1559   */\n      dup2\n        /* \"#utility.yul\":1555:1568   */\n      lt\n        /* \"#utility.yul\":1547:1660   */\n      iszero\n      tag_218\n      jumpi\n        /* \"#utility.yul\":1646:1647   */\n      dup1\n        /* \"#utility.yul\":1641:1644   */\n      dup3\n        /* \"#utility.yul\":1637:1648   */\n      add\n        /* \"#utility.yul\":1631:1649   */\n      mload\n        /* \"#utility.yul\":1627:1628   */\n      dup2\n        /* \"#utility.yul\":1622:1625   */\n      dup5\n        /* \"#utility.yul\":1618:1629   */\n      add\n        /* \"#utility.yul\":1611:1650   */\n      mstore\n        /* \"#utility.yul\":1583:1585   */\n      0x20\n        /* \"#utility.yul\":1580:1581   */\n      dup2\n        /* \"#utility.yul\":1576:1586   */\n      add\n        /* \"#utility.yul\":1571:1586   */\n      swap1\n      pop\n        /* \"#utility.yul\":1547:1660   */\n      jump(tag_216)\n    tag_218:\n        /* \"#utility.yul\":1694:1695   */\n      0x00\n        /* \"#utility.yul\":1685:1691   */\n      dup5\n        /* \"#utility.yul\":1680:1683   */\n      dup5\n        /* \"#utility.yul\":1676:1692   */\n      add\n        /* \"#utility.yul\":1669:1696   */\n      mstore\n        /* \"#utility.yul\":1518:1702   */\n      pop\n        /* \"#utility.yul\":1456:1702   */\n      pop\n      pop\n      pop\n      jump\t// out\n        /* \"#utility.yul\":1708:1810   */\n    tag_154:\n        /* \"#utility.yul\":1749:1755   */\n      0x00\n        /* \"#utility.yul\":1800:1802   */\n      0x1f\n        /* \"#utility.yul\":1796:1803   */\n      not\n        /* \"#utility.yul\":1791:1793   */\n      0x1f\n        /* \"#utility.yul\":1784:1789   */\n      dup4\n        /* \"#utility.yul\":1780:1794   */\n      add\n        /* \"#utility.yul\":1776:1804   */\n      and\n        /* \"#utility.yul\":1766:1804   */\n      swap1\n      pop\n        /* \"#utility.yul\":1708:1810   */\n      swap2\n      swap1\n      pop\n      jump\t// out\n        /* \"#utility.yul\":1816:2193   */\n    tag_155:\n        /* \"#utility.yul\":1904:1907   */\n      0x00\n        /* \"#utility.yul\":1932:1971   */\n      tag_221\n        /* \"#utility.yul\":1965:1970   */\n      dup3\n        /* \"#utility.yul\":1932:1971   */\n      tag_151\n      jump\t// in\n    tag_221:\n        /* \"#utility.yul\":1987:2058   */\n      tag_222\n        /* \"#utility.yul\":2051:2057   */\n      dup2\n        /* \"#utility.yul\":2046:2049   */\n      dup6\n        /* \"#utility.yul\":1987:2058   */\n      tag_152\n      jump\t// in\n    tag_222:\n        /* \"#utility.yul\":1980:2058   */\n      swap4\n      pop\n        /* \"#utility.yul\":2067:2132   */\n      tag_223\n        /* \"#utility.yul\":2125:2131   */\n      dup2\n        /* \"#utility.yul\":2120:2123   */\n      dup6\n        /* \"#utility.yul\":2113:2117   */\n      0x20\n        /* \"#utility.yul\":2106:2111   */\n      dup7\n        /* \"#utility.yul\":2102:2118   */\n      add\n        /* \"#utility.yul\":2067:2132   */\n      tag_153\n      jump\t// in\n    tag_223:\n        /* \"#utility.yul\":2157:2186   */\n      tag_224\n        /* \"#utility.yul\":2179:2185   */\n      dup2\n        /* \"#utility.yul\":2157:2186   */\n      tag_154\n      jump\t// in\n    tag_224:\n        /* \"#utility.yul\":2152:2155   */\n      dup5\n        /* \"#utility.yul\":2148:2187   */\n      add\n        /* \"#utility.yul\":2141:2187   */\n      swap2\n      pop\n        /* \"#utility.yul\":1908:2193   */\n      pop\n        /* \"#utility.yul\":1816:2193   */\n      swap3\n      swap2\n      pop\n      pop\n      jump\t// out\n        /* \"#utility.yul\":2199:2512   */\n    tag_20:\n        /* \"#utility.yul\":2312:2316   */\n      0x00\n        /* \"#utility.yul\":2350:2352   */\n      0x20\n        /* \"#utility.yul\":2339:2348   */\n      dup3\n        /* \"#utility.yul\":2335:2353   */\n      add\n        /* \"#utility.yul\":2327:2353   */\n      swap1\n      pop\n        /* \"#utility.yul\":2399:2408   */\n      dup2\n        /* \"#utility.yul\":2393:2397   */\n      dup2\n        /* \"#utility.yul\":2389:2409   */\n      sub\n        /* \"#utility.yul\":2385:2386   */\n      0x00\n        /* \"#utility.yul\":2374:2383   */\n      dup4\n        /* \"#utility.yul\":2370:2387   */\n      add\n        /* \"#utility.yul\":2363:2410   */\n      mstore\n        /* \"#utility.yul\":2427:2505   */\n      tag_226\n        /* \"#utility.yul\":2500:2504   */\n      dup2\n        /* \"#utility.yul\":2491:2497   */\n      dup5\n        /* \"#utility.yul\":2427:2505   */\n      tag_155\n      jump\t// in\n    tag_226:\n        /* \"#utility.yul\":2419:2505   */\n      swap1\n      pop\n        /* \"#utility.yul\":2199:2512   */\n      swap3\n      swap2\n      pop\n      pop\n      jump\t// out\n        /* \"#utility.yul\":2518:2607   */\n    tag_156:\n        /* \"#utility.yul\":2554:2561   */\n      0x00\n        /* \"#utility.yul\":2594:2600   */\n      0xffff\n        /* \"#utility.yul\":2587:2592   */\n      dup3\n        /* \"#utility.yul\":2583:2601   */\n      and\n        /* \"#utility.yul\":2572:2601   */\n      swap1\n      pop\n        /* \"#utility.yul\":2518:2607   */\n      swap2\n      swap1\n      pop\n      jump\t// out\n        /* \"#utility.yul\":2613:2728   */\n    tag_157:\n        /* \"#utility.yul\":2698:2721   */\n      tag_229\n        /* \"#utility.yul\":2715:2720   */\n      dup2\n        /* \"#utility.yul\":2698:2721   */\n      tag_156\n      jump\t// in\n    tag_229:\n        /* \"#utility.yul\":2693:2696   */\n      dup3\n        /* \"#utility.yul\":2686:2722   */\n      mstore\n        /* \"#utility.yul\":2613:2728   */\n      pop\n      pop\n      jump\t// out\n        /* \"#utility.yul\":2734:2952   */\n    tag_27:\n        /* \"#utility.yul\":2825:2829   */\n      0x00\n        /* \"#utility.yul\":2863:2865   */\n      0x20\n        /* \"#utility.yul\":2852:2861   */\n      dup3\n        /* \"#utility.yul\":2848:2866   */\n      add\n        /* \"#utility.yul\":2840:2866   */\n      swap1\n      pop\n        /* \"#utility.yul\":2876:2945   */\n      tag_231\n        /* \"#utility.yul\":2942:2943   */\n      0x00\n        /* \"#utility.yul\":2931:2940   */\n      dup4\n        /* \"#utility.yul\":2927:2944   */\n      add\n        /* \"#utility.yul\":2918:2924   */\n      dup5\n        /* \"#utility.yul\":2876:2945   */\n      tag_157\n      jump\t// in\n    tag_231:\n        /* \"#utility.yul\":2734:2952   */\n      swap3\n      swap2\n      pop\n      pop\n      jump\t// out\n        /* \"#utility.yul\":2958:3035   */\n    tag_158:\n        /* \"#utility.yul\":2995:3002   */\n      0x00\n        /* \"#utility.yul\":3024:3029   */\n      dup2\n        /* \"#utility.yul\":3013:3029   */\n      swap1\n      pop\n        /* \"#utility.yul\":2958:3035   */\n      swap2\n      swap1\n      pop\n      jump\t// out\n        /* \"#utility.yul\":3041:3163   */\n    tag_159:\n        /* \"#utility.yul\":3114:3138   */\n      tag_234\n        /* \"#utility.yul\":3132:3137   */\n      dup2\n        /* \"#utility.yul\":3114:3138   */\n      tag_158\n      jump\t// in\n    tag_234:\n        /* \"#utility.yul\":3107:3112   */\n      dup2\n        /* \"#utility.yul\":3104:3139   */\n      eq\n        /* \"#utility.yul\":3094:3157   */\n      tag_235\n      jumpi\n        /* \"#utility.yul\":3153:3154   */\n      0x00\n        /* \"#utility.yul\":3150:3151   */\n      dup1\n        /* \"#utility.yul\":3143:3155   */\n      revert\n        /* \"#utility.yul\":3094:3157   */\n    tag_235:\n        /* \"#utility.yul\":3041:3163   */\n      pop\n      jump\t// out\n        /* \"#utility.yul\":3169:3308   */\n    tag_160:\n        /* \"#utility.yul\":3215:3220   */\n      0x00\n        /* \"#utility.yul\":3253:3259   */\n      dup2\n        /* \"#utility.yul\":3240:3260   */\n      calldataload\n        /* \"#utility.yul\":3231:3260   */\n      swap1\n      pop\n        /* \"#utility.yul\":3269:3302   */\n      tag_237\n        /* \"#utility.yul\":3296:3301   */\n      dup2\n        /* \"#utility.yul\":3269:3302   */\n      tag_159\n      jump\t// in\n    tag_237:\n        /* \"#utility.yul\":3169:3308   */\n      swap3\n      swap2\n      pop\n      pop\n      jump\t// out\n        /* \"#utility.yul\":3314:3643   */\n    tag_30:\n        /* \"#utility.yul\":3373:3379   */\n      0x00\n        /* \"#utility.yul\":3422:3424   */\n      0x20\n        /* \"#utility.yul\":3410:3419   */\n      dup3\n        /* \"#utility.yul\":3401:3408   */\n      dup5\n        /* \"#utility.yul\":3397:3420   */\n      sub\n        /* \"#utility.yul\":3393:3425   */\n      slt\n        /* \"#utility.yul\":3390:3509   */\n      iszero\n      tag_239\n      jumpi\n        /* \"#utility.yul\":3428:3507   */\n      tag_240\n      tag_145\n      jump\t// in\n    tag_240:\n        /* \"#utility.yul\":3390:3509   */\n    tag_239:\n        /* \"#utility.yul\":3548:3549   */\n      0x00\n        /* \"#utility.yul\":3573:3626   */\n      tag_241\n        /* \"#utility.yul\":3618:3625   */\n      dup5\n        /* \"#utility.yul\":3609:3615   */\n      dup3\n        /* \"#utility.yul\":3598:3607   */\n      dup6\n        /* \"#utility.yul\":3594:3616   */\n      add\n        /* \"#utility.yul\":3573:3626   */\n      tag_160\n      jump\t// in\n    tag_241:\n        /* \"#utility.yul\":3563:3626   */\n      swap2\n      pop\n        /* \"#utility.yul\":3519:3636   */\n      pop\n        /* \"#utility.yul\":3314:3643   */\n      swap3\n      swap2\n      pop\n      pop\n      jump\t// out\n        /* \"#utility.yul\":3649:3726   */\n    tag_161:\n        /* \"#utility.yul\":3686:3693   */\n      0x00\n        /* \"#utility.yul\":3715:3720   */\n      dup2\n        /* \"#utility.yul\":3704:3720   */\n      swap1\n      pop\n        /* \"#utility.yul\":3649:3726   */\n      swap2\n      swap1\n      pop\n      jump\t// out\n        /* \"#utility.yul\":3732:3850   */\n    tag_162:\n        /* \"#utility.yul\":3819:3843   */\n      tag_244\n        /* \"#utility.yul\":3837:3842   */\n      dup2\n        /* \"#utility.yul\":3819:3843   */\n      tag_161\n      jump\t// in\n    tag_244:\n        /* \"#utility.yul\":3814:3817   */\n      dup3\n        /* \"#utility.yul\":3807:3844   */\n      mstore\n        /* \"#utility.yul\":3732:3850   */\n      pop\n      pop\n      jump\t// out\n        /* \"#utility.yul\":3856:4591   */\n    tag_33:\n        /* \"#utility.yul\":4073:4077   */\n      0x00\n        /* \"#utility.yul\":4111:4114   */\n      0x80\n        /* \"#utility.yul\":4100:4109   */\n      dup3\n        /* \"#utility.yul\":4096:4115   */\n      add\n        /* \"#utility.yul\":4088:4115   */\n      swap1\n      pop\n        /* \"#utility.yul\":4125:4196   */\n      tag_246\n        /* \"#utility.yul\":4193:4194   */\n      0x00\n        /* \"#utility.yul\":4182:4191   */\n      dup4\n        /* \"#utility.yul\":4178:4195   */\n      add\n        /* \"#utility.yul\":4169:4175   */\n      dup8\n        /* \"#utility.yul\":4125:4196   */\n      tag_162\n      jump\t// in\n    tag_246:\n        /* \"#utility.yul\":4206:4278   */\n      tag_247\n        /* \"#utility.yul\":4274:4276   */\n      0x20\n        /* \"#utility.yul\":4263:4272   */\n      dup4\n        /* \"#utility.yul\":4259:4277   */\n      add\n        /* \"#utility.yul\":4250:4256   */\n      dup7\n        /* \"#utility.yul\":4206:4278   */\n      tag_162\n      jump\t// in\n    tag_247:\n        /* \"#utility.yul\":4325:4334   */\n      dup2\n        /* \"#utility.yul\":4319:4323   */\n      dup2\n        /* \"#utility.yul\":4315:4335   */\n      sub\n        /* \"#utility.yul\":4310:4312   */\n      0x40\n        /* \"#utility.yul\":4299:4308   */\n      dup4\n        /* \"#utility.yul\":4295:4313   */\n      add\n        /* \"#utility.yul\":4288:4336   */\n      mstore\n        /* \"#utility.yul\":4353:4431   */\n      tag_248\n        /* \"#utility.yul\":4426:4430   */\n      dup2\n        /* \"#utility.yul\":4417:4423   */\n      dup6\n        /* \"#utility.yul\":4353:4431   */\n      tag_155\n      jump\t// in\n    tag_248:\n        /* \"#utility.yul\":4345:4431   */\n      swap1\n      pop\n        /* \"#utility.yul\":4478:4487   */\n      dup2\n        /* \"#utility.yul\":4472:4476   */\n      dup2\n        /* \"#utility.yul\":4468:4488   */\n      sub\n        /* \"#utility.yul\":4463:4465   */\n      0x60\n        /* \"#utility.yul\":4452:4461   */\n      dup4\n        /* \"#utility.yul\":4448:4466   */\n      add\n        /* \"#utility.yul\":4441:4489   */\n      mstore\n        /* \"#utility.yul\":4506:4584   */\n      tag_249\n        /* \"#utility.yul\":4579:4583   */\n      dup2\n        /* \"#utility.yul\":4570:4576   */\n      dup5\n        /* \"#utility.yul\":4506:4584   */\n      tag_155\n      jump\t// in\n    tag_249:\n        /* \"#utility.yul\":4498:4584   */\n      swap1\n      pop\n        /* \"#utility.yul\":3856:4591   */\n      swap6\n      swap5\n      pop\n      pop\n      pop\n      pop\n      pop\n      jump\t// out\n        /* \"#utility.yul\":4597:4714   */\n    tag_163:\n        /* \"#utility.yul\":4706:4707   */\n      0x00\n        /* \"#utility.yul\":4703:4704   */\n      dup1\n        /* \"#utility.yul\":4696:4708   */\n      revert\n        /* \"#utility.yul\":4720:4837   */\n    tag_164:\n        /* \"#utility.yul\":4829:4830   */\n      0x00\n        /* \"#utility.yul\":4826:4827   */\n      dup1\n        /* \"#utility.yul\":4819:4831   */\n      revert\n        /* \"#utility.yul\":4843:4960   */\n    tag_165:\n        /* \"#utility.yul\":4952:4953   */\n      0x00\n        /* \"#utility.yul\":4949:4950   */\n      dup1\n        /* \"#utility.yul\":4942:4954   */\n      revert\n        /* \"#utility.yul\":4980:5533   */\n    tag_166:\n        /* \"#utility.yul\":5038:5046   */\n      0x00\n        /* \"#utility.yul\":5048:5054   */\n      dup1\n        /* \"#utility.yul\":5098:5101   */\n      dup4\n        /* \"#utility.yul\":5091:5095   */\n      0x1f\n        /* \"#utility.yul\":5083:5089   */\n      dup5\n        /* \"#utility.yul\":5079:5096   */\n      add\n        /* \"#utility.yul\":5075:5102   */\n      slt\n        /* \"#utility.yul\":5065:5187   */\n      tag_254\n      jumpi\n        /* \"#utility.yul\":5106:5185   */\n      tag_255\n      tag_163\n      jump\t// in\n    tag_255:\n        /* \"#utility.yul\":5065:5187   */\n    tag_254:\n        /* \"#utility.yul\":5219:5225   */\n      dup3\n        /* \"#utility.yul\":5206:5226   */\n      calldataload\n        /* \"#utility.yul\":5196:5226   */\n      swap1\n      pop\n        /* \"#utility.yul\":5249:5267   */\n      0xffffffffffffffff\n        /* \"#utility.yul\":5241:5247   */\n      dup2\n        /* \"#utility.yul\":5238:5268   */\n      gt\n        /* \"#utility.yul\":5235:5352   */\n      iszero\n      tag_256\n      jumpi\n        /* \"#utility.yul\":5271:5350   */\n      tag_257\n      tag_164\n      jump\t// in\n    tag_257:\n        /* \"#utility.yul\":5235:5352   */\n    tag_256:\n        /* \"#utility.yul\":5385:5389   */\n      0x20\n        /* \"#utility.yul\":5377:5383   */\n      dup4\n        /* \"#utility.yul\":5373:5390   */\n      add\n        /* \"#utility.yul\":5361:5390   */\n      swap2\n      pop\n        /* \"#utility.yul\":5439:5442   */\n      dup4\n        /* \"#utility.yul\":5431:5435   */\n      0x01\n        /* \"#utility.yul\":5423:5429   */\n      dup3\n        /* \"#utility.yul\":5419:5436   */\n      mul\n        /* \"#utility.yul\":5409:5417   */\n      dup4\n        /* \"#utility.yul\":5405:5437   */\n      add\n        /* \"#utility.yul\":5402:5443   */\n      gt\n        /* \"#utility.yul\":5399:5527   */\n      iszero\n      tag_258\n      jumpi\n        /* \"#utility.yul\":5446:5525   */\n      tag_259\n      tag_165\n      jump\t// in\n    tag_259:\n        /* \"#utility.yul\":5399:5527   */\n    tag_258:\n        /* \"#utility.yul\":4980:5533   */\n      swap3\n      pop\n      swap3\n      swap1\n      pop\n      jump\t// out\n        /* \"#utility.yul\":5539:6213   */\n    tag_36:\n        /* \"#utility.yul\":5619:5625   */\n      0x00\n        /* \"#utility.yul\":5627:5633   */\n      dup1\n        /* \"#utility.yul\":5635:5641   */\n      0x00\n        /* \"#utility.yul\":5684:5686   */\n      0x40\n        /* \"#utility.yul\":5672:5681   */\n      dup5\n        /* \"#utility.yul\":5663:5670   */\n      dup7\n        /* \"#utility.yul\":5659:5682   */\n      sub\n        /* \"#utility.yul\":5655:5687   */\n      slt\n        /* \"#utility.yul\":5652:5771   */\n      iszero\n      tag_261\n      jumpi\n        /* \"#utility.yul\":5690:5769   */\n      tag_262\n      tag_145\n      jump\t// in\n    tag_262:\n        /* \"#utility.yul\":5652:5771   */\n    tag_261:\n        /* \"#utility.yul\":5810:5811   */\n      0x00\n        /* \"#utility.yul\":5835:5888   */\n      tag_263\n        /* \"#utility.yul\":5880:5887   */\n      dup7\n        /* \"#utility.yul\":5871:5877   */\n      dup3\n        /* \"#utility.yul\":5860:5869   */\n      dup8\n        /* \"#utility.yul\":5856:5878   */\n      add\n        /* \"#utility.yul\":5835:5888   */\n      tag_150\n      jump\t// in\n    tag_263:\n        /* \"#utility.yul\":5825:5888   */\n      swap4\n      pop\n        /* \"#utility.yul\":5781:5898   */\n      pop\n        /* \"#utility.yul\":5965:5967   */\n      0x20\n        /* \"#utility.yul\":5954:5963   */\n      dup5\n        /* \"#utility.yul\":5950:5968   */\n      add\n        /* \"#utility.yul\":5937:5969   */\n      calldataload\n        /* \"#utility.yul\":5996:6014   */\n      0xffffffffffffffff\n        /* \"#utility.yul\":5988:5994   */\n      dup2\n        /* \"#utility.yul\":5985:6015   */\n      gt\n        /* \"#utility.yul\":5982:6099   */\n      iszero\n      tag_264\n      jumpi\n        /* \"#utility.yul\":6018:6097   */\n      tag_265\n      tag_146\n      jump\t// in\n    tag_265:\n        /* \"#utility.yul\":5982:6099   */\n    tag_264:\n        /* \"#utility.yul\":6131:6196   */\n      tag_266\n        /* \"#utility.yul\":6188:6195   */\n      dup7\n        /* \"#utility.yul\":6179:6185   */\n      dup3\n        /* \"#utility.yul\":6168:6177   */\n      dup8\n        /* \"#utility.yul\":6164:6186   */\n      add\n        /* \"#utility.yul\":6131:6196   */\n      tag_166\n      jump\t// in\n    tag_266:\n        /* \"#utility.yul\":6113:6196   */\n      swap3\n      pop\n      swap3\n      pop\n        /* \"#utility.yul\":5908:6206   */\n      pop\n        /* \"#utility.yul\":5539:6213   */\n      swap3\n      pop\n      swap3\n      pop\n      swap3\n      jump\t// out\n        /* \"#utility.yul\":6219:6337   */\n    tag_167:\n        /* \"#utility.yul\":6306:6330   */\n      tag_268\n        /* \"#utility.yul\":6324:6329   */\n      dup2\n        /* \"#utility.yul\":6306:6330   */\n      tag_148\n      jump\t// in\n    tag_268:\n        /* \"#utility.yul\":6301:6304   */\n      dup3\n        /* \"#utility.yul\":6294:6331   */\n      mstore\n        /* \"#utility.yul\":6219:6337   */\n      pop\n      pop\n      jump\t// out\n        /* \"#utility.yul\":6343:6565   */\n    tag_47:\n        /* \"#utility.yul\":6436:6440   */\n      0x00\n        /* \"#utility.yul\":6474:6476   */\n      0x20\n        /* \"#utility.yul\":6463:6472   */\n      dup3\n        /* \"#utility.yul\":6459:6477   */\n      add\n        /* \"#utility.yul\":6451:6477   */\n      swap1\n      pop\n        /* \"#utility.yul\":6487:6558   */\n      tag_270\n        /* \"#utility.yul\":6555:6556   */\n      0x00\n        /* \"#utility.yul\":6544:6553   */\n      dup4\n        /* \"#utility.yul\":6540:6557   */\n      add\n        /* \"#utility.yul\":6531:6537   */\n      dup5\n        /* \"#utility.yul\":6487:6558   */\n      tag_167\n      jump\t// in\n    tag_270:\n        /* \"#utility.yul\":6343:6565   */\n      swap3\n      swap2\n      pop\n      pop\n      jump\t// out\n        /* \"#utility.yul\":6571:7245   */\n    tag_53:\n        /* \"#utility.yul\":6651:6657   */\n      0x00\n        /* \"#utility.yul\":6659:6665   */\n      dup1\n        /* \"#utility.yul\":6667:6673   */\n      0x00\n        /* \"#utility.yul\":6716:6718   */\n      0x40\n        /* \"#utility.yul\":6704:6713   */\n      dup5\n        /* \"#utility.yul\":6695:6702   */\n      dup7\n        /* \"#utility.yul\":6691:6714   */\n      sub\n        /* \"#utility.yul\":6687:6719   */\n      slt\n        /* \"#utility.yul\":6684:6803   */\n      iszero\n      tag_272\n      jumpi\n        /* \"#utility.yul\":6722:6801   */\n      tag_273\n      tag_145\n      jump\t// in\n    tag_273:\n        /* \"#utility.yul\":6684:6803   */\n    tag_272:\n        /* \"#utility.yul\":6842:6843   */\n      0x00\n        /* \"#utility.yul\":6867:6920   */\n      tag_274\n        /* \"#utility.yul\":6912:6919   */\n      dup7\n        /* \"#utility.yul\":6903:6909   */\n      dup3\n        /* \"#utility.yul\":6892:6901   */\n      dup8\n        /* \"#utility.yul\":6888:6910   */\n      add\n        /* \"#utility.yul\":6867:6920   */\n      tag_160\n      jump\t// in\n    tag_274:\n        /* \"#utility.yul\":6857:6920   */\n      swap4\n      pop\n        /* \"#utility.yul\":6813:6930   */\n      pop\n        /* \"#utility.yul\":6997:6999   */\n      0x20\n        /* \"#utility.yul\":6986:6995   */\n      dup5\n        /* \"#utility.yul\":6982:7000   */\n      add\n        /* \"#utility.yul\":6969:7001   */\n      calldataload\n        /* \"#utility.yul\":7028:7046   */\n      0xffffffffffffffff\n        /* \"#utility.yul\":7020:7026   */\n      dup2\n        /* \"#utility.yul\":7017:7047   */\n      gt\n        /* \"#utility.yul\":7014:7131   */\n      iszero\n      tag_275\n      jumpi\n        /* \"#utility.yul\":7050:7129   */\n      tag_276\n      tag_146\n      jump\t// in\n    tag_276:\n        /* \"#utility.yul\":7014:7131   */\n    tag_275:\n        /* \"#utility.yul\":7163:7228   */\n      tag_277\n        /* \"#utility.yul\":7220:7227   */\n      dup7\n        /* \"#utility.yul\":7211:7217   */\n      dup3\n        /* \"#utility.yul\":7200:7209   */\n      dup8\n        /* \"#utility.yul\":7196:7218   */\n      add\n        /* \"#utility.yul\":7163:7228   */\n      tag_166\n      jump\t// in\n    tag_277:\n        /* \"#utility.yul\":7145:7228   */\n      swap3\n      pop\n      swap3\n      pop\n        /* \"#utility.yul\":6940:7238   */\n      pop\n        /* \"#utility.yul\":6571:7245   */\n      swap3\n      pop\n      swap3\n      pop\n      swap3\n      jump\t// out\n        /* \"#utility.yul\":7251:7431   */\n    tag_168:\n        /* \"#utility.yul\":7299:7376   */\n      0x4e487b7100000000000000000000000000000000000000000000000000000000\n        /* \"#utility.yul\":7296:7297   */\n      0x00\n        /* \"#utility.yul\":7289:7377   */\n      mstore\n        /* \"#utility.yul\":7396:7400   */\n      0x22\n        /* \"#utility.yul\":7393:7394   */\n      0x04\n        /* \"#utility.yul\":7386:7401   */\n      mstore\n        /* \"#utility.yul\":7420:7424   */\n      0x24\n        /* \"#utility.yul\":7417:7418   */\n      0x00\n        /* \"#utility.yul\":7410:7425   */\n      revert\n        /* \"#utility.yul\":7437:7757   */\n    tag_60:\n        /* \"#utility.yul\":7481:7487   */\n      0x00\n        /* \"#utility.yul\":7518:7519   */\n      0x02\n        /* \"#utility.yul\":7512:7516   */\n      dup3\n        /* \"#utility.yul\":7508:7520   */\n      div\n        /* \"#utility.yul\":7498:7520   */\n      swap1\n      pop\n        /* \"#utility.yul\":7565:7566   */\n      0x01\n        /* \"#utility.yul\":7559:7563   */\n      dup3\n        /* \"#utility.yul\":7555:7567   */\n      and\n        /* \"#utility.yul\":7586:7604   */\n      dup1\n        /* \"#utility.yul\":7576:7657   */\n      tag_280\n      jumpi\n        /* \"#utility.yul\":7642:7646   */\n      0x7f\n        /* \"#utility.yul\":7634:7640   */\n      dup3\n        /* \"#utility.yul\":7630:7647   */\n      and\n        /* \"#utility.yul\":7620:7647   */\n      swap2\n      pop\n        /* \"#utility.yul\":7576:7657   */\n    tag_280:\n        /* \"#utility.yul\":7704:7706   */\n      0x20\n        /* \"#utility.yul\":7696:7702   */\n      dup3\n        /* \"#utility.yul\":7693:7707   */\n      lt\n        /* \"#utility.yul\":7673:7691   */\n      dup2\n        /* \"#utility.yul\":7670:7708   */\n      sub\n        /* \"#utility.yul\":7667:7751   */\n      tag_281\n      jumpi\n        /* \"#utility.yul\":7723:7741   */\n      tag_282\n      tag_168\n      jump\t// in\n    tag_282:\n        /* \"#utility.yul\":7667:7751   */\n    tag_281:\n        /* \"#utility.yul\":7488:7757   */\n      pop\n        /* \"#utility.yul\":7437:7757   */\n      swap2\n      swap1\n      pop\n      jump\t// out\n        /* \"#utility.yul\":7763:7936   */\n    tag_169:\n        /* \"#utility.yul\":7903:7928   */\n      0x43616c6c6572206973206e6f7420746865206f776e6572000000000000000000\n        /* \"#utility.yul\":7899:7900   */\n      0x00\n        /* \"#utility.yul\":7891:7897   */\n      dup3\n        /* \"#utility.yul\":7887:7901   */\n      add\n        /* \"#utility.yul\":7880:7929   */\n      mstore\n        /* \"#utility.yul\":7763:7936   */\n      pop\n      jump\t// out\n        /* \"#utility.yul\":7942:8308   */\n    tag_170:\n        /* \"#utility.yul\":8084:8087   */\n      0x00\n        /* \"#utility.yul\":8105:8172   */\n      tag_285\n        /* \"#utility.yul\":8169:8171   */\n      0x17\n        /* \"#utility.yul\":8164:8167   */\n      dup4\n        /* \"#utility.yul\":8105:8172   */\n      tag_152\n      jump\t// in\n    tag_285:\n        /* \"#utility.yul\":8098:8172   */\n      swap2\n      pop\n        /* \"#utility.yul\":8181:8274   */\n      tag_286\n        /* \"#utility.yul\":8270:8273   */\n      dup3\n        /* \"#utility.yul\":8181:8274   */\n      tag_169\n      jump\t// in\n    tag_286:\n        /* \"#utility.yul\":8299:8301   */\n      0x20\n        /* \"#utility.yul\":8294:8297   */\n      dup3\n        /* \"#utility.yul\":8290:8302   */\n      add\n        /* \"#utility.yul\":8283:8302   */\n      swap1\n      pop\n        /* \"#utility.yul\":7942:8308   */\n      swap2\n      swap1\n      pop\n      jump\t// out\n        /* \"#utility.yul\":8314:8733   */\n    tag_68:\n        /* \"#utility.yul\":8480:8484   */\n      0x00\n        /* \"#utility.yul\":8518:8520   */\n      0x20\n        /* \"#utility.yul\":8507:8516   */\n      dup3\n        /* \"#utility.yul\":8503:8521   */\n      add\n        /* \"#utility.yul\":8495:8521   */\n      swap1\n      pop\n        /* \"#utility.yul\":8567:8576   */\n      dup2\n        /* \"#utility.yul\":8561:8565   */\n      dup2\n        /* \"#utility.yul\":8557:8577   */\n      sub\n        /* \"#utility.yul\":8553:8554   */\n      0x00\n        /* \"#utility.yul\":8542:8551   */\n      dup4\n        /* \"#utility.yul\":8538:8555   */\n      add\n        /* \"#utility.yul\":8531:8578   */\n      mstore\n        /* \"#utility.yul\":8595:8726   */\n      tag_288\n        /* \"#utility.yul\":8721:8725   */\n      dup2\n        /* \"#utility.yul\":8595:8726   */\n      tag_170\n      jump\t// in\n    tag_288:\n        /* \"#utility.yul\":8587:8726   */\n      swap1\n      pop\n        /* \"#utility.yul\":8314:8733   */\n      swap2\n      swap1\n      pop\n      jump\t// out\n        /* \"#utility.yul\":8739:8919   */\n    tag_72:\n        /* \"#utility.yul\":8787:8864   */\n      0x4e487b7100000000000000000000000000000000000000000000000000000000\n        /* \"#utility.yul\":8784:8785   */\n      0x00\n        /* \"#utility.yul\":8777:8865   */\n      mstore\n        /* \"#utility.yul\":8884:8888   */\n      0x01\n        /* \"#utility.yul\":8881:8882   */\n      0x04\n        /* \"#utility.yul\":8874:8889   */\n      mstore\n        /* \"#utility.yul\":8908:8912   */\n      0x24\n        /* \"#utility.yul\":8905:8906   */\n      0x00\n        /* \"#utility.yul\":8898:8913   */\n      revert\n        /* \"#utility.yul\":8925:9105   */\n    tag_171:\n        /* \"#utility.yul\":8973:9050   */\n      0x4e487b7100000000000000000000000000000000000000000000000000000000\n        /* \"#utility.yul\":8970:8971   */\n      0x00\n        /* \"#utility.yul\":8963:9051   */\n      mstore\n        /* \"#utility.yul\":9070:9074   */\n      0x41\n        /* \"#utility.yul\":9067:9068   */\n      0x04\n        /* \"#utility.yul\":9060:9075   */\n      mstore\n        /* \"#utility.yul\":9094:9098   */\n      0x24\n        /* \"#utility.yul\":9091:9092   */\n      0x00\n        /* \"#utility.yul\":9084:9099   */\n      revert\n        /* \"#utility.yul\":9111:9252   */\n    tag_172:\n        /* \"#utility.yul\":9160:9164   */\n      0x00\n        /* \"#utility.yul\":9183:9186   */\n      dup2\n        /* \"#utility.yul\":9175:9186   */\n      swap1\n      pop\n        /* \"#utility.yul\":9206:9209   */\n      dup2\n        /* \"#utility.yul\":9203:9204   */\n      0x00\n        /* \"#utility.yul\":9196:9210   */\n      mstore\n        /* \"#utility.yul\":9240:9244   */\n      0x20\n        /* \"#utility.yul\":9237:9238   */\n      0x00\n        /* \"#utility.yul\":9227:9245   */\n      keccak256\n        /* \"#utility.yul\":9219:9245   */\n      swap1\n      pop\n        /* \"#utility.yul\":9111:9252   */\n      swap2\n      swap1\n      pop\n      jump\t// out\n        /* \"#utility.yul\":9258:9351   */\n    tag_173:\n        /* \"#utility.yul\":9295:9301   */\n      0x00\n        /* \"#utility.yul\":9342:9344   */\n      0x20\n        /* \"#utility.yul\":9337:9339   */\n      0x1f\n        /* \"#utility.yul\":9330:9335   */\n      dup4\n        /* \"#utility.yul\":9326:9340   */\n      add\n        /* \"#utility.yul\":9322:9345   */\n      div\n        /* \"#utility.yul\":9312:9345   */\n      swap1\n      pop\n        /* \"#utility.yul\":9258:9351   */\n      swap2\n      swap1\n      pop\n      jump\t// out\n        /* \"#utility.yul\":9357:9464   */\n    tag_174:\n        /* \"#utility.yul\":9401:9409   */\n      0x00\n        /* \"#utility.yul\":9451:9456   */\n      dup3\n        /* \"#utility.yul\":9445:9449   */\n      dup3\n        /* \"#utility.yul\":9441:9457   */\n      shl\n        /* \"#utility.yul\":9420:9457   */\n      swap1\n      pop\n        /* \"#utility.yul\":9357:9464   */\n      swap3\n      swap2\n      pop\n      pop\n      jump\t// out\n        /* \"#utility.yul\":9470:9863   */\n    tag_175:\n        /* \"#utility.yul\":9539:9545   */\n      0x00\n        /* \"#utility.yul\":9589:9590   */\n      0x08\n        /* \"#utility.yul\":9577:9587   */\n      dup4\n        /* \"#utility.yul\":9573:9591   */\n      mul\n        /* \"#utility.yul\":9612:9709   */\n      tag_295\n        /* \"#utility.yul\":9642:9708   */\n      0xffffffffffffffffffffffffffffffffffffffffffffffffffffffffffffffff\n        /* \"#utility.yul\":9631:9640   */\n      dup3\n        /* \"#utility.yul\":9612:9709   */\n      tag_174\n      jump\t// in\n    tag_295:\n        /* \"#utility.yul\":9730:9769   */\n      tag_296\n        /* \"#utility.yul\":9760:9768   */\n      dup7\n        /* \"#utility.yul\":9749:9758   */\n      dup4\n        /* \"#utility.yul\":9730:9769   */\n      tag_174\n      jump\t// in\n    tag_296:\n        /* \"#utility.yul\":9718:9769   */\n      swap6\n      pop\n        /* \"#utility.yul\":9802:9806   */\n      dup1\n        /* \"#utility.yul\":9798:9807   */\n      not\n        /* \"#utility.yul\":9791:9796   */\n      dup5\n        /* \"#utility.yul\":9787:9808   */\n      and\n        /* \"#utility.yul\":9778:9808   */\n      swap4\n      pop\n        /* \"#utility.yul\":9851:9855   */\n      dup1\n        /* \"#utility.yul\":9841:9849   */\n      dup7\n        /* \"#utility.yul\":9837:9856   */\n      and\n        /* \"#utility.yul\":9830:9835   */\n      dup5\n        /* \"#utility.yul\":9827:9857   */\n      or\n        /* \"#utility.yul\":9817:9857   */\n      swap3\n      pop\n        /* \"#utility.yul\":9546:9863   */\n      pop\n      pop\n        /* \"#utility.yul\":9470:9863   */\n      swap4\n      swap3\n      pop\n      pop\n      pop\n      jump\t// out\n        /* \"#utility.yul\":9869:9929   */\n    tag_176:\n        /* \"#utility.yul\":9897:9900   */\n      0x00\n        /* \"#utility.yul\":9918:9923   */\n      dup2\n        /* \"#utility.yul\":9911:9923   */\n      swap1\n      pop\n        /* \"#utility.yul\":9869:9929   */\n      swap2\n      swap1\n      pop\n      jump\t// out\n        /* \"#utility.yul\":9935:10077   */\n    tag_177:\n        /* \"#utility.yul\":9985:9994   */\n      0x00\n        /* \"#utility.yul\":10018:10071   */\n      tag_299\n        /* \"#utility.yul\":10036:10070   */\n      tag_300\n        /* \"#utility.yul\":10045:10069   */\n      tag_301\n        /* \"#utility.yul\":10063:10068   */\n      dup5\n        /* \"#utility.yul\":10045:10069   */\n      tag_161\n      jump\t// in\n    tag_301:\n        /* \"#utility.yul\":10036:10070   */\n      tag_176\n      jump\t// in\n    tag_300:\n        /* \"#utility.yul\":10018:10071   */\n      tag_161\n      jump\t// in\n    tag_299:\n        /* \"#utility.yul\":10005:10071   */\n      swap1\n      pop\n        /* \"#utility.yul\":9935:10077   */\n      swap2\n      swap1\n      pop\n      jump\t// out\n        /* \"#utility.yul\":10083:10158   */\n    tag_178:\n        /* \"#utility.yul\":10126:10129   */\n      0x00\n        /* \"#utility.yul\":10147:10152   */\n      dup2\n        /* \"#utility.yul\":10140:10152   */\n      swap1\n      pop\n        /* \"#utility.yul\":10083:10158   */\n      swap2\n      swap1\n      pop\n      jump\t// out\n        /* \"#utility.yul\":10164:10433   */\n    tag_179:\n        /* \"#utility.yul\":10274:10313   */\n      tag_304\n        /* \"#utility.yul\":10305:10312   */\n      dup4\n        /* \"#utility.yul\":10274:10313   */\n      tag_177\n      jump\t// in\n    tag_304:\n        /* \"#utility.yul\":10335:10426   */\n      tag_305\n        /* \"#utility.yul\":10384:10425   */\n      tag_306\n        /* \"#utility.yul\":10408:10424   */\n      dup3\n        /* \"#utility.yul\":10384:10425   */\n      tag_178\n      jump\t// in\n    tag_306:\n        /* \"#utility.yul\":10376:10382   */\n      dup5\n        /* \"#utility.yul\":10369:10373   */\n      dup5\n        /* \"#utility.yul\":10363:10374   */\n      sload\n        /* \"#utility.yul\":10335:10426   */\n      tag_175\n      jump\t// in\n    tag_305:\n        /* \"#utility.yul\":10329:10333   */\n      dup3\n        /* \"#utility.yul\":10322:10427   */\n      sstore\n        /* \"#utility.yul\":10240:10433   */\n      pop\n        /* \"#utility.yul\":10164:10433   */\n      pop\n      pop\n      pop\n      jump\t// out\n        /* \"#utility.yul\":10439:10512   */\n    tag_180:\n        /* \"#utility.yul\":10484:10487   */\n      0x00\n        /* \"#utility.yul\":10439:10512   */\n      swap1\n      jump\t// out\n        /* \"#utility.yul\":10518:10707   */\n    tag_181:\n        /* \"#utility.yul\":10595:10627   */\n      tag_309\n      tag_180\n      jump\t// in\n    tag_309:\n        /* \"#utility.yul\":10636:10701   */\n      tag_310\n        /* \"#utility.yul\":10694:10700   */\n      dup2\n        /* \"#utility.yul\":10686:10692   */\n      dup5\n        /* \"#utility.yul\":10680:10684   */\n      dup5\n        /* \"#utility.yul\":10636:10701   */\n      tag_179\n      jump\t// in\n    tag_310:\n        /* \"#utility.yul\":10571:10707   */\n      pop\n        /* \"#utility.yul\":10518:10707   */\n      pop\n      pop\n      jump\t// out\n        /* \"#utility.yul\":10713:10899   */\n    tag_182:\n        /* \"#utility.yul\":10773:10893   */\n    tag_312:\n        /* \"#utility.yul\":10790:10793   */\n      dup2\n        /* \"#utility.yul\":10783:10788   */\n      dup2\n        /* \"#utility.yul\":10780:10794   */\n      lt\n        /* \"#utility.yul\":10773:10893   */\n      iszero\n      tag_314\n      jumpi\n        /* \"#utility.yul\":10844:10883   */\n      tag_315\n        /* \"#utility.yul\":10881:10882   */\n      0x00\n        /* \"#utility.yul\":10874:10879   */\n      dup3\n        /* \"#utility.yul\":10844:10883   */\n      tag_181\n      jump\t// in\n    tag_315:\n        /* \"#utility.yul\":10817:10818   */\n      0x01\n        /* \"#utility.yul\":10810:10815   */\n      dup2\n        /* \"#utility.yul\":10806:10819   */\n      add\n        /* \"#utility.yul\":10797:10819   */\n      swap1\n      pop\n        /* \"#utility.yul\":10773:10893   */\n      jump(tag_312)\n    tag_314:\n        /* \"#utility.yul\":10713:10899   */\n      pop\n      pop\n      jump\t// out\n        /* \"#utility.yul\":10905:11448   */\n    tag_183:\n        /* \"#utility.yul\":11006:11008   */\n      0x1f\n        /* \"#utility.yul\":11001:11004   */\n      dup3\n        /* \"#utility.yul\":10998:11009   */\n      gt\n        /* \"#utility.yul\":10995:11441   */\n      iszero\n      tag_317\n      jumpi\n        /* \"#utility.yul\":11040:11078   */\n      tag_318\n        /* \"#utility.yul\":11072:11077   */\n      dup2\n        /* \"#utility.yul\":11040:11078   */\n      tag_172\n      jump\t// in\n    tag_318:\n        /* \"#utility.yul\":11124:11153   */\n      tag_319\n        /* \"#utility.yul\":11142:11152   */\n      dup5\n        /* \"#utility.yul\":11124:11153   */\n      tag_173\n      jump\t// in\n    tag_319:\n        /* \"#utility.yul\":11114:11122   */\n      dup2\n        /* \"#utility.yul\":11110:11154   */\n      add\n        /* \"#utility.yul\":11307:11309   */\n      0x20\n        /* \"#utility.yul\":11295:11305   */\n      dup6\n        /* \"#utility.yul\":11292:11310   */\n      lt\n        /* \"#utility.yul\":11289:11338   */\n      iszero\n      tag_320\n      jumpi\n        /* \"#utility.yul\":11328:11336   */\n      dup2\n        /* \"#utility.yul\":11313:11336   */\n      swap1\n      pop\n        /* \"#utility.yul\":11289:11338   */\n    tag_320:\n        /* \"#utility.yul\":11351:11431   */\n      tag_321\n        /* \"#utility.yul\":11407:11429   */\n      tag_322\n        /* \"#utility.yul\":11425:11428   */\n      dup6\n        /* \"#utility.yul\":11407:11429   */\n      tag_173\n      jump\t// in\n    tag_322:\n        /* \"#utility.yul\":11397:11405   */\n      dup4\n        /* \"#utility.yul\":11393:11430   */\n      add\n        /* \"#utility.yul\":11380:11391   */\n      dup3\n        /* \"#utility.yul\":11351:11431   */\n      tag_182\n      jump\t// in\n    tag_321:\n        /* \"#utility.yul\":11010:11441   */\n      pop\n      pop\n        /* \"#utility.yul\":10995:11441   */\n    tag_317:\n        /* \"#utility.yul\":10905:11448   */\n      pop\n      pop\n      pop\n      jump\t// out\n        /* \"#utility.yul\":11454:11571   */\n    tag_184:\n        /* \"#utility.yul\":11508:11516   */\n      0x00\n        /* \"#utility.yul\":11558:11563   */\n      dup3\n        /* \"#utility.yul\":11552:11556   */\n      dup3\n        /* \"#utility.yul\":11548:11564   */\n      shr\n        /* \"#utility.yul\":11527:11564   */\n      swap1\n      pop\n        /* \"#utility.yul\":11454:11571   */\n      swap3\n      swap2\n      pop\n      pop\n      jump\t// out\n        /* \"#utility.yul\":11577:11746   */\n    tag_185:\n        /* \"#utility.yul\":11621:11627   */\n      0x00\n        /* \"#utility.yul\":11654:11705   */\n      tag_325\n        /* \"#utility.yul\":11702:11703   */\n      0x00\n        /* \"#utility.yul\":11698:11704   */\n      not\n        /* \"#utility.yul\":11690:11695   */\n      dup5\n        /* \"#utility.yul\":11687:11688   */\n      0x08\n        /* \"#utility.yul\":11683:11696   */\n      mul\n        /* \"#utility.yul\":11654:11705   */\n      tag_184\n      jump\t// in\n    tag_325:\n        /* \"#utility.yul\":11650:11706   */\n      not\n        /* \"#utility.yul\":11735:11739   */\n      dup1\n        /* \"#utility.yul\":11729:11733   */\n      dup4\n        /* \"#utility.yul\":11725:11740   */\n      and\n        /* \"#utility.yul\":11715:11740   */\n      swap2\n      pop\n        /* \"#utility.yul\":11628:11746   */\n      pop\n        /* \"#utility.yul\":11577:11746   */\n      swap3\n      swap2\n      pop\n      pop\n      jump\t// out\n        /* \"#utility.yul\":11751:12046   */\n    tag_186:\n        /* \"#utility.yul\":11827:11831   */\n      0x00\n        /* \"#utility.yul\":11973:12002   */\n      tag_327\n        /* \"#utility.yul\":11998:12001   */\n      dup4\n        /* \"#utility.yul\":11992:11996   */\n      dup4\n        /* \"#utility.yul\":11973:12002   */\n      tag_185\n      jump\t// in\n    tag_327:\n        /* \"#utility.yul\":11965:12002   */\n      swap2\n      pop\n        /* \"#utility.yul\":12035:12038   */\n      dup3\n        /* \"#utility.yul\":12032:12033   */\n      0x02\n        /* \"#utility.yul\":12028:12039   */\n      mul\n        /* \"#utility.yul\":12022:12026   */\n      dup3\n        /* \"#utility.yul\":12019:12040   */\n      or\n        /* \"#utility.yul\":12011:12040   */\n      swap1\n      pop\n        /* \"#utility.yul\":11751:12046   */\n      swap3\n      swap2\n      pop\n      pop\n      jump\t// out\n        /* \"#utility.yul\":12051:13446   */\n    tag_74:\n        /* \"#utility.yul\":12168:12205   */\n      tag_329\n        /* \"#utility.yul\":12201:12204   */\n      dup3\n        /* \"#utility.yul\":12168:12205   */\n      tag_151\n      jump\t// in\n    tag_329:\n        /* \"#utility.yul\":12270:12288   */\n      0xffffffffffffffff\n        /* \"#utility.yul\":12262:12268   */\n      dup2\n        /* \"#utility.yul\":12259:12289   */\n      gt\n        /* \"#utility.yul\":12256:12312   */\n      iszero\n      tag_330\n      jumpi\n        /* \"#utility.yul\":12292:12310   */\n      tag_331\n      tag_171\n      jump\t// in\n    tag_331:\n        /* \"#utility.yul\":12256:12312   */\n    tag_330:\n        /* \"#utility.yul\":12336:12374   */\n      tag_332\n        /* \"#utility.yul\":12368:12372   */\n      dup3\n        /* \"#utility.yul\":12362:12373   */\n      sload\n        /* \"#utility.yul\":12336:12374   */\n      tag_60\n      jump\t// in\n    tag_332:\n        /* \"#utility.yul\":12421:12488   */\n      tag_333\n        /* \"#utility.yul\":12481:12487   */\n      dup3\n        /* \"#utility.yul\":12473:12479   */\n      dup3\n        /* \"#utility.yul\":12467:12471   */\n      dup6\n        /* \"#utility.yul\":12421:12488   */\n      tag_183\n      jump\t// in\n    tag_333:\n        /* \"#utility.yul\":12515:12516   */\n      0x00\n        /* \"#utility.yul\":12539:12543   */\n      0x20\n        /* \"#utility.yul\":12526:12543   */\n      swap1\n      pop\n        /* \"#utility.yul\":12571:12573   */\n      0x1f\n        /* \"#utility.yul\":12563:12569   */\n      dup4\n        /* \"#utility.yul\":12560:12574   */\n      gt\n        /* \"#utility.yul\":12588:12589   */\n      0x01\n        /* \"#utility.yul\":12583:13201   */\n      dup2\n      eq\n      tag_335\n      jumpi\n        /* \"#utility.yul\":13245:13246   */\n      0x00\n        /* \"#utility.yul\":13262:13268   */\n      dup5\n        /* \"#utility.yul\":13259:13336   */\n      iszero\n      tag_336\n      jumpi\n        /* \"#utility.yul\":13311:13320   */\n      dup3\n        /* \"#utility.yul\":13306:13309   */\n      dup8\n        /* \"#utility.yul\":13302:13321   */\n      add\n        /* \"#utility.yul\":13296:13322   */\n      mload\n        /* \"#utility.yul\":13287:13322   */\n      swap1\n      pop\n        /* \"#utility.yul\":13259:13336   */\n    tag_336:\n        /* \"#utility.yul\":13362:13429   */\n      tag_337\n        /* \"#utility.yul\":13422:13428   */\n      dup6\n        /* \"#utility.yul\":13415:13420   */\n      dup3\n        /* \"#utility.yul\":13362:13429   */\n      tag_186\n      jump\t// in\n    tag_337:\n        /* \"#utility.yul\":13356:13360   */\n      dup7\n        /* \"#utility.yul\":13349:13430   */\n      sstore\n        /* \"#utility.yul\":13218:13440   */\n      pop\n        /* \"#utility.yul\":12553:13440   */\n      jump(tag_334)\n        /* \"#utility.yul\":12583:13201   */\n    tag_335:\n        /* \"#utility.yul\":12635:12639   */\n      0x1f\n        /* \"#utility.yul\":12631:12640   */\n      not\n        /* \"#utility.yul\":12623:12629   */\n      dup5\n        /* \"#utility.yul\":12619:12641   */\n      and\n        /* \"#utility.yul\":12669:12706   */\n      tag_338\n        /* \"#utility.yul\":12701:12705   */\n      dup7\n        /* \"#utility.yul\":12669:12706   */\n      tag_172\n      jump\t// in\n    tag_338:\n        /* \"#utility.yul\":12728:12729   */\n      0x00\n        /* \"#utility.yul\":12742:12950   */\n    tag_339:\n        /* \"#utility.yul\":12756:12763   */\n      dup3\n        /* \"#utility.yul\":12753:12754   */\n      dup2\n        /* \"#utility.yul\":12750:12764   */\n      lt\n        /* \"#utility.yul\":12742:12950   */\n      iszero\n      tag_341\n      jumpi\n        /* \"#utility.yul\":12835:12844   */\n      dup5\n        /* \"#utility.yul\":12830:12833   */\n      dup10\n        /* \"#utility.yul\":12826:12845   */\n      add\n        /* \"#utility.yul\":12820:12846   */\n      mload\n        /* \"#utility.yul\":12812:12818   */\n      dup3\n        /* \"#utility.yul\":12805:12847   */\n      sstore\n        /* \"#utility.yul\":12886:12887   */\n      0x01\n        /* \"#utility.yul\":12878:12884   */\n      dup3\n        /* \"#utility.yul\":12874:12888   */\n      add\n        /* \"#utility.yul\":12864:12888   */\n      swap2\n      pop\n        /* \"#utility.yul\":12933:12935   */\n      0x20\n        /* \"#utility.yul\":12922:12931   */\n      dup6\n        /* \"#utility.yul\":12918:12936   */\n      add\n        /* \"#utility.yul\":12905:12936   */\n      swap5\n      pop\n        /* \"#utility.yul\":12779:12783   */\n      0x20\n        /* \"#utility.yul\":12776:12777   */\n      dup2\n        /* \"#utility.yul\":12772:12784   */\n      add\n        /* \"#utility.yul\":12767:12784   */\n      swap1\n      pop\n        /* \"#utility.yul\":12742:12950   */\n      jump(tag_339)\n    tag_341:\n        /* \"#utility.yul\":12978:12984   */\n      dup7\n        /* \"#utility.yul\":12969:12976   */\n      dup4\n        /* \"#utility.yul\":12966:12985   */\n      lt\n        /* \"#utility.yul\":12963:13142   */\n      iszero\n      tag_342\n      jumpi\n        /* \"#utility.yul\":13036:13045   */\n      dup5\n        /* \"#utility.yul\":13031:13034   */\n      dup10\n        /* \"#utility.yul\":13027:13046   */\n      add\n        /* \"#utility.yul\":13021:13047   */\n      mload\n        /* \"#utility.yul\":13079:13127   */\n      tag_343\n        /* \"#utility.yul\":13121:13125   */\n      0x1f\n        /* \"#utility.yul\":13113:13119   */\n      dup10\n        /* \"#utility.yul\":13109:13126   */\n      and\n        /* \"#utility.yul\":13098:13107   */\n      dup3\n        /* \"#utility.yul\":13079:13127   */\n      tag_185\n      jump\t// in\n    tag_343:\n        /* \"#utility.yul\":13071:13077   */\n      dup4\n        /* \"#utility.yul\":13064:13128   */\n      sstore\n        /* \"#utility.yul\":12986:13142   */\n      pop\n        /* \"#utility.yul\":12963:13142   */\n    tag_342:\n        /* \"#utility.yul\":13188:13189   */\n      0x01\n        /* \"#utility.yul\":13184:13185   */\n      0x02\n        /* \"#utility.yul\":13176:13182   */\n      dup9\n        /* \"#utility.yul\":13172:13186   */\n      mul\n        /* \"#utility.yul\":13168:13190   */\n      add\n        /* \"#utility.yul\":13162:13166   */\n      dup9\n        /* \"#utility.yul\":13155:13191   */\n      sstore\n        /* \"#utility.yul\":12590:13201   */\n      pop\n      pop\n      pop\n        /* \"#utility.yul\":12553:13440   */\n    tag_334:\n      pop\n        /* \"#utility.yul\":12143:13446   */\n      pop\n      pop\n      pop\n        /* \"#utility.yul\":12051:13446   */\n      pop\n      pop\n      jump\t// out\n        /* \"#utility.yul\":13452:13632   */\n    tag_187:\n        /* \"#utility.yul\":13500:13577   */\n      0x4e487b7100000000000000000000000000000000000000000000000000000000\n        /* \"#utility.yul\":13497:13498   */\n      0x00\n        /* \"#utility.yul\":13490:13578   */\n      mstore\n        /* \"#utility.yul\":13597:13601   */\n      0x11\n        /* \"#utility.yul\":13594:13595   */\n      0x04\n        /* \"#utility.yul\":13587:13602   */\n      mstore\n        /* \"#utility.yul\":13621:13625   */\n      0x24\n        /* \"#utility.yul\":13618:13619   */\n      0x00\n        /* \"#utility.yul\":13611:13626   */\n      revert\n        /* \"#utility.yul\":13638:13807   */\n    tag_76:\n        /* \"#utility.yul\":13676:13679   */\n      0x00\n        /* \"#utility.yul\":13699:13722   */\n      tag_346\n        /* \"#utility.yul\":13716:13721   */\n      dup3\n        /* \"#utility.yul\":13699:13722   */\n      tag_156\n      jump\t// in\n    tag_346:\n        /* \"#utility.yul\":13690:13722   */\n      swap2\n      pop\n        /* \"#utility.yul\":13744:13748   */\n      0x00\n        /* \"#utility.yul\":13737:13742   */\n      dup3\n        /* \"#utility.yul\":13734:13749   */\n      sub\n        /* \"#utility.yul\":13731:13772   */\n      tag_347\n      jumpi\n        /* \"#utility.yul\":13752:13770   */\n      tag_348\n      tag_187\n      jump\t// in\n    tag_348:\n        /* \"#utility.yul\":13731:13772   */\n    tag_347:\n        /* \"#utility.yul\":13799:13800   */\n      0x01\n        /* \"#utility.yul\":13792:13797   */\n      dup3\n        /* \"#utility.yul\":13788:13801   */\n      sub\n        /* \"#utility.yul\":13781:13801   */\n      swap1\n      pop\n        /* \"#utility.yul\":13638:13807   */\n      swap2\n      swap1\n      pop\n      jump\t// out\n        /* \"#utility.yul\":13813:13910   */\n    tag_188:\n        /* \"#utility.yul\":13872:13878   */\n      0x00\n        /* \"#utility.yul\":13900:13903   */\n      dup3\n        /* \"#utility.yul\":13890:13903   */\n      swap1\n      pop\n        /* \"#utility.yul\":13813:13910   */\n      swap3\n      swap2\n      pop\n      pop\n      jump\t// out\n        /* \"#utility.yul\":13916:15319   */\n    tag_95:\n        /* \"#utility.yul\":14040:14084   */\n      tag_351\n        /* \"#utility.yul\":14080:14083   */\n      dup4\n        /* \"#utility.yul\":14075:14078   */\n      dup4\n        /* \"#utility.yul\":14040:14084   */\n      tag_188\n      jump\t// in\n    tag_351:\n        /* \"#utility.yul\":14149:14167   */\n      0xffffffffffffffff\n        /* \"#utility.yul\":14141:14147   */\n      dup2\n        /* \"#utility.yul\":14138:14168   */\n      gt\n        /* \"#utility.yul\":14135:14191   */\n      iszero\n      tag_352\n      jumpi\n        /* \"#utility.yul\":14171:14189   */\n      tag_353\n      tag_171\n      jump\t// in\n    tag_353:\n        /* \"#utility.yul\":14135:14191   */\n    tag_352:\n        /* \"#utility.yul\":14215:14253   */\n      tag_354\n        /* \"#utility.yul\":14247:14251   */\n      dup3\n        /* \"#utility.yul\":14241:14252   */\n      sload\n        /* \"#utility.yul\":14215:14253   */\n      tag_60\n      jump\t// in\n    tag_354:\n        /* \"#utility.yul\":14300:14367   */\n      tag_355\n        /* \"#utility.yul\":14360:14366   */\n      dup3\n        /* \"#utility.yul\":14352:14358   */\n      dup3\n        /* \"#utility.yul\":14346:14350   */\n      dup6\n        /* \"#utility.yul\":14300:14367   */\n      tag_183\n      jump\t// in\n    tag_355:\n        /* \"#utility.yul\":14394:14395   */\n      0x00\n        /* \"#utility.yul\":14423:14425   */\n      0x1f\n        /* \"#utility.yul\":14415:14421   */\n      dup4\n        /* \"#utility.yul\":14412:14426   */\n      gt\n        /* \"#utility.yul\":14440:14441   */\n      0x01\n        /* \"#utility.yul\":14435:15067   */\n      dup2\n      eq\n      tag_357\n      jumpi\n        /* \"#utility.yul\":15111:15112   */\n      0x00\n        /* \"#utility.yul\":15128:15134   */\n      dup5\n        /* \"#utility.yul\":15125:15209   */\n      iszero\n      tag_358\n      jumpi\n        /* \"#utility.yul\":15184:15193   */\n      dup3\n        /* \"#utility.yul\":15179:15182   */\n      dup8\n        /* \"#utility.yul\":15175:15194   */\n      add\n        /* \"#utility.yul\":15162:15195   */\n      calldataload\n        /* \"#utility.yul\":15153:15195   */\n      swap1\n      pop\n        /* \"#utility.yul\":15125:15209   */\n    tag_358:\n        /* \"#utility.yul\":15235:15302   */\n      tag_359\n        /* \"#utility.yul\":15295:15301   */\n      dup6\n        /* \"#utility.yul\":15288:15293   */\n      dup3\n        /* \"#utility.yul\":15235:15302   */\n      tag_186\n      jump\t// in\n    tag_359:\n        /* \"#utility.yul\":15229:15233   */\n      dup7\n        /* \"#utility.yul\":15222:15303   */\n      sstore\n        /* \"#utility.yul\":15084:15313   */\n      pop\n        /* \"#utility.yul\":14405:15313   */\n      jump(tag_356)\n        /* \"#utility.yul\":14435:15067   */\n    tag_357:\n        /* \"#utility.yul\":14487:14491   */\n      0x1f\n        /* \"#utility.yul\":14483:14492   */\n      not\n        /* \"#utility.yul\":14475:14481   */\n      dup5\n        /* \"#utility.yul\":14471:14493   */\n      and\n        /* \"#utility.yul\":14521:14558   */\n      tag_360\n        /* \"#utility.yul\":14553:14557   */\n      dup7\n        /* \"#utility.yul\":14521:14558   */\n      tag_172\n      jump\t// in\n    tag_360:\n        /* \"#utility.yul\":14580:14581   */\n      0x00\n        /* \"#utility.yul\":14594:14809   */\n    tag_361:\n        /* \"#utility.yul\":14608:14615   */\n      dup3\n        /* \"#utility.yul\":14605:14606   */\n      dup2\n        /* \"#utility.yul\":14602:14616   */\n      lt\n        /* \"#utility.yul\":14594:14809   */\n      iszero\n      tag_363\n      jumpi\n        /* \"#utility.yul\":14694:14703   */\n      dup5\n        /* \"#utility.yul\":14689:14692   */\n      dup10\n        /* \"#utility.yul\":14685:14704   */\n      add\n        /* \"#utility.yul\":14672:14705   */\n      calldataload\n        /* \"#utility.yul\":14664:14670   */\n      dup3\n        /* \"#utility.yul\":14657:14706   */\n      sstore\n        /* \"#utility.yul\":14745:14746   */\n      0x01\n        /* \"#utility.yul\":14737:14743   */\n      dup3\n        /* \"#utility.yul\":14733:14747   */\n      add\n        /* \"#utility.yul\":14723:14747   */\n      swap2\n      pop\n        /* \"#utility.yul\":14792:14794   */\n      0x20\n        /* \"#utility.yul\":14781:14790   */\n      dup6\n        /* \"#utility.yul\":14777:14795   */\n      add\n        /* \"#utility.yul\":14764:14795   */\n      swap5\n      pop\n        /* \"#utility.yul\":14631:14635   */\n      0x20\n        /* \"#utility.yul\":14628:14629   */\n      dup2\n        /* \"#utility.yul\":14624:14636   */\n      add\n        /* \"#utility.yul\":14619:14636   */\n      swap1\n      pop\n        /* \"#utility.yul\":14594:14809   */\n      jump(tag_361)\n    tag_363:\n        /* \"#utility.yul\":14837:14843   */\n      dup7\n        /* \"#utility.yul\":14828:14835   */\n      dup4\n        /* \"#utility.yul\":14825:14844   */\n      lt\n        /* \"#utility.yul\":14822:15008   */\n      iszero\n      tag_364\n      jumpi\n        /* \"#utility.yul\":14902:14911   */\n      dup5\n        /* \"#utility.yul\":14897:14900   */\n      dup10\n        /* \"#utility.yul\":14893:14912   */\n      add\n        /* \"#utility.yul\":14880:14913   */\n      calldataload\n        /* \"#utility.yul\":14945:14993   */\n      tag_365\n        /* \"#utility.yul\":14987:14991   */\n      0x1f\n        /* \"#utility.yul\":14979:14985   */\n      dup10\n        /* \"#utility.yul\":14975:14992   */\n      and\n        /* \"#utility.yul\":14964:14973   */\n      dup3\n        /* \"#utility.yul\":14945:14993   */\n      tag_185\n      jump\t// in\n    tag_365:\n        /* \"#utility.yul\":14937:14943   */\n      dup4\n        /* \"#utility.yul\":14930:14994   */\n      sstore\n        /* \"#utility.yul\":14845:15008   */\n      pop\n        /* \"#utility.yul\":14822:15008   */\n    tag_364:\n        /* \"#utility.yul\":15054:15055   */\n      0x01\n        /* \"#utility.yul\":15050:15051   */\n      0x02\n        /* \"#utility.yul\":15042:15048   */\n      dup9\n        /* \"#utility.yul\":15038:15052   */\n      mul\n        /* \"#utility.yul\":15034:15056   */\n      add\n        /* \"#utility.yul\":15028:15032   */\n      dup9\n        /* \"#utility.yul\":15021:15057   */\n      sstore\n        /* \"#utility.yul\":14442:15067   */\n      pop\n      pop\n      pop\n        /* \"#utility.yul\":14405:15313   */\n    tag_356:\n      pop\n        /* \"#utility.yul\":14015:15319   */\n      pop\n      pop\n      pop\n        /* \"#utility.yul\":13916:15319   */\n      pop\n      pop\n      pop\n      jump\t// out\n        /* \"#utility.yul\":15325:15473   */\n    tag_189:\n        /* \"#utility.yul\":15427:15438   */\n      0x00\n        /* \"#utility.yul\":15464:15467   */\n      dup2\n        /* \"#utility.yul\":15449:15467   */\n      swap1\n      pop\n        /* \"#utility.yul\":15325:15473   */\n      swap3\n      swap2\n      pop\n      pop\n      jump\t// out\n        /* \"#utility.yul\":15503:16377   */\n    tag_190:\n        /* \"#utility.yul\":15606:15609   */\n      0x00\n        /* \"#utility.yul\":15643:15648   */\n      dup2\n        /* \"#utility.yul\":15637:15649   */\n      sload\n        /* \"#utility.yul\":15672:15708   */\n      tag_368\n        /* \"#utility.yul\":15698:15707   */\n      dup2\n        /* \"#utility.yul\":15672:15708   */\n      tag_60\n      jump\t// in\n    tag_368:\n        /* \"#utility.yul\":15724:15813   */\n      tag_369\n        /* \"#utility.yul\":15806:15812   */\n      dup2\n        /* \"#utility.yul\":15801:15804   */\n      dup7\n        /* \"#utility.yul\":15724:15813   */\n      tag_189\n      jump\t// in\n    tag_369:\n        /* \"#utility.yul\":15717:15813   */\n      swap5\n      pop\n        /* \"#utility.yul\":15844:15845   */\n      0x01\n        /* \"#utility.yul\":15833:15842   */\n      dup3\n        /* \"#utility.yul\":15829:15846   */\n      and\n        /* \"#utility.yul\":15860:15861   */\n      0x00\n        /* \"#utility.yul\":15855:16021   */\n      dup2\n      eq\n      tag_371\n      jumpi\n        /* \"#utility.yul\":16035:16036   */\n      0x01\n        /* \"#utility.yul\":16030:16371   */\n      dup2\n      eq\n      tag_372\n      jumpi\n        /* \"#utility.yul\":15822:16371   */\n      jump(tag_370)\n        /* \"#utility.yul\":15855:16021   */\n    tag_371:\n        /* \"#utility.yul\":15939:15943   */\n      0xff\n        /* \"#utility.yul\":15935:15944   */\n      not\n        /* \"#utility.yul\":15924:15933   */\n      dup4\n        /* \"#utility.yul\":15920:15945   */\n      and\n        /* \"#utility.yul\":15915:15918   */\n      dup7\n        /* \"#utility.yul\":15908:15946   */\n      mstore\n        /* \"#utility.yul\":16001:16007   */\n      dup2\n        /* \"#utility.yul\":15994:16008   */\n      iszero\n        /* \"#utility.yul\":15987:16009   */\n      iszero\n        /* \"#utility.yul\":15979:15985   */\n      dup3\n        /* \"#utility.yul\":15975:16010   */\n      mul\n        /* \"#utility.yul\":15970:15973   */\n      dup7\n        /* \"#utility.yul\":15966:16011   */\n      add\n        /* \"#utility.yul\":15959:16011   */\n      swap4\n      pop\n        /* \"#utility.yul\":15855:16021   */\n      jump(tag_370)\n        /* \"#utility.yul\":16030:16371   */\n    tag_372:\n        /* \"#utility.yul\":16097:16135   */\n      tag_373\n        /* \"#utility.yul\":16129:16134   */\n      dup6\n        /* \"#utility.yul\":16097:16135   */\n      tag_172\n      jump\t// in\n    tag_373:\n        /* \"#utility.yul\":16157:16158   */\n      0x00\n        /* \"#utility.yul\":16171:16325   */\n    tag_374:\n        /* \"#utility.yul\":16185:16191   */\n      dup4\n        /* \"#utility.yul\":16182:16183   */\n      dup2\n        /* \"#utility.yul\":16179:16192   */\n      lt\n        /* \"#utility.yul\":16171:16325   */\n      iszero\n      tag_376\n      jumpi\n        /* \"#utility.yul\":16259:16266   */\n      dup2\n        /* \"#utility.yul\":16253:16267   */\n      sload\n        /* \"#utility.yul\":16249:16250   */\n      dup2\n        /* \"#utility.yul\":16244:16247   */\n      dup10\n        /* \"#utility.yul\":16240:16251   */\n      add\n        /* \"#utility.yul\":16233:16268   */\n      mstore\n        /* \"#utility.yul\":16309:16310   */\n      0x01\n        /* \"#utility.yul\":16300:16307   */\n      dup3\n        /* \"#utility.yul\":16296:16311   */\n      add\n        /* \"#utility.yul\":16285:16311   */\n      swap2\n      pop\n        /* \"#utility.yul\":16207:16211   */\n      0x20\n        /* \"#utility.yul\":16204:16205   */\n      dup2\n        /* \"#utility.yul\":16200:16212   */\n      add\n        /* \"#utility.yul\":16195:16212   */\n      swap1\n      pop\n        /* \"#utility.yul\":16171:16325   */\n      jump(tag_374)\n    tag_376:\n        /* \"#utility.yul\":16354:16360   */\n      dup4\n        /* \"#utility.yul\":16349:16352   */\n      dup9\n        /* \"#utility.yul\":16345:16361   */\n      add\n        /* \"#utility.yul\":16338:16361   */\n      swap6\n      pop\n        /* \"#utility.yul\":16037:16371   */\n      pop\n      pop\n        /* \"#utility.yul\":15822:16371   */\n    tag_370:\n      pop\n        /* \"#utility.yul\":15610:16377   */\n      pop\n      pop\n        /* \"#utility.yul\":15503:16377   */\n      swap3\n      swap2\n      pop\n      pop\n      jump\t// out\n        /* \"#utility.yul\":16383:16652   */\n    tag_98:\n        /* \"#utility.yul\":16512:16515   */\n      0x00\n        /* \"#utility.yul\":16534:16626   */\n      tag_378\n        /* \"#utility.yul\":16622:16625   */\n      dup3\n        /* \"#utility.yul\":16613:16619   */\n      dup5\n        /* \"#utility.yul\":16534:16626   */\n      tag_190\n      jump\t// in\n    tag_378:\n        /* \"#utility.yul\":16527:16626   */\n      swap2\n      pop\n        /* \"#utility.yul\":16643:16646   */\n      dup2\n        /* \"#utility.yul\":16636:16646   */\n      swap1\n      pop\n        /* \"#utility.yul\":16383:16652   */\n      swap3\n      swap2\n      pop\n      pop\n      jump\t// out\n        /* \"#utility.yul\":16658:16892   */\n    tag_191:\n        /* \"#utility.yul\":16798:16832   */\n      0x43616c6c6572206973206e6f742020617574686f726973656420746f20656469\n        /* \"#utility.yul\":16794:16795   */\n      0x00\n        /* \"#utility.yul\":16786:16792   */\n      dup3\n        /* \"#utility.yul\":16782:16796   */\n      add\n        /* \"#utility.yul\":16775:16833   */\n      mstore\n        /* \"#utility.yul\":16867:16884   */\n      0x74207468697320646f63756d656e740000000000000000000000000000000000\n        /* \"#utility.yul\":16862:16864   */\n      0x20\n        /* \"#utility.yul\":16854:16860   */\n      dup3\n        /* \"#utility.yul\":16850:16865   */\n      add\n        /* \"#utility.yul\":16843:16885   */\n      mstore\n        /* \"#utility.yul\":16658:16892   */\n      pop\n      jump\t// out\n        /* \"#utility.yul\":16898:17264   */\n    tag_192:\n        /* \"#utility.yul\":17040:17043   */\n      0x00\n        /* \"#utility.yul\":17061:17128   */\n      tag_381\n        /* \"#utility.yul\":17125:17127   */\n      0x2f\n        /* \"#utility.yul\":17120:17123   */\n      dup4\n        /* \"#utility.yul\":17061:17128   */\n      tag_152\n      jump\t// in\n    tag_381:\n        /* \"#utility.yul\":17054:17128   */\n      swap2\n      pop\n        /* \"#utility.yul\":17137:17230   */\n      tag_382\n        /* \"#utility.yul\":17226:17229   */\n      dup3\n        /* \"#utility.yul\":17137:17230   */\n      tag_191\n      jump\t// in\n    tag_382:\n        /* \"#utility.yul\":17255:17257   */\n      0x40\n        /* \"#utility.yul\":17250:17253   */\n      dup3\n        /* \"#utility.yul\":17246:17258   */\n      add\n        /* \"#utility.yul\":17239:17258   */\n      swap1\n      pop\n        /* \"#utility.yul\":16898:17264   */\n      swap2\n      swap1\n      pop\n      jump\t// out\n        /* \"#utility.yul\":17270:17689   */\n    tag_102:\n        /* \"#utility.yul\":17436:17440   */\n      0x00\n        /* \"#utility.yul\":17474:17476   */\n      0x20\n        /* \"#utility.yul\":17463:17472   */\n      dup3\n        /* \"#utility.yul\":17459:17477   */\n      add\n        /* \"#utility.yul\":17451:17477   */\n      swap1\n      pop\n        /* \"#utility.yul\":17523:17532   */\n      dup2\n        /* \"#utility.yul\":17517:17521   */\n      dup2\n        /* \"#utility.yul\":17513:17533   */\n      sub\n        /* \"#utility.yul\":17509:17510   */\n      0x00\n        /* \"#utility.yul\":17498:17507   */\n      dup4\n        /* \"#utility.yul\":17494:17511   */\n      add\n        /* \"#utility.yul\":17487:17534   */\n      mstore\n        /* \"#utility.yul\":17551:17682   */\n      tag_384\n        /* \"#utility.yul\":17677:17681   */\n      dup2\n        /* \"#utility.yul\":17551:17682   */\n      tag_192\n      jump\t// in\n    tag_384:\n        /* \"#utility.yul\":17543:17682   */\n      swap1\n      pop\n        /* \"#utility.yul\":17270:17689   */\n      swap2\n      swap1\n      pop\n      jump\t// out\n        /* \"#utility.yul\":17695:17920   */\n    tag_193:\n        /* \"#utility.yul\":17835:17869   */\n      0x43616c6c6572206e6f7420617574686f726973656420746f2061646420646f63\n        /* \"#utility.yul\":17831:17832   */\n      0x00\n        /* \"#utility.yul\":17823:17829   */\n      dup3\n        /* \"#utility.yul\":17819:17833   */\n      add\n        /* \"#utility.yul\":17812:17870   */\n      mstore\n        /* \"#utility.yul\":17904:17912   */\n      0x756d656e74730000000000000000000000000000000000000000000000000000\n        /* \"#utility.yul\":17899:17901   */\n      0x20\n        /* \"#utility.yul\":17891:17897   */\n      dup3\n        /* \"#utility.yul\":17887:17902   */\n      add\n        /* \"#utility.yul\":17880:17913   */\n      mstore\n        /* \"#utility.yul\":17695:17920   */\n      pop\n      jump\t// out\n        /* \"#utility.yul\":17926:18292   */\n    tag_194:\n        /* \"#utility.yul\":18068:18071   */\n      0x00\n        /* \"#utility.yul\":18089:18156   */\n      tag_387\n        /* \"#utility.yul\":18153:18155   */\n      0x26\n        /* \"#utility.yul\":18148:18151   */\n      dup4\n        /* \"#utility.yul\":18089:18156   */\n      tag_152\n      jump\t// in\n    tag_387:\n        /* \"#utility.yul\":18082:18156   */\n      swap2\n      pop\n        /* \"#utility.yul\":18165:18258   */\n      tag_388\n        /* \"#utility.yul\":18254:18257   */\n      dup3\n        /* \"#utility.yul\":18165:18258   */\n      tag_193\n      jump\t// in\n    tag_388:\n        /* \"#utility.yul\":18283:18285   */\n      0x40\n        /* \"#utility.yul\":18278:18281   */\n      dup3\n        /* \"#utility.yul\":18274:18286   */\n      add\n        /* \"#utility.yul\":18267:18286   */\n      swap1\n      pop\n        /* \"#utility.yul\":17926:18292   */\n      swap2\n      swap1\n      pop\n      jump\t// out\n        /* \"#utility.yul\":18298:18717   */\n    tag_106:\n        /* \"#utility.yul\":18464:18468   */\n      0x00\n        /* \"#utility.yul\":18502:18504   */\n      0x20\n        /* \"#utility.yul\":18491:18500   */\n      dup3\n        /* \"#utility.yul\":18487:18505   */\n      add\n        /* \"#utility.yul\":18479:18505   */\n      swap1\n      pop\n        /* \"#utility.yul\":18551:18560   */\n      dup2\n        /* \"#utility.yul\":18545:18549   */\n      dup2\n        /* \"#utility.yul\":18541:18561   */\n      sub\n        /* \"#utility.yul\":18537:18538   */\n      0x00\n        /* \"#utility.yul\":18526:18535   */\n      dup4\n        /* \"#utility.yul\":18522:18539   */\n      add\n        /* \"#utility.yul\":18515:18562   */\n      mstore\n        /* \"#utility.yul\":18579:18710   */\n      tag_390\n        /* \"#utility.yul\":18705:18709   */\n      dup2\n        /* \"#utility.yul\":18579:18710   */\n      tag_194\n      jump\t// in\n    tag_390:\n        /* \"#utility.yul\":18571:18710   */\n      swap1\n      pop\n        /* \"#utility.yul\":18298:18717   */\n      swap2\n      swap1\n      pop\n      jump\t// out\n        /* \"#utility.yul\":18723:18894   */\n    tag_133:\n        /* \"#utility.yul\":18761:18764   */\n      0x00\n        /* \"#utility.yul\":18784:18807   */\n      tag_392\n        /* \"#utility.yul\":18801:18806   */\n      dup3\n        /* \"#utility.yul\":18784:18807   */\n      tag_156\n      jump\t// in\n    tag_392:\n        /* \"#utility.yul\":18775:18807   */\n      swap2\n      pop\n        /* \"#utility.yul\":18829:18835   */\n      0xffff\n        /* \"#utility.yul\":18822:18827   */\n      dup3\n        /* \"#utility.yul\":18819:18836   */\n      sub\n        /* \"#utility.yul\":18816:18859   */\n      tag_393\n      jumpi\n        /* \"#utility.yul\":18839:18857   */\n      tag_394\n      tag_187\n      jump\t// in\n    tag_394:\n        /* \"#utility.yul\":18816:18859   */\n    tag_393:\n        /* \"#utility.yul\":18886:18887   */\n      0x01\n        /* \"#utility.yul\":18879:18884   */\n      dup3\n        /* \"#utility.yul\":18875:18888   */\n      add\n        /* \"#utility.yul\":18868:18888   */\n      swap1\n      pop\n        /* \"#utility.yul\":18723:18894   */\n      swap2\n      swap1\n      pop\n      jump\t// out\n        /* \"#utility.yul\":18900:19046   */\n    tag_195:\n        /* \"#utility.yul\":18997:19003   */\n      dup3\n        /* \"#utility.yul\":18992:18995   */\n      dup2\n        /* \"#utility.yul\":18987:18990   */\n      dup4\n        /* \"#utility.yul\":18974:19004   */\n      calldatacopy\n        /* \"#utility.yul\":19038:19039   */\n      0x00\n        /* \"#utility.yul\":19029:19035   */\n      dup4\n        /* \"#utility.yul\":19024:19027   */\n      dup4\n        /* \"#utility.yul\":19020:19036   */\n      add\n        /* \"#utility.yul\":19013:19040   */\n      mstore\n        /* \"#utility.yul\":18900:19046   */\n      pop\n      pop\n      pop\n      jump\t// out\n        /* \"#utility.yul\":19076:19393   */\n    tag_196:\n        /* \"#utility.yul\":19174:19177   */\n      0x00\n        /* \"#utility.yul\":19195:19266   */\n      tag_397\n        /* \"#utility.yul\":19259:19265   */\n      dup4\n        /* \"#utility.yul\":19254:19257   */\n      dup6\n        /* \"#utility.yul\":19195:19266   */\n      tag_152\n      jump\t// in\n    tag_397:\n        /* \"#utility.yul\":19188:19266   */\n      swap4\n      pop\n        /* \"#utility.yul\":19276:19332   */\n      tag_398\n        /* \"#utility.yul\":19325:19331   */\n      dup4\n        /* \"#utility.yul\":19320:19323   */\n      dup6\n        /* \"#utility.yul\":19313:19318   */\n      dup5\n        /* \"#utility.yul\":19276:19332   */\n      tag_195\n      jump\t// in\n    tag_398:\n        /* \"#utility.yul\":19357:19386   */\n      tag_399\n        /* \"#utility.yul\":19379:19385   */\n      dup4\n        /* \"#utility.yul\":19357:19386   */\n      tag_154\n      jump\t// in\n    tag_399:\n        /* \"#utility.yul\":19352:19355   */\n      dup5\n        /* \"#utility.yul\":19348:19387   */\n      add\n        /* \"#utility.yul\":19341:19387   */\n      swap1\n      pop\n        /* \"#utility.yul\":19076:19393   */\n      swap4\n      swap3\n      pop\n      pop\n      pop\n      jump\t// out\n        /* \"#utility.yul\":19399:19732   */\n    tag_135:\n        /* \"#utility.yul\":19522:19526   */\n      0x00\n        /* \"#utility.yul\":19560:19562   */\n      0x20\n        /* \"#utility.yul\":19549:19558   */\n      dup3\n        /* \"#utility.yul\":19545:19563   */\n      add\n        /* \"#utility.yul\":19537:19563   */\n      swap1\n      pop\n        /* \"#utility.yul\":19609:19618   */\n      dup2\n        /* \"#utility.yul\":19603:19607   */\n      dup2\n        /* \"#utility.yul\":19599:19619   */\n      sub\n        /* \"#utility.yul\":19595:19596   */\n      0x00\n        /* \"#utility.yul\":19584:19593   */\n      dup4\n        /* \"#utility.yul\":19580:19597   */\n      add\n        /* \"#utility.yul\":19573:19620   */\n      mstore\n        /* \"#utility.yul\":19637:19725   */\n      tag_401\n        /* \"#utility.yul\":19720:19724   */\n      dup2\n        /* \"#utility.yul\":19711:19717   */\n      dup5\n        /* \"#utility.yul\":19703:19709   */\n      dup7\n        /* \"#utility.yul\":19637:19725   */\n      tag_196\n      jump\t// in\n    tag_401:\n        /* \"#utility.yul\":19629:19725   */\n      swap1\n      pop\n        /* \"#utility.yul\":19399:19732   */\n      swap4\n      swap3\n      pop\n      pop\n      pop\n      jump\t// out\n\n    auxdata: 0xa264697066735822122036a8e129faef82b6aed1c6ee64db48fe013cd6d1a5e2b15d12388c238c783b7a64736f6c63430008120033\n}\n",
				"bytecode": {
					"linkReferences": {},
					"object": "608060405260008060006101000a81548161ffff021916908361ffff16021790555060008060026101000a81548161ffff021916908361ffff16021790555034801561004a57600080fd5b5033600060046101000a81548173ffffffffffffffffffffffffffffffffffffffff021916908373ffffffffffffffffffffffffffffffffffffffff160217905550611a678061009b6000396000f3fe608060405234801561001057600080fd5b50600436106100a95760003560e01c806363f0bfce1161007157806363f0bfce146101675780636ed73e48146101835780638da5cb5b146101a1578063a6f9dae1146101bf578063bf3ccf48146101db578063cf3457bf146101f7576100a9565b806305c8dc19146100ae57806324ac89cb146100de57806343f6f548146100fa5780634cf00d3f14610118578063505cd5d01461014b575b600080fd5b6100c860048036038101906100c39190610fce565b610213565b6040516100d5919061108b565b60405180910390f35b6100f860048036038101906100f39190610fce565b6102e7565b005b6101026104a9565b60405161010f91906110ca565b60405180910390f35b610132600480360381019061012d919061111b565b6104bd565b6040516101429493929190611161565b60405180910390f35b61016560048036038101906101609190611219565b610644565b005b610181600480360381019061017c919061111b565b61077e565b005b61018b610981565b60405161019891906110ca565b60405180910390f35b6101a9610993565b6040516101b69190611288565b60405180910390f35b6101d960048036038101906101d49190610fce565b6109b9565b005b6101f560048036038101906101f091906112a3565b610acc565b005b610211600480360381019061020c9190611219565b610db0565b005b6060600260008373ffffffffffffffffffffffffffffffffffffffff1673ffffffffffffffffffffffffffffffffffffffff168152602001908152602001600020600101805461026290611332565b80601f016020809104026020016040519081016040528092919081815260200182805461028e90611332565b80156102db5780601f106102b0576101008083540402835291602001916102db565b820191906000526020600020905b8154815290600101906020018083116102be57829003601f168201915b50505050509050919050565b600060049054906101000a900473ffffffffffffffffffffffffffffffffffffffff1673ffffffffffffffffffffffffffffffffffffffff163373ffffffffffffffffffffffffffffffffffffffff1614610377576040517f08c379a000000000000000000000000000000000000000000000000000000000815260040161036e906113af565b60405180910390fd5b6000600260008373ffffffffffffffffffffffffffffffffffffffff1673ffffffffffffffffffffffffffffffffffffffff16815260200190815260200160002060000154036103ca576103c96113cf565b5b6000600260008373ffffffffffffffffffffffffffffffffffffffff1673ffffffffffffffffffffffffffffffffffffffff1681526020019081526020016000206000018190555060405180602001604052806000815250600260008373ffffffffffffffffffffffffffffffffffffffff1673ffffffffffffffffffffffffffffffffffffffff168152602001908152602001600020600101908161047091906115d9565b5060008081819054906101000a900461ffff1661048c906116da565b91906101000a81548161ffff021916908361ffff16021790555050565b600060029054906101000a900461ffff1681565b60008060608060016000868152602001908152602001600020600001546001600087815260200190815260200160002060010154600160008881526020019081526020016000206002016001600089815260200190815260200160002060030181805461052990611332565b80601f016020809104026020016040519081016040528092919081815260200182805461055590611332565b80156105a25780601f10610577576101008083540402835291602001916105a2565b820191906000526020600020905b81548152906001019060200180831161058557829003601f168201915b505050505091508080546105b590611332565b80601f01602080910402602001604051908101604052809291908181526020018280546105e190611332565b801561062e5780601f106106035761010080835404028352916020019161062e565b820191906000526020600020905b81548152906001019060200180831161061157829003601f168201915b5050505050905093509350935093509193509193565b600060049054906101000a900473ffffffffffffffffffffffffffffffffffffffff1673ffffffffffffffffffffffffffffffffffffffff163373ffffffffffffffffffffffffffffffffffffffff16146106d4576040517f08c379a00000000000000000000000000000000000000000000000000000000081526004016106cb906113af565b60405180910390fd5b6000600260008573ffffffffffffffffffffffffffffffffffffffff1673ffffffffffffffffffffffffffffffffffffffff1681526020019081526020016000206000015403610727576107266113cf565b5b8181600260008673ffffffffffffffffffffffffffffffffffffffff1673ffffffffffffffffffffffffffffffffffffffff168152602001908152602001600020600101918261077892919061170e565b50505050565b80600160008281526020019081526020016000206002016040516020016107a5919061186c565b60405160208183030381529060405280519060200120600260003373ffffffffffffffffffffffffffffffffffffffff1673ffffffffffffffffffffffffffffffffffffffff16815260200190815260200160002060010160405160200161080d919061186c565b6040516020818303038152906040528051906020012014610863576040517f08c379a000000000000000000000000000000000000000000000000000000000815260040161085a906118f5565b60405180910390fd5b6000600260003373ffffffffffffffffffffffffffffffffffffffff1673ffffffffffffffffffffffffffffffffffffffff16815260200190815260200160002060000154036108e8576040517f08c379a00000000000000000000000000000000000000000000000000000000081526004016108df90611987565b60405180910390fd5b600060016000848152602001908152602001600020600101540361090f5761090e6113cf565b5b60006001600084815260200190815260200160002060000181905550600060016000848152602001908152602001600020600101819055506000600281819054906101000a900461ffff16610963906116da565b91906101000a81548161ffff021916908361ffff1602179055505050565b60008054906101000a900461ffff1681565b600060049054906101000a900473ffffffffffffffffffffffffffffffffffffffff1681565b600060049054906101000a900473ffffffffffffffffffffffffffffffffffffffff1673ffffffffffffffffffffffffffffffffffffffff163373ffffffffffffffffffffffffffffffffffffffff1614610a49576040517f08c379a0000000000000000000000000000000000000000000000000000000008152600401610a40906113af565b60405180910390fd5b80600073ffffffffffffffffffffffffffffffffffffffff168173ffffffffffffffffffffffffffffffffffffffff1603610a8757610a866113cf565b5b81600060046101000a81548173ffffffffffffffffffffffffffffffffffffffff021916908373ffffffffffffffffffffffffffffffffffffffff1602179055505050565b6000600260003373ffffffffffffffffffffffffffffffffffffffff1673ffffffffffffffffffffffffffffffffffffffff1681526020019081526020016000206000015403610b51576040517f08c379a0000000000000000000000000000000000000000000000000000000008152600401610b4890611987565b60405180910390fd5b60006001600085815260200190815260200160002060000154148015610b8d575060006001600085815260200190815260200160002060010154145b610b9a57610b996113cf565b5b60006040518060800160405280438152602001428152602001600260003373ffffffffffffffffffffffffffffffffffffffff1673ffffffffffffffffffffffffffffffffffffffff1681526020019081526020016000206001018054610c0090611332565b80601f0160208091040260200160405190810160405280929190818152602001828054610c2c90611332565b8015610c795780601f10610c4e57610100808354040283529160200191610c79565b820191906000526020600020905b815481529060010190602001808311610c5c57829003601f168201915b5050505050815260200184848080601f016020809104026020016040519081016040528093929190818152602001838380828437600081840152601f19601f820116905080830192505050505050508152509050806001600086815260200190815260200160002060008201518160000155602082015181600101556040820151816002019081610d0a91906115d9565b506060820151816003019081610d2091906115d9565b509050506000600281819054906101000a900461ffff16610d40906119a7565b91906101000a81548161ffff021916908361ffff1602179055503373ffffffffffffffffffffffffffffffffffffffff167f331f916dac8170a5e3a8a5c82c9de7950bb6cadfb098253c080cb72851b264708484604051610da2929190611a0d565b60405180910390a250505050565b600060049054906101000a900473ffffffffffffffffffffffffffffffffffffffff1673ffffffffffffffffffffffffffffffffffffffff163373ffffffffffffffffffffffffffffffffffffffff1614610e40576040517f08c379a0000000000000000000000000000000000000000000000000000000008152600401610e37906113af565b60405180910390fd5b6000600260008573ffffffffffffffffffffffffffffffffffffffff1673ffffffffffffffffffffffffffffffffffffffff1681526020019081526020016000206000015414610e9357610e926113cf565b5b43600260008573ffffffffffffffffffffffffffffffffffffffff1673ffffffffffffffffffffffffffffffffffffffff168152602001908152602001600020600001819055508181600260008673ffffffffffffffffffffffffffffffffffffffff1673ffffffffffffffffffffffffffffffffffffffff1681526020019081526020016000206001019182610f2b92919061170e565b5060008081819054906101000a900461ffff16610f47906119a7565b91906101000a81548161ffff021916908361ffff160217905550505050565b600080fd5b600080fd5b600073ffffffffffffffffffffffffffffffffffffffff82169050919050565b6000610f9b82610f70565b9050919050565b610fab81610f90565b8114610fb657600080fd5b50565b600081359050610fc881610fa2565b92915050565b600060208284031215610fe457610fe3610f66565b5b6000610ff284828501610fb9565b91505092915050565b600081519050919050565b600082825260208201905092915050565b60005b8381101561103557808201518184015260208101905061101a565b60008484015250505050565b6000601f19601f8301169050919050565b600061105d82610ffb565b6110678185611006565b9350611077818560208601611017565b61108081611041565b840191505092915050565b600060208201905081810360008301526110a58184611052565b905092915050565b600061ffff82169050919050565b6110c4816110ad565b82525050565b60006020820190506110df60008301846110bb565b92915050565b6000819050919050565b6110f8816110e5565b811461110357600080fd5b50565b600081359050611115816110ef565b92915050565b60006020828403121561113157611130610f66565b5b600061113f84828501611106565b91505092915050565b6000819050919050565b61115b81611148565b82525050565b60006080820190506111766000830187611152565b6111836020830186611152565b81810360408301526111958185611052565b905081810360608301526111a98184611052565b905095945050505050565b600080fd5b600080fd5b600080fd5b60008083601f8401126111d9576111d86111b4565b5b8235905067ffffffffffffffff8111156111f6576111f56111b9565b5b602083019150836001820283011115611212576112116111be565b5b9250929050565b60008060006040848603121561123257611231610f66565b5b600061124086828701610fb9565b935050602084013567ffffffffffffffff81111561126157611260610f6b565b5b61126d868287016111c3565b92509250509250925092565b61128281610f90565b82525050565b600060208201905061129d6000830184611279565b92915050565b6000806000604084860312156112bc576112bb610f66565b5b60006112ca86828701611106565b935050602084013567ffffffffffffffff8111156112eb576112ea610f6b565b5b6112f7868287016111c3565b92509250509250925092565b7f4e487b7100000000000000000000000000000000000000000000000000000000600052602260045260246000fd5b6000600282049050600182168061134a57607f821691505b60208210810361135d5761135c611303565b5b50919050565b7f43616c6c6572206973206e6f7420746865206f776e6572000000000000000000600082015250565b6000611399601783611006565b91506113a482611363565b602082019050919050565b600060208201905081810360008301526113c88161138c565b9050919050565b7f4e487b7100000000000000000000000000000000000000000000000000000000600052600160045260246000fd5b7f4e487b7100000000000000000000000000000000000000000000000000000000600052604160045260246000fd5b60008190508160005260206000209050919050565b60006020601f8301049050919050565b600082821b905092915050565b60006008830261148f7fffffffffffffffffffffffffffffffffffffffffffffffffffffffffffffffff82611452565b6114998683611452565b95508019841693508086168417925050509392505050565b6000819050919050565b60006114d66114d16114cc84611148565b6114b1565b611148565b9050919050565b6000819050919050565b6114f0836114bb565b6115046114fc826114dd565b84845461145f565b825550505050565b600090565b61151961150c565b6115248184846114e7565b505050565b5b818110156115485761153d600082611511565b60018101905061152a565b5050565b601f82111561158d5761155e8161142d565b61156784611442565b81016020851015611576578190505b61158a61158285611442565b830182611529565b50505b505050565b600082821c905092915050565b60006115b060001984600802611592565b1980831691505092915050565b60006115c9838361159f565b9150826002028217905092915050565b6115e282610ffb565b67ffffffffffffffff8111156115fb576115fa6113fe565b5b6116058254611332565b61161082828561154c565b600060209050601f8311600181146116435760008415611631578287015190505b61163b85826115bd565b8655506116a3565b601f1984166116518661142d565b60005b8281101561167957848901518255600182019150602085019450602081019050611654565b868310156116965784890151611692601f89168261159f565b8355505b6001600288020188555050505b505050505050565b7f4e487b7100000000000000000000000000000000000000000000000000000000600052601160045260246000fd5b60006116e5826110ad565b9150600082036116f8576116f76116ab565b5b600182039050919050565b600082905092915050565b6117188383611703565b67ffffffffffffffff811115611731576117306113fe565b5b61173b8254611332565b61174682828561154c565b6000601f8311600181146117755760008415611763578287013590505b61176d85826115bd565b8655506117d5565b601f1984166117838661142d565b60005b828110156117ab57848901358255600182019150602085019450602081019050611786565b868310156117c857848901356117c4601f89168261159f565b8355505b6001600288020188555050505b50505050505050565b600081905092915050565b600081546117f681611332565b61180081866117de565b9450600182166000811461181b576001811461183057611863565b60ff1983168652811515820286019350611863565b6118398561142d565b60005b8381101561185b5781548189015260018201915060208101905061183c565b838801955050505b50505092915050565b600061187882846117e9565b915081905092915050565b7f43616c6c6572206973206e6f742020617574686f726973656420746f2065646960008201527f74207468697320646f63756d656e740000000000000000000000000000000000602082015250565b60006118df602f83611006565b91506118ea82611883565b604082019050919050565b6000602082019050818103600083015261190e816118d2565b9050919050565b7f43616c6c6572206e6f7420617574686f726973656420746f2061646420646f6360008201527f756d656e74730000000000000000000000000000000000000000000000000000602082015250565b6000611971602683611006565b915061197c82611915565b604082019050919050565b600060208201905081810360008301526119a081611964565b9050919050565b60006119b2826110ad565b915061ffff82036119c6576119c56116ab565b5b600182019050919050565b82818337600083830152505050565b60006119ec8385611006565b93506119f98385846119d1565b611a0283611041565b840190509392505050565b60006020820190508181036000830152611a288184866119e0565b9050939250505056fea264697066735822122036a8e129faef82b6aed1c6ee64db48fe013cd6d1a5e2b15d12388c238c783b7a64736f6c63430008120033",
					"opcodes": "PUSH1 0x80 PUSH1 0x40 MSTORE PUSH1 0x0 DUP1 PUSH1 0x0 PUSH2 0x100 EXP DUP2 SLOAD DUP2 PUSH2 0xFFFF MUL NOT AND SWAP1 DUP4 PUSH2 0xFFFF AND MUL OR SWAP1 SSTORE POP PUSH1 0x0 DUP1 PUSH1 0x2 PUSH2 0x100 EXP DUP2 SLOAD DUP2 PUSH2 0xFFFF MUL NOT AND SWAP1 DUP4 PUSH2 0xFFFF AND MUL OR SWAP1 SSTORE POP CALLVALUE DUP1 ISZERO PUSH2 0x4A JUMPI PUSH1 0x0 DUP1 REVERT JUMPDEST POP CALLER PUSH1 0x0 PUSH1 0x4 PUSH2 0x100 EXP DUP2 SLOAD DUP2 PUSH20 0xFFFFFFFFFFFFFFFFFFFFFFFFFFFFFFFFFFFFFFFF MUL NOT AND SWAP1 DUP4 PUSH20 0xFFFFFFFFFFFFFFFFFFFFFFFFFFFFFFFFFFFFFFFF AND MUL OR SWAP1 SSTORE POP PUSH2 0x1A67 DUP1 PUSH2 0x9B PUSH1 0x0 CODECOPY PUSH1 0x0 RETURN INVALID PUSH1 0x80 PUSH1 0x40 MSTORE CALLVALUE DUP1 ISZERO PUSH2 0x10 JUMPI PUSH1 0x0 DUP1 REVERT JUMPDEST POP PUSH1 0x4 CALLDATASIZE LT PUSH2 0xA9 JUMPI PUSH1 0x0 CALLDATALOAD PUSH1 0xE0 SHR DUP1 PUSH4 0x63F0BFCE GT PUSH2 0x71 JUMPI DUP1 PUSH4 0x63F0BFCE EQ PUSH2 0x167 JUMPI DUP1 PUSH4 0x6ED73E48 EQ PUSH2 0x183 JUMPI DUP1 PUSH4 0x8DA5CB5B EQ PUSH2 0x1A1 JUMPI DUP1 PUSH4 0xA6F9DAE1 EQ PUSH2 0x1BF JUMPI DUP1 PUSH4 0xBF3CCF48 EQ PUSH2 0x1DB JUMPI DUP1 PUSH4 0xCF3457BF EQ PUSH2 0x1F7 JUMPI PUSH2 0xA9 JUMP JUMPDEST DUP1 PUSH4 0x5C8DC19 EQ PUSH2 0xAE JUMPI DUP1 PUSH4 0x24AC89CB EQ PUSH2 0xDE JUMPI DUP1 PUSH4 0x43F6F548 EQ PUSH2 0xFA JUMPI DUP1 PUSH4 0x4CF00D3F EQ PUSH2 0x118 JUMPI DUP1 PUSH4 0x505CD5D0 EQ PUSH2 0x14B JUMPI JUMPDEST PUSH1 0x0 DUP1 REVERT JUMPDEST PUSH2 0xC8 PUSH1 0x4 DUP1 CALLDATASIZE SUB DUP2 ADD SWAP1 PUSH2 0xC3 SWAP2 SWAP1 PUSH2 0xFCE JUMP JUMPDEST PUSH2 0x213 JUMP JUMPDEST PUSH1 0x40 MLOAD PUSH2 0xD5 SWAP2 SWAP1 PUSH2 0x108B JUMP JUMPDEST PUSH1 0x40 MLOAD DUP1 SWAP2 SUB SWAP1 RETURN JUMPDEST PUSH2 0xF8 PUSH1 0x4 DUP1 CALLDATASIZE SUB DUP2 ADD SWAP1 PUSH2 0xF3 SWAP2 SWAP1 PUSH2 0xFCE JUMP JUMPDEST PUSH2 0x2E7 JUMP JUMPDEST STOP JUMPDEST PUSH2 0x102 PUSH2 0x4A9 JUMP JUMPDEST PUSH1 0x40 MLOAD PUSH2 0x10F SWAP2 SWAP1 PUSH2 0x10CA JUMP JUMPDEST PUSH1 0x40 MLOAD DUP1 SWAP2 SUB SWAP1 RETURN JUMPDEST PUSH2 0x132 PUSH1 0x4 DUP1 CALLDATASIZE SUB DUP2 ADD SWAP1 PUSH2 0x12D SWAP2 SWAP1 PUSH2 0x111B JUMP JUMPDEST PUSH2 0x4BD JUMP JUMPDEST PUSH1 0x40 MLOAD PUSH2 0x142 SWAP5 SWAP4 SWAP3 SWAP2 SWAP1 PUSH2 0x1161 JUMP JUMPDEST PUSH1 0x40 MLOAD DUP1 SWAP2 SUB SWAP1 RETURN JUMPDEST PUSH2 0x165 PUSH1 0x4 DUP1 CALLDATASIZE SUB DUP2 ADD SWAP1 PUSH2 0x160 SWAP2 SWAP1 PUSH2 0x1219 JUMP JUMPDEST PUSH2 0x644 JUMP JUMPDEST STOP JUMPDEST PUSH2 0x181 PUSH1 0x4 DUP1 CALLDATASIZE SUB DUP2 ADD SWAP1 PUSH2 0x17C SWAP2 SWAP1 PUSH2 0x111B JUMP JUMPDEST PUSH2 0x77E JUMP JUMPDEST STOP JUMPDEST PUSH2 0x18B PUSH2 0x981 JUMP JUMPDEST PUSH1 0x40 MLOAD PUSH2 0x198 SWAP2 SWAP1 PUSH2 0x10CA JUMP JUMPDEST PUSH1 0x40 MLOAD DUP1 SWAP2 SUB SWAP1 RETURN JUMPDEST PUSH2 0x1A9 PUSH2 0x993 JUMP JUMPDEST PUSH1 0x40 MLOAD PUSH2 0x1B6 SWAP2 SWAP1 PUSH2 0x1288 JUMP JUMPDEST PUSH1 0x40 MLOAD DUP1 SWAP2 SUB SWAP1 RETURN JUMPDEST PUSH2 0x1D9 PUSH1 0x4 DUP1 CALLDATASIZE SUB DUP2 ADD SWAP1 PUSH2 0x1D4 SWAP2 SWAP1 PUSH2 0xFCE JUMP JUMPDEST PUSH2 0x9B9 JUMP JUMPDEST STOP JUMPDEST PUSH2 0x1F5 PUSH1 0x4 DUP1 CALLDATASIZE SUB DUP2 ADD SWAP1 PUSH2 0x1F0 SWAP2 SWAP1 PUSH2 0x12A3 JUMP JUMPDEST PUSH2 0xACC JUMP JUMPDEST STOP JUMPDEST PUSH2 0x211 PUSH1 0x4 DUP1 CALLDATASIZE SUB DUP2 ADD SWAP1 PUSH2 0x20C SWAP2 SWAP1 PUSH2 0x1219 JUMP JUMPDEST PUSH2 0xDB0 JUMP JUMPDEST STOP JUMPDEST PUSH1 0x60 PUSH1 0x2 PUSH1 0x0 DUP4 PUSH20 0xFFFFFFFFFFFFFFFFFFFFFFFFFFFFFFFFFFFFFFFF AND PUSH20 0xFFFFFFFFFFFFFFFFFFFFFFFFFFFFFFFFFFFFFFFF AND DUP2 MSTORE PUSH1 0x20 ADD SWAP1 DUP2 MSTORE PUSH1 0x20 ADD PUSH1 0x0 KECCAK256 PUSH1 0x1 ADD DUP1 SLOAD PUSH2 0x262 SWAP1 PUSH2 0x1332 JUMP JUMPDEST DUP1 PUSH1 0x1F ADD PUSH1 0x20 DUP1 SWAP2 DIV MUL PUSH1 0x20 ADD PUSH1 0x40 MLOAD SWAP1 DUP2 ADD PUSH1 0x40 MSTORE DUP1 SWAP3 SWAP2 SWAP1 DUP2 DUP2 MSTORE PUSH1 0x20 ADD DUP3 DUP1 SLOAD PUSH2 0x28E SWAP1 PUSH2 0x1332 JUMP JUMPDEST DUP1 ISZERO PUSH2 0x2DB JUMPI DUP1 PUSH1 0x1F LT PUSH2 0x2B0 JUMPI PUSH2 0x100 DUP1 DUP4 SLOAD DIV MUL DUP4 MSTORE SWAP2 PUSH1 0x20 ADD SWAP2 PUSH2 0x2DB JUMP JUMPDEST DUP3 ADD SWAP2 SWAP1 PUSH1 0x0 MSTORE PUSH1 0x20 PUSH1 0x0 KECCAK256 SWAP1 JUMPDEST DUP2 SLOAD DUP2 MSTORE SWAP1 PUSH1 0x1 ADD SWAP1 PUSH1 0x20 ADD DUP1 DUP4 GT PUSH2 0x2BE JUMPI DUP3 SWAP1 SUB PUSH1 0x1F AND DUP3 ADD SWAP2 JUMPDEST POP POP POP POP POP SWAP1 POP SWAP2 SWAP1 POP JUMP JUMPDEST PUSH1 0x0 PUSH1 0x4 SWAP1 SLOAD SWAP1 PUSH2 0x100 EXP SWAP1 DIV PUSH20 0xFFFFFFFFFFFFFFFFFFFFFFFFFFFFFFFFFFFFFFFF AND PUSH20 0xFFFFFFFFFFFFFFFFFFFFFFFFFFFFFFFFFFFFFFFF AND CALLER PUSH20 0xFFFFFFFFFFFFFFFFFFFFFFFFFFFFFFFFFFFFFFFF AND EQ PUSH2 0x377 JUMPI PUSH1 0x40 MLOAD PUSH32 0x8C379A000000000000000000000000000000000000000000000000000000000 DUP2 MSTORE PUSH1 0x4 ADD PUSH2 0x36E SWAP1 PUSH2 0x13AF JUMP JUMPDEST PUSH1 0x40 MLOAD DUP1 SWAP2 SUB SWAP1 REVERT JUMPDEST PUSH1 0x0 PUSH1 0x2 PUSH1 0x0 DUP4 PUSH20 0xFFFFFFFFFFFFFFFFFFFFFFFFFFFFFFFFFFFFFFFF AND PUSH20 0xFFFFFFFFFFFFFFFFFFFFFFFFFFFFFFFFFFFFFFFF AND DUP2 MSTORE PUSH1 0x20 ADD SWAP1 DUP2 MSTORE PUSH1 0x20 ADD PUSH1 0x0 KECCAK256 PUSH1 0x0 ADD SLOAD SUB PUSH2 0x3CA JUMPI PUSH2 0x3C9 PUSH2 0x13CF JUMP JUMPDEST JUMPDEST PUSH1 0x0 PUSH1 0x2 PUSH1 0x0 DUP4 PUSH20 0xFFFFFFFFFFFFFFFFFFFFFFFFFFFFFFFFFFFFFFFF AND PUSH20 0xFFFFFFFFFFFFFFFFFFFFFFFFFFFFFFFFFFFFFFFF AND DUP2 MSTORE PUSH1 0x20 ADD SWAP1 DUP2 MSTORE PUSH1 0x20 ADD PUSH1 0x0 KECCAK256 PUSH1 0x0 ADD DUP2 SWAP1 SSTORE POP PUSH1 0x40 MLOAD DUP1 PUSH1 0x20 ADD PUSH1 0x40 MSTORE DUP1 PUSH1 0x0 DUP2 MSTORE POP PUSH1 0x2 PUSH1 0x0 DUP4 PUSH20 0xFFFFFFFFFFFFFFFFFFFFFFFFFFFFFFFFFFFFFFFF AND PUSH20 0xFFFFFFFFFFFFFFFFFFFFFFFFFFFFFFFFFFFFFFFF AND DUP2 MSTORE PUSH1 0x20 ADD SWAP1 DUP2 MSTORE PUSH1 0x20 ADD PUSH1 0x0 KECCAK256 PUSH1 0x1 ADD SWAP1 DUP2 PUSH2 0x470 SWAP2 SWAP1 PUSH2 0x15D9 JUMP JUMPDEST POP PUSH1 0x0 DUP1 DUP2 DUP2 SWAP1 SLOAD SWAP1 PUSH2 0x100 EXP SWAP1 DIV PUSH2 0xFFFF AND PUSH2 0x48C SWAP1 PUSH2 0x16DA JUMP JUMPDEST SWAP2 SWAP1 PUSH2 0x100 EXP DUP2 SLOAD DUP2 PUSH2 0xFFFF MUL NOT AND SWAP1 DUP4 PUSH2 0xFFFF AND MUL OR SWAP1 SSTORE POP POP JUMP JUMPDEST PUSH1 0x0 PUSH1 0x2 SWAP1 SLOAD SWAP1 PUSH2 0x100 EXP SWAP1 DIV PUSH2 0xFFFF AND DUP2 JUMP JUMPDEST PUSH1 0x0 DUP1 PUSH1 0x60 DUP1 PUSH1 0x1 PUSH1 0x0 DUP7 DUP2 MSTORE PUSH1 0x20 ADD SWAP1 DUP2 MSTORE PUSH1 0x20 ADD PUSH1 0x0 KECCAK256 PUSH1 0x0 ADD SLOAD PUSH1 0x1 PUSH1 0x0 DUP8 DUP2 MSTORE PUSH1 0x20 ADD SWAP1 DUP2 MSTORE PUSH1 0x20 ADD PUSH1 0x0 KECCAK256 PUSH1 0x1 ADD SLOAD PUSH1 0x1 PUSH1 0x0 DUP9 DUP2 MSTORE PUSH1 0x20 ADD SWAP1 DUP2 MSTORE PUSH1 0x20 ADD PUSH1 0x0 KECCAK256 PUSH1 0x2 ADD PUSH1 0x1 PUSH1 0x0 DUP10 DUP2 MSTORE PUSH1 0x20 ADD SWAP1 DUP2 MSTORE PUSH1 0x20 ADD PUSH1 0x0 KECCAK256 PUSH1 0x3 ADD DUP2 DUP1 SLOAD PUSH2 0x529 SWAP1 PUSH2 0x1332 JUMP JUMPDEST DUP1 PUSH1 0x1F ADD PUSH1 0x20 DUP1 SWAP2 DIV MUL PUSH1 0x20 ADD PUSH1 0x40 MLOAD SWAP1 DUP2 ADD PUSH1 0x40 MSTORE DUP1 SWAP3 SWAP2 SWAP1 DUP2 DUP2 MSTORE PUSH1 0x20 ADD DUP3 DUP1 SLOAD PUSH2 0x555 SWAP1 PUSH2 0x1332 JUMP JUMPDEST DUP1 ISZERO PUSH2 0x5A2 JUMPI DUP1 PUSH1 0x1F LT PUSH2 0x577 JUMPI PUSH2 0x100 DUP1 DUP4 SLOAD DIV MUL DUP4 MSTORE SWAP2 PUSH1 0x20 ADD SWAP2 PUSH2 0x5A2 JUMP JUMPDEST DUP3 ADD SWAP2 SWAP1 PUSH1 0x0 MSTORE PUSH1 0x20 PUSH1 0x0 KECCAK256 SWAP1 JUMPDEST DUP2 SLOAD DUP2 MSTORE SWAP1 PUSH1 0x1 ADD SWAP1 PUSH1 0x20 ADD DUP1 DUP4 GT PUSH2 0x585 JUMPI DUP3 SWAP1 SUB PUSH1 0x1F AND DUP3 ADD SWAP2 JUMPDEST POP POP POP POP POP SWAP2 POP DUP1 DUP1 SLOAD PUSH2 0x5B5 SWAP1 PUSH2 0x1332 JUMP JUMPDEST DUP1 PUSH1 0x1F ADD PUSH1 0x20 DUP1 SWAP2 DIV MUL PUSH1 0x20 ADD PUSH1 0x40 MLOAD SWAP1 DUP2 ADD PUSH1 0x40 MSTORE DUP1 SWAP3 SWAP2 SWAP1 DUP2 DUP2 MSTORE PUSH1 0x20 ADD DUP3 DUP1 SLOAD PUSH2 0x5E1 SWAP1 PUSH2 0x1332 JUMP JUMPDEST DUP1 ISZERO PUSH2 0x62E JUMPI DUP1 PUSH1 0x1F LT PUSH2 0x603 JUMPI PUSH2 0x100 DUP1 DUP4 SLOAD DIV MUL DUP4 MSTORE SWAP2 PUSH1 0x20 ADD SWAP2 PUSH2 0x62E JUMP JUMPDEST DUP3 ADD SWAP2 SWAP1 PUSH1 0x0 MSTORE PUSH1 0x20 PUSH1 0x0 KECCAK256 SWAP1 JUMPDEST DUP2 SLOAD DUP2 MSTORE SWAP1 PUSH1 0x1 ADD SWAP1 PUSH1 0x20 ADD DUP1 DUP4 GT PUSH2 0x611 JUMPI DUP3 SWAP1 SUB PUSH1 0x1F AND DUP3 ADD SWAP2 JUMPDEST POP POP POP POP POP SWAP1 POP SWAP4 POP SWAP4 POP SWAP4 POP SWAP4 POP SWAP2 SWAP4 POP SWAP2 SWAP4 JUMP JUMPDEST PUSH1 0x0 PUSH1 0x4 SWAP1 SLOAD SWAP1 PUSH2 0x100 EXP SWAP1 DIV PUSH20 0xFFFFFFFFFFFFFFFFFFFFFFFFFFFFFFFFFFFFFFFF AND PUSH20 0xFFFFFFFFFFFFFFFFFFFFFFFFFFFFFFFFFFFFFFFF AND CALLER PUSH20 0xFFFFFFFFFFFFFFFFFFFFFFFFFFFFFFFFFFFFFFFF AND EQ PUSH2 0x6D4 JUMPI PUSH1 0x40 MLOAD PUSH32 0x8C379A000000000000000000000000000000000000000000000000000000000 DUP2 MSTORE PUSH1 0x4 ADD PUSH2 0x6CB SWAP1 PUSH2 0x13AF JUMP JUMPDEST PUSH1 0x40 MLOAD DUP1 SWAP2 SUB SWAP1 REVERT JUMPDEST PUSH1 0x0 PUSH1 0x2 PUSH1 0x0 DUP6 PUSH20 0xFFFFFFFFFFFFFFFFFFFFFFFFFFFFFFFFFFFFFFFF AND PUSH20 0xFFFFFFFFFFFFFFFFFFFFFFFFFFFFFFFFFFFFFFFF AND DUP2 MSTORE PUSH1 0x20 ADD SWAP1 DUP2 MSTORE PUSH1 0x20 ADD PUSH1 0x0 KECCAK256 PUSH1 0x0 ADD SLOAD SUB PUSH2 0x727 JUMPI PUSH2 0x726 PUSH2 0x13CF JUMP JUMPDEST JUMPDEST DUP2 DUP2 PUSH1 0x2 PUSH1 0x0 DUP7 PUSH20 0xFFFFFFFFFFFFFFFFFFFFFFFFFFFFFFFFFFFFFFFF AND PUSH20 0xFFFFFFFFFFFFFFFFFFFFFFFFFFFFFFFFFFFFFFFF AND DUP2 MSTORE PUSH1 0x20 ADD SWAP1 DUP2 MSTORE PUSH1 0x20 ADD PUSH1 0x0 KECCAK256 PUSH1 0x1 ADD SWAP2 DUP3 PUSH2 0x778 SWAP3 SWAP2 SWAP1 PUSH2 0x170E JUMP JUMPDEST POP POP POP POP JUMP JUMPDEST DUP1 PUSH1 0x1 PUSH1 0x0 DUP3 DUP2 MSTORE PUSH1 0x20 ADD SWAP1 DUP2 MSTORE PUSH1 0x20 ADD PUSH1 0x0 KECCAK256 PUSH1 0x2 ADD PUSH1 0x40 MLOAD PUSH1 0x20 ADD PUSH2 0x7A5 SWAP2 SWAP1 PUSH2 0x186C JUMP JUMPDEST PUSH1 0x40 MLOAD PUSH1 0x20 DUP2 DUP4 SUB SUB DUP2 MSTORE SWAP1 PUSH1 0x40 MSTORE DUP1 MLOAD SWAP1 PUSH1 0x20 ADD KECCAK256 PUSH1 0x2 PUSH1 0x0 CALLER PUSH20 0xFFFFFFFFFFFFFFFFFFFFFFFFFFFFFFFFFFFFFFFF AND PUSH20 0xFFFFFFFFFFFFFFFFFFFFFFFFFFFFFFFFFFFFFFFF AND DUP2 MSTORE PUSH1 0x20 ADD SWAP1 DUP2 MSTORE PUSH1 0x20 ADD PUSH1 0x0 KECCAK256 PUSH1 0x1 ADD PUSH1 0x40 MLOAD PUSH1 0x20 ADD PUSH2 0x80D SWAP2 SWAP1 PUSH2 0x186C JUMP JUMPDEST PUSH1 0x40 MLOAD PUSH1 0x20 DUP2 DUP4 SUB SUB DUP2 MSTORE SWAP1 PUSH1 0x40 MSTORE DUP1 MLOAD SWAP1 PUSH1 0x20 ADD KECCAK256 EQ PUSH2 0x863 JUMPI PUSH1 0x40 MLOAD PUSH32 0x8C379A000000000000000000000000000000000000000000000000000000000 DUP2 MSTORE PUSH1 0x4 ADD PUSH2 0x85A SWAP1 PUSH2 0x18F5 JUMP JUMPDEST PUSH1 0x40 MLOAD DUP1 SWAP2 SUB SWAP1 REVERT JUMPDEST PUSH1 0x0 PUSH1 0x2 PUSH1 0x0 CALLER PUSH20 0xFFFFFFFFFFFFFFFFFFFFFFFFFFFFFFFFFFFFFFFF AND PUSH20 0xFFFFFFFFFFFFFFFFFFFFFFFFFFFFFFFFFFFFFFFF AND DUP2 MSTORE PUSH1 0x20 ADD SWAP1 DUP2 MSTORE PUSH1 0x20 ADD PUSH1 0x0 KECCAK256 PUSH1 0x0 ADD SLOAD SUB PUSH2 0x8E8 JUMPI PUSH1 0x40 MLOAD PUSH32 0x8C379A000000000000000000000000000000000000000000000000000000000 DUP2 MSTORE PUSH1 0x4 ADD PUSH2 0x8DF SWAP1 PUSH2 0x1987 JUMP JUMPDEST PUSH1 0x40 MLOAD DUP1 SWAP2 SUB SWAP1 REVERT JUMPDEST PUSH1 0x0 PUSH1 0x1 PUSH1 0x0 DUP5 DUP2 MSTORE PUSH1 0x20 ADD SWAP1 DUP2 MSTORE PUSH1 0x20 ADD PUSH1 0x0 KECCAK256 PUSH1 0x1 ADD SLOAD SUB PUSH2 0x90F JUMPI PUSH2 0x90E PUSH2 0x13CF JUMP JUMPDEST JUMPDEST PUSH1 0x0 PUSH1 0x1 PUSH1 0x0 DUP5 DUP2 MSTORE PUSH1 0x20 ADD SWAP1 DUP2 MSTORE PUSH1 0x20 ADD PUSH1 0x0 KECCAK256 PUSH1 0x0 ADD DUP2 SWAP1 SSTORE POP PUSH1 0x0 PUSH1 0x1 PUSH1 0x0 DUP5 DUP2 MSTORE PUSH1 0x20 ADD SWAP1 DUP2 MSTORE PUSH1 0x20 ADD PUSH1 0x0 KECCAK256 PUSH1 0x1 ADD DUP2 SWAP1 SSTORE POP PUSH1 0x0 PUSH1 0x2 DUP2 DUP2 SWAP1 SLOAD SWAP1 PUSH2 0x100 EXP SWAP1 DIV PUSH2 0xFFFF AND PUSH2 0x963 SWAP1 PUSH2 0x16DA JUMP JUMPDEST SWAP2 SWAP1 PUSH2 0x100 EXP DUP2 SLOAD DUP2 PUSH2 0xFFFF MUL NOT AND SWAP1 DUP4 PUSH2 0xFFFF AND MUL OR SWAP1 SSTORE POP POP POP JUMP JUMPDEST PUSH1 0x0 DUP1 SLOAD SWAP1 PUSH2 0x100 EXP SWAP1 DIV PUSH2 0xFFFF AND DUP2 JUMP JUMPDEST PUSH1 0x0 PUSH1 0x4 SWAP1 SLOAD SWAP1 PUSH2 0x100 EXP SWAP1 DIV PUSH20 0xFFFFFFFFFFFFFFFFFFFFFFFFFFFFFFFFFFFFFFFF AND DUP2 JUMP JUMPDEST PUSH1 0x0 PUSH1 0x4 SWAP1 SLOAD SWAP1 PUSH2 0x100 EXP SWAP1 DIV PUSH20 0xFFFFFFFFFFFFFFFFFFFFFFFFFFFFFFFFFFFFFFFF AND PUSH20 0xFFFFFFFFFFFFFFFFFFFFFFFFFFFFFFFFFFFFFFFF AND CALLER PUSH20 0xFFFFFFFFFFFFFFFFFFFFFFFFFFFFFFFFFFFFFFFF AND EQ PUSH2 0xA49 JUMPI PUSH1 0x40 MLOAD PUSH32 0x8C379A000000000000000000000000000000000000000000000000000000000 DUP2 MSTORE PUSH1 0x4 ADD PUSH2 0xA40 SWAP1 PUSH2 0x13AF JUMP JUMPDEST PUSH1 0x40 MLOAD DUP1 SWAP2 SUB SWAP1 REVERT JUMPDEST DUP1 PUSH1 0x0 PUSH20 0xFFFFFFFFFFFFFFFFFFFFFFFFFFFFFFFFFFFFFFFF AND DUP2 PUSH20 0xFFFFFFFFFFFFFFFFFFFFFFFFFFFFFFFFFFFFFFFF AND SUB PUSH2 0xA87 JUMPI PUSH2 0xA86 PUSH2 0x13CF JUMP JUMPDEST JUMPDEST DUP2 PUSH1 0x0 PUSH1 0x4 PUSH2 0x100 EXP DUP2 SLOAD DUP2 PUSH20 0xFFFFFFFFFFFFFFFFFFFFFFFFFFFFFFFFFFFFFFFF MUL NOT AND SWAP1 DUP4 PUSH20 0xFFFFFFFFFFFFFFFFFFFFFFFFFFFFFFFFFFFFFFFF AND MUL OR SWAP1 SSTORE POP POP POP JUMP JUMPDEST PUSH1 0x0 PUSH1 0x2 PUSH1 0x0 CALLER PUSH20 0xFFFFFFFFFFFFFFFFFFFFFFFFFFFFFFFFFFFFFFFF AND PUSH20 0xFFFFFFFFFFFFFFFFFFFFFFFFFFFFFFFFFFFFFFFF AND DUP2 MSTORE PUSH1 0x20 ADD SWAP1 DUP2 MSTORE PUSH1 0x20 ADD PUSH1 0x0 KECCAK256 PUSH1 0x0 ADD SLOAD SUB PUSH2 0xB51 JUMPI PUSH1 0x40 MLOAD PUSH32 0x8C379A000000000000000000000000000000000000000000000000000000000 DUP2 MSTORE PUSH1 0x4 ADD PUSH2 0xB48 SWAP1 PUSH2 0x1987 JUMP JUMPDEST PUSH1 0x40 MLOAD DUP1 SWAP2 SUB SWAP1 REVERT JUMPDEST PUSH1 0x0 PUSH1 0x1 PUSH1 0x0 DUP6 DUP2 MSTORE PUSH1 0x20 ADD SWAP1 DUP2 MSTORE PUSH1 0x20 ADD PUSH1 0x0 KECCAK256 PUSH1 0x0 ADD SLOAD EQ DUP1 ISZERO PUSH2 0xB8D JUMPI POP PUSH1 0x0 PUSH1 0x1 PUSH1 0x0 DUP6 DUP2 MSTORE PUSH1 0x20 ADD SWAP1 DUP2 MSTORE PUSH1 0x20 ADD PUSH1 0x0 KECCAK256 PUSH1 0x1 ADD SLOAD EQ JUMPDEST PUSH2 0xB9A JUMPI PUSH2 0xB99 PUSH2 0x13CF JUMP JUMPDEST JUMPDEST PUSH1 0x0 PUSH1 0x40 MLOAD DUP1 PUSH1 0x80 ADD PUSH1 0x40 MSTORE DUP1 NUMBER DUP2 MSTORE PUSH1 0x20 ADD TIMESTAMP DUP2 MSTORE PUSH1 0x20 ADD PUSH1 0x2 PUSH1 0x0 CALLER PUSH20 0xFFFFFFFFFFFFFFFFFFFFFFFFFFFFFFFFFFFFFFFF AND PUSH20 0xFFFFFFFFFFFFFFFFFFFFFFFFFFFFFFFFFFFFFFFF AND DUP2 MSTORE PUSH1 0x20 ADD SWAP1 DUP2 MSTORE PUSH1 0x20 ADD PUSH1 0x0 KECCAK256 PUSH1 0x1 ADD DUP1 SLOAD PUSH2 0xC00 SWAP1 PUSH2 0x1332 JUMP JUMPDEST DUP1 PUSH1 0x1F ADD PUSH1 0x20 DUP1 SWAP2 DIV MUL PUSH1 0x20 ADD PUSH1 0x40 MLOAD SWAP1 DUP2 ADD PUSH1 0x40 MSTORE DUP1 SWAP3 SWAP2 SWAP1 DUP2 DUP2 MSTORE PUSH1 0x20 ADD DUP3 DUP1 SLOAD PUSH2 0xC2C SWAP1 PUSH2 0x1332 JUMP JUMPDEST DUP1 ISZERO PUSH2 0xC79 JUMPI DUP1 PUSH1 0x1F LT PUSH2 0xC4E JUMPI PUSH2 0x100 DUP1 DUP4 SLOAD DIV MUL DUP4 MSTORE SWAP2 PUSH1 0x20 ADD SWAP2 PUSH2 0xC79 JUMP JUMPDEST DUP3 ADD SWAP2 SWAP1 PUSH1 0x0 MSTORE PUSH1 0x20 PUSH1 0x0 KECCAK256 SWAP1 JUMPDEST DUP2 SLOAD DUP2 MSTORE SWAP1 PUSH1 0x1 ADD SWAP1 PUSH1 0x20 ADD DUP1 DUP4 GT PUSH2 0xC5C JUMPI DUP3 SWAP1 SUB PUSH1 0x1F AND DUP3 ADD SWAP2 JUMPDEST POP POP POP POP POP DUP2 MSTORE PUSH1 0x20 ADD DUP5 DUP5 DUP1 DUP1 PUSH1 0x1F ADD PUSH1 0x20 DUP1 SWAP2 DIV MUL PUSH1 0x20 ADD PUSH1 0x40 MLOAD SWAP1 DUP2 ADD PUSH1 0x40 MSTORE DUP1 SWAP4 SWAP3 SWAP2 SWAP1 DUP2 DUP2 MSTORE PUSH1 0x20 ADD DUP4 DUP4 DUP1 DUP3 DUP5 CALLDATACOPY PUSH1 0x0 DUP2 DUP5 ADD MSTORE PUSH1 0x1F NOT PUSH1 0x1F DUP3 ADD AND SWAP1 POP DUP1 DUP4 ADD SWAP3 POP POP POP POP POP POP POP DUP2 MSTORE POP SWAP1 POP DUP1 PUSH1 0x1 PUSH1 0x0 DUP7 DUP2 MSTORE PUSH1 0x20 ADD SWAP1 DUP2 MSTORE PUSH1 0x20 ADD PUSH1 0x0 KECCAK256 PUSH1 0x0 DUP3 ADD MLOAD DUP2 PUSH1 0x0 ADD SSTORE PUSH1 0x20 DUP3 ADD MLOAD DUP2 PUSH1 0x1 ADD SSTORE PUSH1 0x40 DUP3 ADD MLOAD DUP2 PUSH1 0x2 ADD SWAP1 DUP2 PUSH2 0xD0A SWAP2 SWAP1 PUSH2 0x15D9 JUMP JUMPDEST POP PUSH1 0x60 DUP3 ADD MLOAD DUP2 PUSH1 0x3 ADD SWAP1 DUP2 PUSH2 0xD20 SWAP2 SWAP1 PUSH2 0x15D9 JUMP JUMPDEST POP SWAP1 POP POP PUSH1 0x0 PUSH1 0x2 DUP2 DUP2 SWAP1 SLOAD SWAP1 PUSH2 0x100 EXP SWAP1 DIV PUSH2 0xFFFF AND PUSH2 0xD40 SWAP1 PUSH2 0x19A7 JUMP JUMPDEST SWAP2 SWAP1 PUSH2 0x100 EXP DUP2 SLOAD DUP2 PUSH2 0xFFFF MUL NOT AND SWAP1 DUP4 PUSH2 0xFFFF AND MUL OR SWAP1 SSTORE POP CALLER PUSH20 0xFFFFFFFFFFFFFFFFFFFFFFFFFFFFFFFFFFFFFFFF AND PUSH32 0x331F916DAC8170A5E3A8A5C82C9DE7950BB6CADFB098253C080CB72851B26470 DUP5 DUP5 PUSH1 0x40 MLOAD PUSH2 0xDA2 SWAP3 SWAP2 SWAP1 PUSH2 0x1A0D JUMP JUMPDEST PUSH1 0x40 MLOAD DUP1 SWAP2 SUB SWAP1 LOG2 POP POP POP POP JUMP JUMPDEST PUSH1 0x0 PUSH1 0x4 SWAP1 SLOAD SWAP1 PUSH2 0x100 EXP SWAP1 DIV PUSH20 0xFFFFFFFFFFFFFFFFFFFFFFFFFFFFFFFFFFFFFFFF AND PUSH20 0xFFFFFFFFFFFFFFFFFFFFFFFFFFFFFFFFFFFFFFFF AND CALLER PUSH20 0xFFFFFFFFFFFFFFFFFFFFFFFFFFFFFFFFFFFFFFFF AND EQ PUSH2 0xE40 JUMPI PUSH1 0x40 MLOAD PUSH32 0x8C379A000000000000000000000000000000000000000000000000000000000 DUP2 MSTORE PUSH1 0x4 ADD PUSH2 0xE37 SWAP1 PUSH2 0x13AF JUMP JUMPDEST PUSH1 0x40 MLOAD DUP1 SWAP2 SUB SWAP1 REVERT JUMPDEST PUSH1 0x0 PUSH1 0x2 PUSH1 0x0 DUP6 PUSH20 0xFFFFFFFFFFFFFFFFFFFFFFFFFFFFFFFFFFFFFFFF AND PUSH20 0xFFFFFFFFFFFFFFFFFFFFFFFFFFFFFFFFFFFFFFFF AND DUP2 MSTORE PUSH1 0x20 ADD SWAP1 DUP2 MSTORE PUSH1 0x20 ADD PUSH1 0x0 KECCAK256 PUSH1 0x0 ADD SLOAD EQ PUSH2 0xE93 JUMPI PUSH2 0xE92 PUSH2 0x13CF JUMP JUMPDEST JUMPDEST NUMBER PUSH1 0x2 PUSH1 0x0 DUP6 PUSH20 0xFFFFFFFFFFFFFFFFFFFFFFFFFFFFFFFFFFFFFFFF AND PUSH20 0xFFFFFFFFFFFFFFFFFFFFFFFFFFFFFFFFFFFFFFFF AND DUP2 MSTORE PUSH1 0x20 ADD SWAP1 DUP2 MSTORE PUSH1 0x20 ADD PUSH1 0x0 KECCAK256 PUSH1 0x0 ADD DUP2 SWAP1 SSTORE POP DUP2 DUP2 PUSH1 0x2 PUSH1 0x0 DUP7 PUSH20 0xFFFFFFFFFFFFFFFFFFFFFFFFFFFFFFFFFFFFFFFF AND PUSH20 0xFFFFFFFFFFFFFFFFFFFFFFFFFFFFFFFFFFFFFFFF AND DUP2 MSTORE PUSH1 0x20 ADD SWAP1 DUP2 MSTORE PUSH1 0x20 ADD PUSH1 0x0 KECCAK256 PUSH1 0x1 ADD SWAP2 DUP3 PUSH2 0xF2B SWAP3 SWAP2 SWAP1 PUSH2 0x170E JUMP JUMPDEST POP PUSH1 0x0 DUP1 DUP2 DUP2 SWAP1 SLOAD SWAP1 PUSH2 0x100 EXP SWAP1 DIV PUSH2 0xFFFF AND PUSH2 0xF47 SWAP1 PUSH2 0x19A7 JUMP JUMPDEST SWAP2 SWAP1 PUSH2 0x100 EXP DUP2 SLOAD DUP2 PUSH2 0xFFFF MUL NOT AND SWAP1 DUP4 PUSH2 0xFFFF AND MUL OR SWAP1 SSTORE POP POP POP POP JUMP JUMPDEST PUSH1 0x0 DUP1 REVERT JUMPDEST PUSH1 0x0 DUP1 REVERT JUMPDEST PUSH1 0x0 PUSH20 0xFFFFFFFFFFFFFFFFFFFFFFFFFFFFFFFFFFFFFFFF DUP3 AND SWAP1 POP SWAP2 SWAP1 POP JUMP JUMPDEST PUSH1 0x0 PUSH2 0xF9B DUP3 PUSH2 0xF70 JUMP JUMPDEST SWAP1 POP SWAP2 SWAP1 POP JUMP JUMPDEST PUSH2 0xFAB DUP2 PUSH2 0xF90 JUMP JUMPDEST DUP2 EQ PUSH2 0xFB6 JUMPI PUSH1 0x0 DUP1 REVERT JUMPDEST POP JUMP JUMPDEST PUSH1 0x0 DUP2 CALLDATALOAD SWAP1 POP PUSH2 0xFC8 DUP2 PUSH2 0xFA2 JUMP JUMPDEST SWAP3 SWAP2 POP POP JUMP JUMPDEST PUSH1 0x0 PUSH1 0x20 DUP3 DUP5 SUB SLT ISZERO PUSH2 0xFE4 JUMPI PUSH2 0xFE3 PUSH2 0xF66 JUMP JUMPDEST JUMPDEST PUSH1 0x0 PUSH2 0xFF2 DUP5 DUP3 DUP6 ADD PUSH2 0xFB9 JUMP JUMPDEST SWAP2 POP POP SWAP3 SWAP2 POP POP JUMP JUMPDEST PUSH1 0x0 DUP2 MLOAD SWAP1 POP SWAP2 SWAP1 POP JUMP JUMPDEST PUSH1 0x0 DUP3 DUP3 MSTORE PUSH1 0x20 DUP3 ADD SWAP1 POP SWAP3 SWAP2 POP POP JUMP JUMPDEST PUSH1 0x0 JUMPDEST DUP4 DUP2 LT ISZERO PUSH2 0x1035 JUMPI DUP1 DUP3 ADD MLOAD DUP2 DUP5 ADD MSTORE PUSH1 0x20 DUP2 ADD SWAP1 POP PUSH2 0x101A JUMP JUMPDEST PUSH1 0x0 DUP5 DUP5 ADD MSTORE POP POP POP POP JUMP JUMPDEST PUSH1 0x0 PUSH1 0x1F NOT PUSH1 0x1F DUP4 ADD AND SWAP1 POP SWAP2 SWAP1 POP JUMP JUMPDEST PUSH1 0x0 PUSH2 0x105D DUP3 PUSH2 0xFFB JUMP JUMPDEST PUSH2 0x1067 DUP2 DUP6 PUSH2 0x1006 JUMP JUMPDEST SWAP4 POP PUSH2 0x1077 DUP2 DUP6 PUSH1 0x20 DUP7 ADD PUSH2 0x1017 JUMP JUMPDEST PUSH2 0x1080 DUP2 PUSH2 0x1041 JUMP JUMPDEST DUP5 ADD SWAP2 POP POP SWAP3 SWAP2 POP POP JUMP JUMPDEST PUSH1 0x0 PUSH1 0x20 DUP3 ADD SWAP1 POP DUP2 DUP2 SUB PUSH1 0x0 DUP4 ADD MSTORE PUSH2 0x10A5 DUP2 DUP5 PUSH2 0x1052 JUMP JUMPDEST SWAP1 POP SWAP3 SWAP2 POP POP JUMP JUMPDEST PUSH1 0x0 PUSH2 0xFFFF DUP3 AND SWAP1 POP SWAP2 SWAP1 POP JUMP JUMPDEST PUSH2 0x10C4 DUP2 PUSH2 0x10AD JUMP JUMPDEST DUP3 MSTORE POP POP JUMP JUMPDEST PUSH1 0x0 PUSH1 0x20 DUP3 ADD SWAP1 POP PUSH2 0x10DF PUSH1 0x0 DUP4 ADD DUP5 PUSH2 0x10BB JUMP JUMPDEST SWAP3 SWAP2 POP POP JUMP JUMPDEST PUSH1 0x0 DUP2 SWAP1 POP SWAP2 SWAP1 POP JUMP JUMPDEST PUSH2 0x10F8 DUP2 PUSH2 0x10E5 JUMP JUMPDEST DUP2 EQ PUSH2 0x1103 JUMPI PUSH1 0x0 DUP1 REVERT JUMPDEST POP JUMP JUMPDEST PUSH1 0x0 DUP2 CALLDATALOAD SWAP1 POP PUSH2 0x1115 DUP2 PUSH2 0x10EF JUMP JUMPDEST SWAP3 SWAP2 POP POP JUMP JUMPDEST PUSH1 0x0 PUSH1 0x20 DUP3 DUP5 SUB SLT ISZERO PUSH2 0x1131 JUMPI PUSH2 0x1130 PUSH2 0xF66 JUMP JUMPDEST JUMPDEST PUSH1 0x0 PUSH2 0x113F DUP5 DUP3 DUP6 ADD PUSH2 0x1106 JUMP JUMPDEST SWAP2 POP POP SWAP3 SWAP2 POP POP JUMP JUMPDEST PUSH1 0x0 DUP2 SWAP1 POP SWAP2 SWAP1 POP JUMP JUMPDEST PUSH2 0x115B DUP2 PUSH2 0x1148 JUMP JUMPDEST DUP3 MSTORE POP POP JUMP JUMPDEST PUSH1 0x0 PUSH1 0x80 DUP3 ADD SWAP1 POP PUSH2 0x1176 PUSH1 0x0 DUP4 ADD DUP8 PUSH2 0x1152 JUMP JUMPDEST PUSH2 0x1183 PUSH1 0x20 DUP4 ADD DUP7 PUSH2 0x1152 JUMP JUMPDEST DUP2 DUP2 SUB PUSH1 0x40 DUP4 ADD MSTORE PUSH2 0x1195 DUP2 DUP6 PUSH2 0x1052 JUMP JUMPDEST SWAP1 POP DUP2 DUP2 SUB PUSH1 0x60 DUP4 ADD MSTORE PUSH2 0x11A9 DUP2 DUP5 PUSH2 0x1052 JUMP JUMPDEST SWAP1 POP SWAP6 SWAP5 POP POP POP POP POP JUMP JUMPDEST PUSH1 0x0 DUP1 REVERT JUMPDEST PUSH1 0x0 DUP1 REVERT JUMPDEST PUSH1 0x0 DUP1 REVERT JUMPDEST PUSH1 0x0 DUP1 DUP4 PUSH1 0x1F DUP5 ADD SLT PUSH2 0x11D9 JUMPI PUSH2 0x11D8 PUSH2 0x11B4 JUMP JUMPDEST JUMPDEST DUP3 CALLDATALOAD SWAP1 POP PUSH8 0xFFFFFFFFFFFFFFFF DUP2 GT ISZERO PUSH2 0x11F6 JUMPI PUSH2 0x11F5 PUSH2 0x11B9 JUMP JUMPDEST JUMPDEST PUSH1 0x20 DUP4 ADD SWAP2 POP DUP4 PUSH1 0x1 DUP3 MUL DUP4 ADD GT ISZERO PUSH2 0x1212 JUMPI PUSH2 0x1211 PUSH2 0x11BE JUMP JUMPDEST JUMPDEST SWAP3 POP SWAP3 SWAP1 POP JUMP JUMPDEST PUSH1 0x0 DUP1 PUSH1 0x0 PUSH1 0x40 DUP5 DUP7 SUB SLT ISZERO PUSH2 0x1232 JUMPI PUSH2 0x1231 PUSH2 0xF66 JUMP JUMPDEST JUMPDEST PUSH1 0x0 PUSH2 0x1240 DUP7 DUP3 DUP8 ADD PUSH2 0xFB9 JUMP JUMPDEST SWAP4 POP POP PUSH1 0x20 DUP5 ADD CALLDATALOAD PUSH8 0xFFFFFFFFFFFFFFFF DUP2 GT ISZERO PUSH2 0x1261 JUMPI PUSH2 0x1260 PUSH2 0xF6B JUMP JUMPDEST JUMPDEST PUSH2 0x126D DUP7 DUP3 DUP8 ADD PUSH2 0x11C3 JUMP JUMPDEST SWAP3 POP SWAP3 POP POP SWAP3 POP SWAP3 POP SWAP3 JUMP JUMPDEST PUSH2 0x1282 DUP2 PUSH2 0xF90 JUMP JUMPDEST DUP3 MSTORE POP POP JUMP JUMPDEST PUSH1 0x0 PUSH1 0x20 DUP3 ADD SWAP1 POP PUSH2 0x129D PUSH1 0x0 DUP4 ADD DUP5 PUSH2 0x1279 JUMP JUMPDEST SWAP3 SWAP2 POP POP JUMP JUMPDEST PUSH1 0x0 DUP1 PUSH1 0x0 PUSH1 0x40 DUP5 DUP7 SUB SLT ISZERO PUSH2 0x12BC JUMPI PUSH2 0x12BB PUSH2 0xF66 JUMP JUMPDEST JUMPDEST PUSH1 0x0 PUSH2 0x12CA DUP7 DUP3 DUP8 ADD PUSH2 0x1106 JUMP JUMPDEST SWAP4 POP POP PUSH1 0x20 DUP5 ADD CALLDATALOAD PUSH8 0xFFFFFFFFFFFFFFFF DUP2 GT ISZERO PUSH2 0x12EB JUMPI PUSH2 0x12EA PUSH2 0xF6B JUMP JUMPDEST JUMPDEST PUSH2 0x12F7 DUP7 DUP3 DUP8 ADD PUSH2 0x11C3 JUMP JUMPDEST SWAP3 POP SWAP3 POP POP SWAP3 POP SWAP3 POP SWAP3 JUMP JUMPDEST PUSH32 0x4E487B7100000000000000000000000000000000000000000000000000000000 PUSH1 0x0 MSTORE PUSH1 0x22 PUSH1 0x4 MSTORE PUSH1 0x24 PUSH1 0x0 REVERT JUMPDEST PUSH1 0x0 PUSH1 0x2 DUP3 DIV SWAP1 POP PUSH1 0x1 DUP3 AND DUP1 PUSH2 0x134A JUMPI PUSH1 0x7F DUP3 AND SWAP2 POP JUMPDEST PUSH1 0x20 DUP3 LT DUP2 SUB PUSH2 0x135D JUMPI PUSH2 0x135C PUSH2 0x1303 JUMP JUMPDEST JUMPDEST POP SWAP2 SWAP1 POP JUMP JUMPDEST PUSH32 0x43616C6C6572206973206E6F7420746865206F776E6572000000000000000000 PUSH1 0x0 DUP3 ADD MSTORE POP JUMP JUMPDEST PUSH1 0x0 PUSH2 0x1399 PUSH1 0x17 DUP4 PUSH2 0x1006 JUMP JUMPDEST SWAP2 POP PUSH2 0x13A4 DUP3 PUSH2 0x1363 JUMP JUMPDEST PUSH1 0x20 DUP3 ADD SWAP1 POP SWAP2 SWAP1 POP JUMP JUMPDEST PUSH1 0x0 PUSH1 0x20 DUP3 ADD SWAP1 POP DUP2 DUP2 SUB PUSH1 0x0 DUP4 ADD MSTORE PUSH2 0x13C8 DUP2 PUSH2 0x138C JUMP JUMPDEST SWAP1 POP SWAP2 SWAP1 POP JUMP JUMPDEST PUSH32 0x4E487B7100000000000000000000000000000000000000000000000000000000 PUSH1 0x0 MSTORE PUSH1 0x1 PUSH1 0x4 MSTORE PUSH1 0x24 PUSH1 0x0 REVERT JUMPDEST PUSH32 0x4E487B7100000000000000000000000000000000000000000000000000000000 PUSH1 0x0 MSTORE PUSH1 0x41 PUSH1 0x4 MSTORE PUSH1 0x24 PUSH1 0x0 REVERT JUMPDEST PUSH1 0x0 DUP2 SWAP1 POP DUP2 PUSH1 0x0 MSTORE PUSH1 0x20 PUSH1 0x0 KECCAK256 SWAP1 POP SWAP2 SWAP1 POP JUMP JUMPDEST PUSH1 0x0 PUSH1 0x20 PUSH1 0x1F DUP4 ADD DIV SWAP1 POP SWAP2 SWAP1 POP JUMP JUMPDEST PUSH1 0x0 DUP3 DUP3 SHL SWAP1 POP SWAP3 SWAP2 POP POP JUMP JUMPDEST PUSH1 0x0 PUSH1 0x8 DUP4 MUL PUSH2 0x148F PUSH32 0xFFFFFFFFFFFFFFFFFFFFFFFFFFFFFFFFFFFFFFFFFFFFFFFFFFFFFFFFFFFFFFFF DUP3 PUSH2 0x1452 JUMP JUMPDEST PUSH2 0x1499 DUP7 DUP4 PUSH2 0x1452 JUMP JUMPDEST SWAP6 POP DUP1 NOT DUP5 AND SWAP4 POP DUP1 DUP7 AND DUP5 OR SWAP3 POP POP POP SWAP4 SWAP3 POP POP POP JUMP JUMPDEST PUSH1 0x0 DUP2 SWAP1 POP SWAP2 SWAP1 POP JUMP JUMPDEST PUSH1 0x0 PUSH2 0x14D6 PUSH2 0x14D1 PUSH2 0x14CC DUP5 PUSH2 0x1148 JUMP JUMPDEST PUSH2 0x14B1 JUMP JUMPDEST PUSH2 0x1148 JUMP JUMPDEST SWAP1 POP SWAP2 SWAP1 POP JUMP JUMPDEST PUSH1 0x0 DUP2 SWAP1 POP SWAP2 SWAP1 POP JUMP JUMPDEST PUSH2 0x14F0 DUP4 PUSH2 0x14BB JUMP JUMPDEST PUSH2 0x1504 PUSH2 0x14FC DUP3 PUSH2 0x14DD JUMP JUMPDEST DUP5 DUP5 SLOAD PUSH2 0x145F JUMP JUMPDEST DUP3 SSTORE POP POP POP POP JUMP JUMPDEST PUSH1 0x0 SWAP1 JUMP JUMPDEST PUSH2 0x1519 PUSH2 0x150C JUMP JUMPDEST PUSH2 0x1524 DUP2 DUP5 DUP5 PUSH2 0x14E7 JUMP JUMPDEST POP POP POP JUMP JUMPDEST JUMPDEST DUP2 DUP2 LT ISZERO PUSH2 0x1548 JUMPI PUSH2 0x153D PUSH1 0x0 DUP3 PUSH2 0x1511 JUMP JUMPDEST PUSH1 0x1 DUP2 ADD SWAP1 POP PUSH2 0x152A JUMP JUMPDEST POP POP JUMP JUMPDEST PUSH1 0x1F DUP3 GT ISZERO PUSH2 0x158D JUMPI PUSH2 0x155E DUP2 PUSH2 0x142D JUMP JUMPDEST PUSH2 0x1567 DUP5 PUSH2 0x1442 JUMP JUMPDEST DUP2 ADD PUSH1 0x20 DUP6 LT ISZERO PUSH2 0x1576 JUMPI DUP2 SWAP1 POP JUMPDEST PUSH2 0x158A PUSH2 0x1582 DUP6 PUSH2 0x1442 JUMP JUMPDEST DUP4 ADD DUP3 PUSH2 0x1529 JUMP JUMPDEST POP POP JUMPDEST POP POP POP JUMP JUMPDEST PUSH1 0x0 DUP3 DUP3 SHR SWAP1 POP SWAP3 SWAP2 POP POP JUMP JUMPDEST PUSH1 0x0 PUSH2 0x15B0 PUSH1 0x0 NOT DUP5 PUSH1 0x8 MUL PUSH2 0x1592 JUMP JUMPDEST NOT DUP1 DUP4 AND SWAP2 POP POP SWAP3 SWAP2 POP POP JUMP JUMPDEST PUSH1 0x0 PUSH2 0x15C9 DUP4 DUP4 PUSH2 0x159F JUMP JUMPDEST SWAP2 POP DUP3 PUSH1 0x2 MUL DUP3 OR SWAP1 POP SWAP3 SWAP2 POP POP JUMP JUMPDEST PUSH2 0x15E2 DUP3 PUSH2 0xFFB JUMP JUMPDEST PUSH8 0xFFFFFFFFFFFFFFFF DUP2 GT ISZERO PUSH2 0x15FB JUMPI PUSH2 0x15FA PUSH2 0x13FE JUMP JUMPDEST JUMPDEST PUSH2 0x1605 DUP3 SLOAD PUSH2 0x1332 JUMP JUMPDEST PUSH2 0x1610 DUP3 DUP3 DUP6 PUSH2 0x154C JUMP JUMPDEST PUSH1 0x0 PUSH1 0x20 SWAP1 POP PUSH1 0x1F DUP4 GT PUSH1 0x1 DUP2 EQ PUSH2 0x1643 JUMPI PUSH1 0x0 DUP5 ISZERO PUSH2 0x1631 JUMPI DUP3 DUP8 ADD MLOAD SWAP1 POP JUMPDEST PUSH2 0x163B DUP6 DUP3 PUSH2 0x15BD JUMP JUMPDEST DUP7 SSTORE POP PUSH2 0x16A3 JUMP JUMPDEST PUSH1 0x1F NOT DUP5 AND PUSH2 0x1651 DUP7 PUSH2 0x142D JUMP JUMPDEST PUSH1 0x0 JUMPDEST DUP3 DUP2 LT ISZERO PUSH2 0x1679 JUMPI DUP5 DUP10 ADD MLOAD DUP3 SSTORE PUSH1 0x1 DUP3 ADD SWAP2 POP PUSH1 0x20 DUP6 ADD SWAP5 POP PUSH1 0x20 DUP2 ADD SWAP1 POP PUSH2 0x1654 JUMP JUMPDEST DUP7 DUP4 LT ISZERO PUSH2 0x1696 JUMPI DUP5 DUP10 ADD MLOAD PUSH2 0x1692 PUSH1 0x1F DUP10 AND DUP3 PUSH2 0x159F JUMP JUMPDEST DUP4 SSTORE POP JUMPDEST PUSH1 0x1 PUSH1 0x2 DUP9 MUL ADD DUP9 SSTORE POP POP POP JUMPDEST POP POP POP POP POP POP JUMP JUMPDEST PUSH32 0x4E487B7100000000000000000000000000000000000000000000000000000000 PUSH1 0x0 MSTORE PUSH1 0x11 PUSH1 0x4 MSTORE PUSH1 0x24 PUSH1 0x0 REVERT JUMPDEST PUSH1 0x0 PUSH2 0x16E5 DUP3 PUSH2 0x10AD JUMP JUMPDEST SWAP2 POP PUSH1 0x0 DUP3 SUB PUSH2 0x16F8 JUMPI PUSH2 0x16F7 PUSH2 0x16AB JUMP JUMPDEST JUMPDEST PUSH1 0x1 DUP3 SUB SWAP1 POP SWAP2 SWAP1 POP JUMP JUMPDEST PUSH1 0x0 DUP3 SWAP1 POP SWAP3 SWAP2 POP POP JUMP JUMPDEST PUSH2 0x1718 DUP4 DUP4 PUSH2 0x1703 JUMP JUMPDEST PUSH8 0xFFFFFFFFFFFFFFFF DUP2 GT ISZERO PUSH2 0x1731 JUMPI PUSH2 0x1730 PUSH2 0x13FE JUMP JUMPDEST JUMPDEST PUSH2 0x173B DUP3 SLOAD PUSH2 0x1332 JUMP JUMPDEST PUSH2 0x1746 DUP3 DUP3 DUP6 PUSH2 0x154C JUMP JUMPDEST PUSH1 0x0 PUSH1 0x1F DUP4 GT PUSH1 0x1 DUP2 EQ PUSH2 0x1775 JUMPI PUSH1 0x0 DUP5 ISZERO PUSH2 0x1763 JUMPI DUP3 DUP8 ADD CALLDATALOAD SWAP1 POP JUMPDEST PUSH2 0x176D DUP6 DUP3 PUSH2 0x15BD JUMP JUMPDEST DUP7 SSTORE POP PUSH2 0x17D5 JUMP JUMPDEST PUSH1 0x1F NOT DUP5 AND PUSH2 0x1783 DUP7 PUSH2 0x142D JUMP JUMPDEST PUSH1 0x0 JUMPDEST DUP3 DUP2 LT ISZERO PUSH2 0x17AB JUMPI DUP5 DUP10 ADD CALLDATALOAD DUP3 SSTORE PUSH1 0x1 DUP3 ADD SWAP2 POP PUSH1 0x20 DUP6 ADD SWAP5 POP PUSH1 0x20 DUP2 ADD SWAP1 POP PUSH2 0x1786 JUMP JUMPDEST DUP7 DUP4 LT ISZERO PUSH2 0x17C8 JUMPI DUP5 DUP10 ADD CALLDATALOAD PUSH2 0x17C4 PUSH1 0x1F DUP10 AND DUP3 PUSH2 0x159F JUMP JUMPDEST DUP4 SSTORE POP JUMPDEST PUSH1 0x1 PUSH1 0x2 DUP9 MUL ADD DUP9 SSTORE POP POP POP JUMPDEST POP POP POP POP POP POP POP JUMP JUMPDEST PUSH1 0x0 DUP2 SWAP1 POP SWAP3 SWAP2 POP POP JUMP JUMPDEST PUSH1 0x0 DUP2 SLOAD PUSH2 0x17F6 DUP2 PUSH2 0x1332 JUMP JUMPDEST PUSH2 0x1800 DUP2 DUP7 PUSH2 0x17DE JUMP JUMPDEST SWAP5 POP PUSH1 0x1 DUP3 AND PUSH1 0x0 DUP2 EQ PUSH2 0x181B JUMPI PUSH1 0x1 DUP2 EQ PUSH2 0x1830 JUMPI PUSH2 0x1863 JUMP JUMPDEST PUSH1 0xFF NOT DUP4 AND DUP7 MSTORE DUP2 ISZERO ISZERO DUP3 MUL DUP7 ADD SWAP4 POP PUSH2 0x1863 JUMP JUMPDEST PUSH2 0x1839 DUP6 PUSH2 0x142D JUMP JUMPDEST PUSH1 0x0 JUMPDEST DUP4 DUP2 LT ISZERO PUSH2 0x185B JUMPI DUP2 SLOAD DUP2 DUP10 ADD MSTORE PUSH1 0x1 DUP3 ADD SWAP2 POP PUSH1 0x20 DUP2 ADD SWAP1 POP PUSH2 0x183C JUMP JUMPDEST DUP4 DUP9 ADD SWAP6 POP POP POP JUMPDEST POP POP POP SWAP3 SWAP2 POP POP JUMP JUMPDEST PUSH1 0x0 PUSH2 0x1878 DUP3 DUP5 PUSH2 0x17E9 JUMP JUMPDEST SWAP2 POP DUP2 SWAP1 POP SWAP3 SWAP2 POP POP JUMP JUMPDEST PUSH32 0x43616C6C6572206973206E6F742020617574686F726973656420746F20656469 PUSH1 0x0 DUP3 ADD MSTORE PUSH32 0x74207468697320646F63756D656E740000000000000000000000000000000000 PUSH1 0x20 DUP3 ADD MSTORE POP JUMP JUMPDEST PUSH1 0x0 PUSH2 0x18DF PUSH1 0x2F DUP4 PUSH2 0x1006 JUMP JUMPDEST SWAP2 POP PUSH2 0x18EA DUP3 PUSH2 0x1883 JUMP JUMPDEST PUSH1 0x40 DUP3 ADD SWAP1 POP SWAP2 SWAP1 POP JUMP JUMPDEST PUSH1 0x0 PUSH1 0x20 DUP3 ADD SWAP1 POP DUP2 DUP2 SUB PUSH1 0x0 DUP4 ADD MSTORE PUSH2 0x190E DUP2 PUSH2 0x18D2 JUMP JUMPDEST SWAP1 POP SWAP2 SWAP1 POP JUMP JUMPDEST PUSH32 0x43616C6C6572206E6F7420617574686F726973656420746F2061646420646F63 PUSH1 0x0 DUP3 ADD MSTORE PUSH32 0x756D656E74730000000000000000000000000000000000000000000000000000 PUSH1 0x20 DUP3 ADD MSTORE POP JUMP JUMPDEST PUSH1 0x0 PUSH2 0x1971 PUSH1 0x26 DUP4 PUSH2 0x1006 JUMP JUMPDEST SWAP2 POP PUSH2 0x197C DUP3 PUSH2 0x1915 JUMP JUMPDEST PUSH1 0x40 DUP3 ADD SWAP1 POP SWAP2 SWAP1 POP JUMP JUMPDEST PUSH1 0x0 PUSH1 0x20 DUP3 ADD SWAP1 POP DUP2 DUP2 SUB PUSH1 0x0 DUP4 ADD MSTORE PUSH2 0x19A0 DUP2 PUSH2 0x1964 JUMP JUMPDEST SWAP1 POP SWAP2 SWAP1 POP JUMP JUMPDEST PUSH1 0x0 PUSH2 0x19B2 DUP3 PUSH2 0x10AD JUMP JUMPDEST SWAP2 POP PUSH2 0xFFFF DUP3 SUB PUSH2 0x19C6 JUMPI PUSH2 0x19C5 PUSH2 0x16AB JUMP JUMPDEST JUMPDEST PUSH1 0x1 DUP3 ADD SWAP1 POP SWAP2 SWAP1 POP JUMP JUMPDEST DUP3 DUP2 DUP4 CALLDATACOPY PUSH1 0x0 DUP4 DUP4 ADD MSTORE POP POP POP JUMP JUMPDEST PUSH1 0x0 PUSH2 0x19EC DUP4 DUP6 PUSH2 0x1006 JUMP JUMPDEST SWAP4 POP PUSH2 0x19F9 DUP4 DUP6 DUP5 PUSH2 0x19D1 JUMP JUMPDEST PUSH2 0x1A02 DUP4 PUSH2 0x1041 JUMP JUMPDEST DUP5 ADD SWAP1 POP SWAP4 SWAP3 POP POP POP JUMP JUMPDEST PUSH1 0x0 PUSH1 0x20 DUP3 ADD SWAP1 POP DUP2 DUP2 SUB PUSH1 0x0 DUP4 ADD MSTORE PUSH2 0x1A28 DUP2 DUP5 DUP7 PUSH2 0x19E0 JUMP JUMPDEST SWAP1 POP SWAP4 SWAP3 POP POP POP JUMP INVALID LOG2 PUSH5 0x6970667358 0x22 SLT KECCAK256 CALLDATASIZE 0xA8 0xE1 0x29 STATICCALL 0xEF DUP3 0xB6 0xAE 0xD1 0xC6 0xEE PUSH5 0xDB48FE013C 0xD6 0xD1 0xA5 0xE2 0xB1 0x5D SLT CODESIZE DUP13 0x23 DUP13 PUSH25 0x3B7A64736F6C63430008120033000000000000000000000000 "
				},
				"gasEstimates": {
					"creation": {
						"codeDepositCost": "1351800",
						"executionCost": "74310",
						"totalCost": "1426110"
					},
					"external": {
						"addDocHash(bytes32,string)": "infinite",
						"add_Exporter(address,string)": "infinite",
						"alter_Exporter(address,string)": "infinite",
						"changeOwner(address)": "27098",
						"count_Exporters()": "2490",
						"count_hashes()": "2566",
						"deleteHash(bytes32)": "infinite",
						"delete_Exporter(address)": "infinite",
						"findDocHash(bytes32)": "infinite",
						"getExporterInfo(address)": "infinite",
						"owner()": "2608"
					}
				},
				"methodIdentifiers": {
					"addDocHash(bytes32,string)": "bf3ccf48",
					"add_Exporter(address,string)": "cf3457bf",
					"alter_Exporter(address,string)": "505cd5d0",
					"changeOwner(address)": "a6f9dae1",
					"count_Exporters()": "6ed73e48",
					"count_hashes()": "43f6f548",
					"deleteHash(bytes32)": "63f0bfce",
					"delete_Exporter(address)": "24ac89cb",
					"findDocHash(bytes32)": "4cf00d3f",
					"getExporterInfo(address)": "05c8dc19",
					"owner()": "8da5cb5b"
				}
			},
			"storageLayout": {
				"storage": [
					{
						"astId": 13,
						"contract": "Documents/BlockChain-Based-Documents-Verfication-System-With-IPFS-main-master/Contract/Verfication.sol:Verification",
						"label": "count_Exporters",
						"offset": 0,
						"slot": "0",
						"type": "t_uint16"
					},
					{
						"astId": 16,
						"contract": "Documents/BlockChain-Based-Documents-Verfication-System-With-IPFS-main-master/Contract/Verfication.sol:Verification",
						"label": "count_hashes",
						"offset": 2,
						"slot": "0",
						"type": "t_uint16"
					},
					{
						"astId": 18,
						"contract": "Documents/BlockChain-Based-Documents-Verfication-System-With-IPFS-main-master/Contract/Verfication.sol:Verification",
						"label": "owner",
						"offset": 4,
						"slot": "0",
						"type": "t_address"
					},
					{
						"astId": 37,
						"contract": "Documents/BlockChain-Based-Documents-Verfication-System-With-IPFS-main-master/Contract/Verfication.sol:Verification",
						"label": "docHashes",
						"offset": 0,
						"slot": "1",
						"type": "t_mapping(t_bytes32,t_struct(Record)27_storage)"
					},
					{
						"astId": 42,
						"contract": "Documents/BlockChain-Based-Documents-Verfication-System-With-IPFS-main-master/Contract/Verfication.sol:Verification",
						"label": "Exporters",
						"offset": 0,
						"slot": "2",
						"type": "t_mapping(t_address,t_struct(Exporter_Record)32_storage)"
					}
				],
				"types": {
					"t_address": {
						"encoding": "inplace",
						"label": "address",
						"numberOfBytes": "20"
					},
					"t_bytes32": {
						"encoding": "inplace",
						"label": "bytes32",
						"numberOfBytes": "32"
					},
					"t_mapping(t_address,t_struct(Exporter_Record)32_storage)": {
						"encoding": "mapping",
						"key": "t_address",
						"label": "mapping(address => struct Verification.Exporter_Record)",
						"numberOfBytes": "32",
						"value": "t_struct(Exporter_Record)32_storage"
					},
					"t_mapping(t_bytes32,t_struct(Record)27_storage)": {
						"encoding": "mapping",
						"key": "t_bytes32",
						"label": "mapping(bytes32 => struct Verification.Record)",
						"numberOfBytes": "32",
						"value": "t_struct(Record)27_storage"
					},
					"t_string_storage": {
						"encoding": "bytes",
						"label": "string",
						"numberOfBytes": "32"
					},
					"t_struct(Exporter_Record)32_storage": {
						"encoding": "inplace",
						"label": "struct Verification.Exporter_Record",
						"members": [
							{
								"astId": 29,
								"contract": "Documents/BlockChain-Based-Documents-Verfication-System-With-IPFS-main-master/Contract/Verfication.sol:Verification",
								"label": "blockNumber",
								"offset": 0,
								"slot": "0",
								"type": "t_uint256"
							},
							{
								"astId": 31,
								"contract": "Documents/BlockChain-Based-Documents-Verfication-System-With-IPFS-main-master/Contract/Verfication.sol:Verification",
								"label": "info",
								"offset": 0,
								"slot": "1",
								"type": "t_string_storage"
							}
						],
						"numberOfBytes": "64"
					},
					"t_struct(Record)27_storage": {
						"encoding": "inplace",
						"label": "struct Verification.Record",
						"members": [
							{
								"astId": 20,
								"contract": "Documents/BlockChain-Based-Documents-Verfication-System-With-IPFS-main-master/Contract/Verfication.sol:Verification",
								"label": "blockNumber",
								"offset": 0,
								"slot": "0",
								"type": "t_uint256"
							},
							{
								"astId": 22,
								"contract": "Documents/BlockChain-Based-Documents-Verfication-System-With-IPFS-main-master/Contract/Verfication.sol:Verification",
								"label": "minetime",
								"offset": 0,
								"slot": "1",
								"type": "t_uint256"
							},
							{
								"astId": 24,
								"contract": "Documents/BlockChain-Based-Documents-Verfication-System-With-IPFS-main-master/Contract/Verfication.sol:Verification",
								"label": "info",
								"offset": 0,
								"slot": "2",
								"type": "t_string_storage"
							},
							{
								"astId": 26,
								"contract": "Documents/BlockChain-Based-Documents-Verfication-System-With-IPFS-main-master/Contract/Verfication.sol:Verification",
								"label": "ipfs_hash",
								"offset": 0,
								"slot": "3",
								"type": "t_string_storage"
							}
						],
						"numberOfBytes": "128"
					},
					"t_uint16": {
						"encoding": "inplace",
						"label": "uint16",
						"numberOfBytes": "2"
					},
					"t_uint256": {
						"encoding": "inplace",
						"label": "uint256",
						"numberOfBytes": "32"
					}
				}
			},
			"userdoc": {
				"kind": "user",
				"methods": {},
				"version": 1
			}
		}
	}
}